012016060102PETR4       010PETROBRAS   PN           R$  000000000080900000000008250000000000786000000000080500000000008180000000000818000000000081942234000000000045884400000000036954370700000000000000009999123100000010000000000000BRPETRACNPR6185
012016060202PETR4       010PETROBRAS   PN           R$  000000000081900000000008410000000000803000000000082400000000008400000000000840000000000084133614000000000052835100000000043555243400000000000000009999123100000010000000000000BRPETRACNPR6185
012016060302PETR4       010PETROBRAS   PN           R$  000000000085100000000008670000000000845000000000085500000000008570000000000857000000000085837693000000000045595300000000038986293900000000000000009999123100000010000000000000BRPETRACNPR6185
012016060602PETR4       010PETROBRAS   PN           R$  000000000087000000000008780000000000845000000000085800000000008460000000000846000000000084730347000000000037117600000000031859768000000000000000009999123100000010000000000000BRPETRACNPR6185
012016060702PETR4       010PETROBRAS   PN           R$  000000000084200000000008720000000000839000000000085900000000008620000000000861000000000086230217000000000034401600000000029583305300000000000000009999123100000010000000000000BRPETRACNPR6185
012016060802PETR4       010PETROBRAS   PN           R$  000000000088000000000009410000000000880000000000091400000000009390000000000938000000000093954890000000000077194700000000070573115900000000000000009999123100000010000000000000BRPETRACNPR6185
012016060902PETR4       010PETROBRAS   PN           R$  000000000092800000000009380000000000905000000000091800000000009180000000000918000000000091944831000000000046539900000000042756137300000000000000009999123100000010000000000000BRPETRACNPR6185
012016061002PETR4       010PETROBRAS   PN           R$  000000000089700000000008990000000000878000000000088700000000008780000000000878000000000088031214000000000038859900000000034500265300000000000000009999123100000010000000000000BRPETRACNPR6185
012016061302PETR4       010PETROBRAS   PN           R$  000000000085800000000008840000000000852000000000086600000000008620000000000861000000000086224591000000000037094100000000032146837900000000000000009999123100000010000000000000BRPETRACNPR6185
012016061402PETR4       010PETROBRAS   PN           R$  000000000086000000000008770000000000825000000000084200000000008300000000000829000000000083037061000000000066180300000000055766499700000000000000009999123100000010000000000000BRPETRACNPR6185
012016061502PETR4       010PETROBRAS   PN           R$  000000000083000000000008690000000000827000000000085000000000008510000000000851000000000085241570000000000084556900000000071901059200000000000000009999123100000010000000000000BRPETRACNPR6185
012016061602PETR4       010PETROBRAS   PN           R$  000000000084100000000008540000000000828000000000084200000000008500000000000849000000000085040769000000000046834500000000039454690000000000000000009999123100000010000000000000BRPETRACNPR6185
012016061702PETR4       010PETROBRAS   PN           R$  000000000087500000000008950000000000873000000000088700000000008950000000000893000000000089537103000000000063144100000000056026693700000000000000009999123100000010000000000000BRPETRACNPR6185
012016062002PETR4       010PETROBRAS   PN           R$  000000000092200000000009370000000000912000000000092400000000009180000000000917000000000091851358000000000063791500000000058966121100000000000000009999123100000010000000000000BRPETRACNPR6185
012016062102PETR4       010PETROBRAS   PN           R$  000000000090900000000009540000000000894000000000092000000000009530000000000953000000000095430212000000000053703900000000049476741100000000000000009999123100000010000000000000BRPETRACNPR6185
012016062202PETR4       010PETROBRAS   PN           R$  000000000096100000000009750000000000934000000000095600000000009340000000000934000000000093735244000000000061983000000000059276679300000000000000009999123100000010000000000000BRPETRACNPR6185
012016062302PETR4       010PETROBRAS   PN           R$  000000000095900000000009700000000000951000000000096200000000009670000000000967000000000096834555000000000048031300000000046225354200000000000000009999123100000010000000000000BRPETRACNPR6185
012016062402PETR4       010PETROBRAS   PN           R$  000000000090000000000009330000000000892000000000091200000000009250000000000924000000000092553071000000000075974900000000069330524100000000000000009999123100000010000000000000BRPETRACNPR6185
012016062702PETR4       010PETROBRAS   PN           R$  000000000092200000000009340000000000878000000000089500000000008780000000000878000000000087946000000000000058818400000000052676382100000000000000009999123100000010000000000000BRPETRACNPR6185
012016062802PETR4       010PETROBRAS   PN           R$  000000000091000000000009280000000000907000000000091600000000009200000000000920000000000092131145000000000045291700000000041528391300000000000000009999123100000010000000000000BRPETRACNPR6185
012016062878PETRI13     070PETR        PN        000R$  000000000001700000000000170000000000017000000000001700000000000170000000000015000000000000000002000000000000001100000000000000018700000000000130002016091900000010000000000000BRPETRACNPR6185
012016062902PETR4       010PETROBRAS   PN           R$  000000000094300000000009570000000000932000000000094700000000009500000000000950000000000095133204000000000056093600000000053171738400000000000000009999123100000010000000000000BRPETRACNPR6185
012016063002PETR4       010PETROBRAS   PN           R$  000000000094200000000009490000000000924000000000093900000000009420000000000941000000000094220113000000000043741300000000041085872900000000000000009999123100000010000000000000BRPETRACNPR6185
012016063078PETRI13     070PETR        PN        000R$  000000000001600000000000160000000000016000000000001600000000000160000000000010000000000001800005000000000000013200000000000000211200000000000130002016091900000010000000000000BRPETRACNPR6185
012016070102PETR4       010PETROBRAS   PN           R$  000000000094800000000009850000000000937000000000096900000000009820000000000981000000000098237081000000000049290800000000047785156500000000000000009999123100000010000000000000BRPETRACNPR6185
012016070178PETRI13     070PETR        PN        000R$  000000000001700000000000200000000000017000000000001900000000000190000000000019000000000000000003000000000000022900000000000000437300000000000130002016091900000010000000000000BRPETRACNPR6185
012016070402PETR4       010PETROBRAS   PN           R$  000000000099500000000010050000000000979000000000099100000000009870000000000986000000000098714948000000000024505100000000024302293800000000000000009999123100000010000000000000BRPETRACNPR6185
012016070478PETRI13     070PETR        PN        000R$  000000000002400000000000240000000000020000000000002200000000000200000000000019000000000000000003000000000000002000000000000000044500000000000130002016091900000010000000000000BRPETRACNPR6185
012016070502PETR4       010PETROBRAS   PN           R$  000000000096500000000009670000000000923000000000093700000000009290000000000928000000000092950023000000000069691200000000065340315800000000000000009999123100000010000000000000BRPETRACNPR6185
012016070578PETRI13     070PETR        PN        000R$  000000000001600000000000160000000000013000000000001400000000000150000000000013000000000001400007000000000000006300000000000000089700000000000130002016091900000010000000000000BRPETRACNPR6185
012016070602PETR4       010PETROBRAS   PN           R$  000000000090900000000009520000000000895000000000092200000000009500000000000949000000000095038068000000000068781500000000063485164500000000000000009999123100000010000000000000BRPETRACNPR6185
012016070678PETRI13     070PETR        PN        000R$  000000000001200000000000170000000000012000000000001300000000000170000000000017000000000001800045000000000000111000000000000001496000000000000130002016091900000010000000000000BRPETRACNPR6185
012016070702PETR4       010PETROBRAS   PN           R$  000000000096600000000009980000000000952000000000097200000000009560000000000956000000000095752207000000000081610300000000079363921700000000000000009999123100000010000000000000BRPETRACNPR6185
012016070778PETRI13     070PETR        PN        000R$  000000000002100000000000230000000000019000000000002100000000000190000000000017000000000002300026000000000000113300000000000002396100000000000130002016091900000010000000000000BRPETRACNPR6185
012016070802PETR4       010PETROBRAS   PN           R$  000000000098500000000009940000000000967000000000098200000000009840000000000983000000000098427064000000000042647600000000041880621900000000000000009999123100000010000000000000BRPETRACNPR6185
012016070878PETRI13     070PETR        PN        000R$  000000000002300000000000230000000000019000000000002000000000000200000000000019000000000002000006000000000000039300000000000000815000000000000130002016091900000010000000000000BRPETRACNPR6185
012016071102PETR4       010PETROBRAS   PN           R$  000000000100000000000010370000000000998000000000102200000000010360000000001035000000000103642606000000000066717300000000068206476200000000000000009999123100000010000000000000BRPETRACNPR6185
012016071178PETRI13     070PETR        PN        000R$  000000000002000000000000250000000000020000000000002200000000000250000000000020000000000000000042000000000000316100000000000007047800000000000130002016091900000010000000000000BRPETRACNPR6185
012016071202PETR4       010PETROBRAS   PN           R$  000000000106100000000010800000000001058000000000106800000000010650000000001065000000000106758008000000000058174200000000062170951400000000000000009999123100000010000000000000BRPETRACNPR6185
012016071278PETRI13     070PETR        PN        000R$  000000000003300000000000340000000000030000000000003200000000000340000000000030000000000003400084000000000000289100000000000009272500000000000130002016091900000010000000000000BRPETRACNPR6185
012016071302PETR4       010PETROBRAS   PN           R$  000000000104700000000010630000000001021000000000104400000000010630000000001062000000000106344245000000000064252100000000067131464200000000000000009999123100000010000000000000BRPETRACNPR6185
012016071378PETRI13     070PETR        PN        000R$  000000000002600000000000460000000000024000000000002900000000000460000000000029000000000004700077000000000000716600000000000021213700000000000130002016091900000010000000000000BRPETRACNPR6185
012016071402PETR4       010PETROBRAS   PN           R$  000000000109200000000010980000000001066000000000108600000000010930000000001092000000000109349120000000000053059500000000057657957800000000000000009999123100000010000000000000BRPETRACNPR6185
012016071478PETRI13     070PETR        PN        000R$  000000000003900000000000390000000000031000000000003400000000000370000000000034000000000003700055000000000000203900000000000006963900000000000130002016091900000010000000000000BRPETRACNPR6185
012016071502PETR4       010PETROBRAS   PN           R$  000000000109100000000011060000000001082000000000109600000000011020000000001102000000000110340515000000000051223500000000056144904500000000000000009999123100000010000000000000BRPETRACNPR6185
012016071578PETRI13     070PETR        PN        000R$  000000000003700000000000380000000000031000000000003600000000000380000000000027000000000003800119000000000000346200000000000012723200000000000130002016091900000010000000000000BRPETRACNPR6185
012016071802PETR4       010PETROBRAS   PN           R$  000000000109700000000011740000000001087000000000113400000000011550000000001154000000000115559932000000000077358900000000087797045100000000000000009999123100000010000000000000BRPETRACNPR6185
012016071878PETRI13     070PETR        PN        000R$  000000000003700000000000600000000000035000000000004700000000000550000000000050000000000005500096000000000000256200000000000012153700000000000130002016091900000010000000000000BRPETRACNPR6185
012016071902PETR4       010PETROBRAS   PN           R$  000000000115100000000011970000000001150000000000117600000000011780000000001177000000000117855524000000000053692000000000063152316200000000000000009999123100000010000000000000BRPETRACNPR6185
012016071978PETRI13     070PETR        PN        000R$  000000000005500000000000680000000000050000000000006300000000000660000000000057000000000006600627000000000002311000000000000147867300000000000130002016091900000010000000000000BRPETRACNPR6185
012016072002PETR4       010PETROBRAS   PN           R$  000000000118200000000011900000000001154000000000117400000000011820000000001181000000000118230413000000000049261200000000057854231800000000000000009999123100000010000000000000BRPETRACNPR6185
012016072078PETRI13     070PETR        PN        000R$  000000000006600000000000700000000000060000000000006300000000000610000000000060000000000006500112000000000000525500000000000033348600000000000130002016091900000010000000000000BRPETRACNPR6185
012016072102PETR4       010PETROBRAS   PN           R$  000000000117700000000011990000000001173000000000118600000000011850000000001185000000000118623980000000000037748600000000044799311700000000000000009999123100000010000000000000BRPETRACNPR6185
012016072178PETRI13     070PETR        PN        000R$  000000000005900000000000690000000000059000000000006400000000000630000000000063000000000006400098000000000000381000000000000024451100000000000130002016091900000010000000000000BRPETRACNPR6185
012016072202PETR4       010PETROBRAS   PN           R$  000000000118400000000011970000000001172000000000118600000000011940000000001194000000000119526369000000000033938400000000040253092800000000000000009999123100000010000000000000BRPETRACNPR6185
012016072278PETRI13     070PETR        PN        000R$  000000000006700000000000670000000000060000000000006300000000000650000000000064000000000006500287000000000000444600000000000028055800000000000130002016091900000010000000000000BRPETRACNPR6185
012016072502PETR4       010PETROBRAS   PN           R$  000000000119800000000012250000000001191000000000120500000000012030000000001203000000000120437172000000000047192000000000056907053700000000000000009999123100000010000000000000BRPETRACNPR6185
012016072578PETRI13     070PETR        PN        000R$  000000000007200000000000760000000000064000000000006800000000000690000000000069000000000007000284000000000000568800000000000038705000000000000130002016091900000010000000000000BRPETRACNPR6185
012016072602PETR4       010PETROBRAS   PN           R$  000000000119500000000012070000000001185000000000119500000000011880000000001188000000000119034342000000000038304800000000045807465800000000000000009999123100000010000000000000BRPETRACNPR6185
012016072678PETRI13     070PETR        PN        000R$  000000000006500000000000710000000000061000000000006700000000000670000000000066000000000006700976000000000002568900000000000174438300000000000130002016091900000010000000000000BRPETRACNPR6185
012016072702PETR4       010PETROBRAS   PN           R$  000000000119900000000012040000000001151000000000117200000000011510000000001150000000000115141205000000000051952100000000060904278900000000000000009999123100000010000000000000BRPETRACNPR6185
012016072778PETRI13     070PETR        PN        000R$  000000000007000000000000700000000000050000000000005800000000000520000000000052000000000005300975000000000002844800000000000166810300000000000130002016091900000010000000000000BRPETRACNPR6185
012016072802PETR4       010PETROBRAS   PN           R$  000000000114000000000011550000000001115000000000113300000000011440000000001144000000000114536214000000000040663100000000046089204300000000000000009999123100000010000000000000BRPETRACNPR6185
012016072878PETRI13     070PETR        PN        000R$  000000000005300000000000530000000000039000000000004400000000000480000000000047000000000004800439000000000001638800000000000072998800000000000130002016091900000010000000000000BRPETRACNPR6185
012016072902PETR4       010PETROBRAS   PN           R$  000000000117600000000011980000000001161000000000118000000000011870000000001187000000000118944832000000000060740000000000071732254900000000000000009999123100000010000000000000BRPETRACNPR6185
012016072978PETRI13     070PETR        PN        000R$  000000000005100000000000640000000000051000000000005800000000000610000000000061000000000006200735000000000001883500000000000109997800000000000130002016091900000010000000000000BRPETRACNPR6185
012016080102PETR4       010PETROBRAS   PN           R$  000000000119300000000011970000000001122000000000115600000000011250000000001125000000000112636767000000000052012300000000060148980900000000000000009999123100000010000000000000BRPETRACNPR6185
012016080178PETRI13     070PETR        PN        000R$  000000000006400000000000640000000000039000000000004800000000000420000000000041000000000004200610000000000001916200000000000092837900000000000130002016091900000010000000000000BRPETRACNPR6185
012016080202PETR4       010PETROBRAS   PN           R$  000000000113300000000011620000000001110000000000113200000000011360000000001135000000000113633823000000000049134600000000055668629300000000000000009999123100000010000000000000BRPETRACNPR6185
012016080278PETRI13     070PETR        PN        000R$  000000000004200000000000500000000000036000000000004100000000000430000000000042000000000004300880000000000003215900000000000134066800000000000130002016091900000010000000000000BRPETRACNPR6185
