00COTAHIST.2017BOVESPA 20170217                                                                                                                                                                                                                      
012017021702AALR3       010ALLIAR      ON      NM   R$  000000000131600000000013240000000001302000000000130600000000013050000000001305000000000130600610000000000000159200000000000208045400000000000000009999123100000010000000000000BRAALRACNOR6100
012017021796AALR3F      020ALLIAR      ON      NM   R$  000000000132500000000013250000000001282000000000130800000000013080000000001307000000000133100012000000000000000370000000000000484160000000000000009999123100000010000000000000BRAALRACNOR6100
012017021702AAPL34      010APPLE       DRN ED       R$  000000000417800000000041820000000004178000000000417800000000041820000000004182000000000422100002000000000000005300000000000022143800000000000000009999123100000010000000000000BRAAPLBDR004120
012017021796ABCB10F     020ABC BRASIL  PN  REC N2   R$  000000000183600000000018360000000001833000000000183300000000018330000000001821000000000188000003000000000000000112000000000000205398000000000000009999123100000010000000000000BRABCBR11PR8126
012017021702ABCB4       010ABC BRASIL  PN      N2   R$  000000000191500000000019290000000001874000000000189200000000018800000000001874000000000189004045000000000000807800000000001529119300000000000000009999123100000010000000000000BRABCBACNPR4127
012017021796ABCB4F      020ABC BRASIL  PN      N2   R$  000000000192000000000019480000000001880000000000190300000000018890000000001881000000000188800030000000000000000755000000000001437199000000000000009999123100000010000000000000BRABCBACNPR4127
012017021712ABCP11      010FII ABC IMOBCI           R$  000000000146000000000014600000000001454000000000145900000000014540000000001454000000000148900008000000000000000067000000000000097814000000000000009999123100000010000000000000BRABCPCTF000256
012017021702ABEV3       010AMBEV S/A   ON           R$  000000000179500000000018010000000001780000000000178800000000017900000000001785000000000179013422000000000007025800000000012568015200000000000000009999123100000010000000000000BRABEVACNOR1116
012017021796ABEV3F      020AMBEV S/A   ON           R$  000000000178800000000018000000000001779000000000179000000000018000000000001785000000000180000142000000000000003497000000000006260711000000000000009999123100000010000000000000BRABEVACNOR1116
012017021762ABEV3T      030AMBEV S/A   ON        017R$  000000000179500000000017960000000001795000000000179500000000017960000000000000000000000000000002000000000000002000000000000003591377000000000000009999123100000010000000000000BRABEVACNOR1116
012017021762ABEV3T      030AMBEV S/A   ON        028R$  000000000181000000000018110000000001810000000000181000000000018110000000000000000000000000000002000000000000001500000000000002716463000000000000009999123100000010000000000000BRABEVACNOR1116
012017021778ABEVB1      070ABEVE       ON        000R$  000000000013200000000001320000000000132000000000013200000000001320000000000000000000000043200002000000000000004700000000000000620400000000000165902017022000000010000000000000BRABEVACNOR1111
012017021778ABEVB16     070ABEV        ON        000R$  000000000022100000000002210000000000203000000000020400000000002030000000000000000000000056800003000000000000002100000000000000429900000000000158402017022000000010000000000000BRABEVACNOR1114
012017021778ABEVB28     070ABEV        ON        000R$  000000000003800000000000620000000000038000000000005400000000000430000000000016000000000009800051000000000000032200000000000001760500000000000173402017022000000010000000000000BRABEVACNOR1111
012017021778ABEVB37     070ABEV        ON        000R$  000000000011000000000001100000000000100000000000010800000000001000000000000020000000000014900006000000000000006200000000000000670500000000000168402017022000000010000000000000BRABEVACNOR1111
012017021778ABEVB48     070ABEV        ON        000R$  000000000000100000000000030000000000001000000000000100000000000010000000000000000000000000200013000000000000036300000000000000043400000000000183402017022000000010000000000000BRABEVACNOR1113
012017021778ABEVB68     070ABEVE       ON        000R$  000000000003500000000000400000000000028000000000003700000000000330000000000000000000000003800007000000000000097800000000000003696800000000000175902017022000000010000000000000BRABEVACNOR1113
012017021778ABEVB87     070ABEV        ON        000R$  000000000014800000000001500000000000148000000000014900000000001500000000000000000000000000000002000000000000003000000000000000447000000000000163402017022000000010000000000000BRABEVACNOR1111
012017021778ABEVB88     070ABEVE       ON        000R$  000000000000500000000000050000000000001000000000000300000000000010000000000001000000000000500030000000000000478500000000000001611700000000000180902017022000000010000000000000BRABEVACNOR1111
012017021778ABEVB97     070ABEVE       ON        000R$  000000000007600000000000810000000000076000000000007800000000000810000000000000000000000011500002000000000000001000000000000000078000000000000170902017022000000010000000000000BRABEVACNOR1111
012017021778ABEVB98     070ABEV        ON        000R$  000000000001000000000000190000000000008000000000001200000000000100000000000005000000000003000049000000000000036100000000000000455000000000000178402017022000000010000000000000BRABEVACNOR1112
012017021778ABEVC19     070ABEV  FM    ON        000R$  000000000001100000000000140000000000008000000000001000000000000110000000000010000000000001400032000000000000093900000000000000946800000000000189802017032000000010000000000000BRABEVACNOR1114
012017021778ABEVC2      070ABEV  FM    ON        000R$  000000000004200000000000470000000000037000000000003900000000000370000000000035000000000004400058000000000000077500000000000003045200000000000179802017032000000010000000000000BRABEVACNOR1112
012017021778ABEVC20     070ABEV        ON        000R$  000000000000200000000000030000000000002000000000000200000000000020000000000002000000000002100014000000000000014000000000000000029000000000000199802017032000000010000000000000BRABEVACNOR1114
012017021778ABEVC3      070ABEVE       ON        000R$  000000000006500000000000650000000000055000000000006300000000000550000000000009000000000010000005000000000000027000000000000001720000000000000177302017032000000010000000000000BRABEVACNOR1114
012017021778ABEVC46     070ABEV        ON        000R$  000000000015600000000001560000000000156000000000015600000000001560000000000000000000000000000001000000000000001500000000000000234000000000000164802017032000000010000000000000BRABEVACNOR1114
012017021778ABEVC7      070ABEVE       ON        000R$  000000000008700000000000870000000000083000000000008400000000000830000000000078000000000012800003000000000000005200000000000000440400000000000172302017032000000010000000000000BRABEVACNOR1112
012017021778ABEVC76     070ABEVE       ON        000R$  000000000012900000000001290000000000124000000000012700000000001240000000000000000000000000000002000000000000003900000000000000498100000000000167302017032000000010000000000000BRABEVACNOR1114
012017021778ABEVC77     070ABEV        ON        000R$  000000000012000000000001200000000000109000000000011500000000001110000000000040000000000015000005000000000000007200000000000000832300000000000169802017032000000010000000000000BRABEVACNOR1113
012017021778ABEVC8      070ABEV  FM    ON        000R$  000000000007000000000000800000000000066000000000007400000000000690000000000000000000000007800015000000000000082300000000000006117700000000000174802017032000000010000000000000BRABEVACNOR1112
012017021778ABEVC99     070ABEV  FM    ON        000R$  000000000002100000000000220000000000017000000000001900000000000190000000000018000000000002100032000000000000060100000000000001195500000000000184802017032000000010000000000000BRABEVACNOR1108
012017021778ABEVD19     070ABEV  FM    ON        000R$  000000000002200000000000220000000000022000000000002200000000000220000000000002000000000002800001000000000000001000000000000000022000000000000189502017041700000010000000000000BRABEVACNOR1115
012017021778ABEVD58     070ABEVE       ON        000R$  000000000005000000000000540000000000050000000000005200000000000530000000000003000000000000000004000000000000025000000000000001315000000000000182002017041700000010000000000000BRABEVACNOR1112
012017021778ABEVD67     070ABEV  FM    ON        000R$  000000000005800000000000580000000000058000000000005800000000000580000000000000000000000000000001000000000000000300000000000000017400000000000179502017041700000010000000000000BRABEVACNOR1112
012017021778ABEVD78     070ABEV  FM    ON        000R$  000000000009100000000001010000000000089000000000009500000000000910000000000035000000000000000005000000000000015700000000000001497400000000000174502017041700000010000000000000BRABEVACNOR1112
012017021778ABEVD79     070ABEV  FM    ON        000R$  000000000004000000000000400000000000038000000000003800000000000380000000000036000000000000000003000000000000020400000000000000776000000000000184502017041700000010000000000000BRABEVACNOR1112
012017021778ABEVE19     070ABEV        ON        000R$  000000000005000000000000500000000000050000000000005000000000000500000000000000000000000000000002000000000000072200000000000003610000000000000184502017051500000010000000000000BRABEVACNOR1112
012017021778ABEVL63     070ABEVE       ON        000R$  000000000002500000000000250000000000025000000000002500000000000250000000000000000000000000000001000000000000001000000000000000025000000000000227002017121800000010000000000000BRABEVACNOR1112
012017021778ABEVL70     070ABEVE       ON        000R$  000000000006500000000000650000000000065000000000006500000000000650000000000000000000000000000001000000000000000500000000000000032500000000000207002017121800000010000000000000BRABEVACNOR1114
012017021782ABEVN19     080ABEVE       ON        000R$  000000000009900000000001040000000000099000000000010300000000001040000000000000000000000000000002000000000000001100000000000000113900000000000188402017022000000010000000000000BRABEVACNOR1114
012017021782ABEVN88     080ABEVE       ON        000R$  000000000001800000000000310000000000018000000000001800000000000310000000000000000000000000000007000000000000071500000000000001306500000000000180902017022000000010000000000000BRABEVACNOR1111
012017021782ABEVN98     080ABEVE       ON        000R$  000000000000300000000000110000000000003000000000000400000000000110000000000000000000000000000036000000000000277800000000000001244700000000000178402017022000000010000000000000BRABEVACNOR1112
012017021782ABEVO2      080ABEVE FM    ON        000R$  000000000003600000000000370000000000036000000000003600000000000370000000000000000000000000000005000000000000054800000000000002025600000000000179802017032000000010000000000000BRABEVACNOR1112
012017021782ABEVO3      080ABEVE       ON        000R$  000000000002600000000000260000000000026000000000002600000000000260000000000000000000000000000001000000000000000900000000000000023400000000000177302017032000000010000000000000BRABEVACNOR1114
012017021782ABEVO7      080ABEVE       ON        000R$  000000000001300000000000130000000000013000000000001300000000000130000000000000000000000001300001000000000000003600000000000000046800000000000172302017032000000010000000000000BRABEVACNOR1112
012017021782ABEVO77     080ABEVE FM    ON        000R$  000000000000600000000000100000000000006000000000000600000000000100000000000001000000000003000003000000000000013500000000000000087000000000000169802017032000000010000000000000BRABEVACNOR1113
012017021782ABEVO8      080ABEVE FM    ON        000R$  000000000001600000000000180000000000016000000000001600000000000180000000000005000000000002000011000000000000608300000000000010252200000000000174802017032000000010000000000000BRABEVACNOR1112
012017021782ABEVO99     080ABEVE FM    ON        000R$  000000000006800000000000700000000000066000000000006700000000000700000000000000000000000000000007000000000000052700000000000003544500000000000184802017032000000010000000000000BRABEVACNOR1108
012017021782ABEVP88     080ABEVE       ON        000R$  000000000003300000000000330000000000033000000000003300000000000330000000000000000000000000000001000000000000000200000000000000006600000000000177002017041700000010000000000000BRABEVACNOR1112
012017021702ADHM3       010ADVANCED-DH ON           R$  000000000033400000000003650000000000334000000000034700000000003400000000000340000000000034500123000000000000081500000000000028297200000000000000009999123100000010000000000000BRADHMACNOR9101
012017021796ADHM3F      020ADVANCED-DH ON           R$  000000000033500000000003500000000000335000000000034500000000003450000000000340000000000034300008000000000000000227000000000000078322000000000000009999123100000010000000000000BRADHMACNOR9101
012017021712AEFI11      010FII AESAPAR CI           R$  000000001430000000000144000000000014217000000001434000000000144000000000014310000000001440000025000000000000001499000000000021496988000000000000009999123100000010000000000000BRAEFICTF002162
012017021712AGCX11      010FII AG CAIXACI           R$  000000013000000000001300000000000129700000000012995900000001300000000000129702000000013000000030000000000000000271000000000035218964000000000000009999123100000010000000000000BRAGCXCTF003151
012017021702AGRO3       010BRASILAGRO  ON      NM   R$  000000000122000000000012300000000001220000000000122600000000012250000000001224000000000122500668000000000000277000000000000339607700000000000000009999123100000010000000000000BRAGROACNOR7106
012017021796AGRO3F      020BRASILAGRO  ON      NM   R$  000000000121000000000012350000000001176000000000122700000000011760000000001175000000000124600010000000000000000344000000000000422132000000000000009999123100000010000000000000BRAGROACNOR7106
012017021762AGRO3T      030BRASILAGRO  ON      NM031R$  000000000124200000000012430000000001242000000000124200000000012430000000000000000000000000000002000000000000001000000000000001242221000000000000009999123100000010000000000000BRAGROACNOR7106
012017021712ALMI11B     010FII TORRE ALCI      MB   R$  000000017980000000001798000000000177999000000017860200000001780000000000177000000000017800000014000000000000000043000000000007679899000000000000009999123100000010000000000000BRALMICTF003246
012017021702ALPA3       010ALPARGATAS  ON      N1   R$  000000000099500000000009950000000000973000000000098600000000009800000000000974000000000098000007000000000000003600000000000003550700000000000000009999123100000010000000000000BRALPAACNOR0219
012017021796ALPA3F      020ALPARGATAS  ON      N1   R$  000000000100000000000010000000000000973000000000097600000000009730000000000952000000000097300003000000000000000073000000000000071299000000000000009999123100000010000000000000BRALPAACNOR0219
012017021702ALPA4       010ALPARGATAS  PN      N1   R$  000000000118800000000012020000000001168000000000118900000000011960000000001187000000000119602043000000000000635200000000000755501500000000000000009999123100000010000000000000BRALPAACNPR7219
012017021796ALPA4F      020ALPARGATAS  PN      N1   R$  000000000118800000000012200000000001188000000000119400000000012200000000001210000000000122000013000000000000000418000000000000499322000000000000009999123100000010000000000000BRALPAACNPR7219
012017021702ALSC3       010ALIANSCE    ON      NM   R$  000000000155300000000015750000000001545000000000155100000000015470000000001546000000000154700784000000000000165100000000000256097200000000000000009999123100000010000000000000BRALSCACNOR0110
012017021796ALSC3F      020ALIANSCE    ON      NM   R$  000000000155400000000017090000000001554000000000155800000000017090000000001396000000000171000008000000000000000206000000000000321060000000000000009999123100000010000000000000BRALSCACNOR0110
012017021702ALUP11      010ALUPAR      UNT     N2   R$  000000000198200000000019910000000001975000000000198400000000019840000000001984000000000199202123000000000000591600000000001173757300000000000000009999123100000010000000000000BRALUPCDAM15105
012017021796ALUP11F     020ALUPAR      UNT     N2   R$  000000000197700000000019920000000001977000000000198300000000019920000000001975000000000199200036000000000000001009000000000002000867000000000000009999123100000010000000000000BRALUPCDAM15105
012017021762ALUP11T     030ALUPAR      UNT     N2090R$  000000000203100000000020330000000002031000000000203100000000020330000000000000000000000000000004000000000000001000000000000002031663000000000000009999123100000010000000000000BRALUPCDAM15105
012017021702ALUP3       010ALUPAR      ON      N2   R$  000000000069800000000006980000000000647000000000066500000000006690000000000669000000000068000051000000000000015800000000000010516400000000000000009999123100000010000000000000BRALUPACNOR8105
012017021796ALUP3F      020ALUPAR      ON      N2   R$  000000000065100000000006520000000000640000000000064600000000006400000000000621000000000000000007000000000000000065000000000000042037000000000000009999123100000010000000000000BRALUPACNOR8105
012017021702ALUP4       010ALUPAR      PN      N2   R$  000000000070100000000007350000000000700000000000071200000000007000000000000700000000000075000078000000000000018000000000000012830700000000000000009999123100000010000000000000BRALUPACNPR5105
012017021796ALUP4F      020ALUPAR      PN      N2   R$  000000000065000000000007110000000000650000000000066700000000006800000000000651000000000068000005000000000000000120000000000000080120000000000000009999123100000010000000000000BRALUPACNPR5105
012017021778ALUPB19     070ALUP        UNT     N2000R$  000000000008800000000000890000000000088000000000008800000000000890000000000000000000000000000002000000000000200000000000000017700000000000000190002017022000000010000000000000BRALUPCDAM15105
012017021782ALUPN15     080ALUPE       UNT     N2000R$  000000000000100000000000010000000000001000000000000100000000000010000000000000000000000000000001000000000000200000000000000000200000000000000150002017022000000010000000000000BRALUPCDAM15105
012017021702AMAR3       010LOJAS MARISAON      NM   R$  000000000069500000000007010000000000680000000000068800000000006910000000000690000000000069100281000000000000084000000000000057811900000000000000009999123100000010000000000000BRAMARACNOR4112
012017021796AMAR3F      020LOJAS MARISAON      NM   R$  000000000069900000000007000000000000683000000000069000000000006830000000000683000000000070100007000000000000000263000000000000181703000000000000009999123100000010000000000000BRAMARACNOR4112
012017021702AMGN34      010AMGEN       DRN ED       R$  000000005330100000000533010000000053301000000005330100000000533010000000000000000000000000000001000000000000000100000000000005330100000000000000009999123100000010000000000000BRAMGNBDR004121
012017021702AMZO34      010AMAZON      DRN          R$  000000013075100000001307510000000130751000000013075100000001307510000000000000000000000000000001000000000000000100000000000013075100000000000000009999123100000010000000000000BRAMZOBDR002101
012017021702ANIM3       010ANIMA       ON      NM   R$  000000000137200000000014130000000001359000000000139800000000014040000000001404000000000140500619000000000000090800000000000126984000000000000000009999123100000010000000000000BRANIMACNOR6103
012017021796ANIM3F      020ANIMA       ON      NM   R$  000000000136900000000014480000000001307000000000139500000000014480000000001320000000000144800006000000000000000231000000000000322252000000000000009999123100000010000000000000BRANIMACNOR6103
012017021702ARZZ3       010AREZZO CO   ON      NM   R$  000000000297500000000029980000000002958000000000298400000000029890000000002970000000000298900643000000000000170400000000000508523700000000000000009999123100000010000000000000BRARZZACNOR3123
012017021796ARZZ3F      020AREZZO CO   ON      NM   R$  000000000298200000000029880000000002970000000000298200000000029800000000002801000000000304500007000000000000000171000000000000509986000000000000009999123100000010000000000000BRARZZACNOR3123
012017021708ATOM3       010ATOMPAR     ON           R$  000000000043700000000004800000000000430000000000045800000000004680000000000465000000000046800220000000000000179500000000000082218200000000000000009999123100000010000000000000BRATOMACNOR1102
012017021796ATOM3F      020ATOMPAR     ON           R$  000000000045200000000004700000000000452000000000045800000000004690000000000469000000000047000011000000000000000393000000000000180099000000000000009999123100000010000000000000BRATOMACNOR1102
012017021702AVON34      010AVON        DRN          R$  000000000073200000000007340000000000732000000000073300000000007340000000000000000000000000000002000000000000000200000000000000146600000000000000009999123100000010000000000000BRAVONBDR009121
012017021702AZEV4       010AZEVEDO     PN           R$  000000000013200000000001430000000000132000000000013300000000001320000000000130000000000013300023000000000000010400000000000001386800000000000000009999123100000010000000000000BRAZEVACNPR7116
012017021702BAHI3       010BAHEMA      ON           R$  000000000365100000000038950000000003600000000000371500000000038950000000003650000000000400000017000000000000002200000000000008175100000000000000009999123100000010000000000000BRBAHIACNOR1069
012017021796BAHI3F      020BAHEMA      ON           R$  000000000359000000000035900000000003590000000000359000000000035900000000003860000000000460000001000000000000000021000000000000075390000000000000009999123100000010000000000000BRBAHIACNOR1069
012017021796BAUH4F      020EXCELSIOR   PN           R$  000000000090000000000009000000000000900000000000090000000000009000000000000900000000000094800002000000000000000006000000000000005400000000000000009999123100000010000000000000BRBAUHACNPR3111
012017021702BAZA3       010AMAZONIA    ON           R$  000000000296000000000029790000000002930000000000295600000000029300000000002916000000000298800006000000000000000800000000000002365200000000000000009999123100000010000000000000BRBAZAACNOR0170
012017021702BBAS3       010BRASIL      ON      NM   R$  000000000326300000000033240000000003242000000000328100000000032910000000003290000000000329618350000000000010704800000000035125518200000000000000009999123100000010000000000000BRBBASACNOR3265
012017021796BBAS3F      020BRASIL      ON      NM   R$  000000000323700000000033200000000003237000000000327700000000033190000000003298000000000331900358000000000000010764000000000035282782000000000000009999123100000010000000000000BRBBASACNOR3265
012017021762BBAS3T      030BRASIL      ON      NM017R$  000000000328300000000033140000000003274000000000329300000000033140000000000000000000000000000010000000000000015500000000000051044321000000000000009999123100000010000000000000BRBBASACNOR3265
012017021762BBAS3T      030BRASIL      ON      NM024R$  000000000327700000000032780000000003277000000000327700000000032780000000000000000000000000000002000000000000003000000000000009833707000000000000009999123100000010000000000000BRBBASACNOR3265
012017021762BBAS3T      030BRASIL      ON      NM031R$  000000000329100000000032920000000003291000000000329100000000032920000000000000000000000000000002000000000000010000000000000032919795000000000000009999123100000010000000000000BRBBASACNOR3265
012017021762BBAS3T      030BRASIL      ON      NM090R$  000000000334100000000033770000000003338000000000334500000000033770000000000000000000000000000016000000000000520000000000001739434597000000000000009999123100000010000000000000BRBBASACNOR3265
012017021778BBASB1      070BBAS        ON      NM000R$  000000000020300000000002380000000000186000000000020300000000002360000000000187000000000000000007000000000000012900000000000002629000000000000307202017022000000010000000000000BRBBASACNOR3263
012017021778BBASB11     070BBASE       ON      NM000R$  000000000015500000000001550000000000155000000000015500000000001550000000000125000000000000000001000000000000001100000000000000170500000000000309702017022000000010000000000000BRBBASACNOR3263
012017021778BBASB18     070BBASE       ON      NM000R$  000000000040900000000004330000000000409000000000042100000000004330000000000000000000000000000002000000000000002000000000000000842000000000000365902018021900000010000000000000BRBBASACNOR3265
012017021778BBASB2      070BBAS        ON      NM000R$  000000000004100000000000490000000000017000000000003500000000000400000000000000000000000004000080000000000000252400000000000008863400000000000327202017022000000010000000000000BRBBASACNOR3263
012017021778BBASB20     070BBAS        ON      NM000R$  000000000128800000000012880000000001288000000000128800000000012880000000000000000000000000000002000000000000001600000000000002060800000000000202202017022000000010000000000000BRBBASACNOR3263
012017021778BBASB23     070BBAS        ON      NM000R$  000000000096000000000009600000000000960000000000096000000000009600000000000000000000000000000003000000000000001800000000000001728000000000000232202017022000000010000000000000BRBBASACNOR3263
012017021778BBASB25     070BBAS        ON      NM000R$  000000000078700000000007870000000000787000000000078700000000007870000000000025000000000000000004000000000000002000000000000001574000000000000252202017022000000010000000000000BRBBASACNOR3263
012017021778BBASB26     070BBAS        ON      NM000R$  000000000063000000000006880000000000630000000000064800000000006800000000000001000000000000000008000000000000010600000000000006869300000000000262202017022000000010000000000000BRBBASACNOR3263
012017021778BBASB27     070BBAS        ON      NM000R$  000000000055000000000005840000000000543000000000056400000000005750000000000000000000000000000010000000000000013300000000000007513300000000000272202017022000000010000000000000BRBBASACNOR3263
012017021778BBASB28     070BBAS        ON      NM000R$  000000000043000000000004880000000000430000000000044400000000004870000000000460000000000000000033000000000000056500000000000025113700000000000282202017022000000010000000000000BRBBASACNOR3263
012017021778BBASB29     070BBAS        ON      NM000R$  000000000034000000000003930000000000325000000000034600000000003800000000000369000000000000000066000000000000030600000000000010603900000000000292202017022000000010000000000000BRBBASACNOR3263
012017021738BBASB29E    012BBAS        ON      NM000R$  000000000292200000000029220000000002922000000000292200000000029220000000000000000000000000000001000000000000000100000000000000292200000000000292202017022000000010000000000000BRBBASACNOR3265
012017021778BBASB3      070BBASE       ON      NM000R$  000000000027300000000002730000000000263000000000026800000000002630000000000000000000000000000004000000000000006400000000000001719800000000000299702017022000000010000000000000BRBBASACNOR3263
012017021778BBASB30     070BBAS        ON      NM000R$  000000000023000000000002850000000000226000000000023600000000002750000000000266000000000000000107000000000000077200000000000018223600000000000302202017022000000010000000000000BRBBASACNOR3263
012017021778BBASB31     070BBAS        ON      NM000R$  000000000014600000000001960000000000130000000000015200000000001760000000000160000000000000000222000000000000089400000000000013614200000000000312202017022000000010000000000000BRBBASACNOR3263
012017021778BBASB32     070BBAS        ON      NM000R$  000000000005800000000000950000000000044000000000006700000000000680000000000068000000000010500417000000000001769100000000000118624100000000000322202017022000000010000000000000BRBBASACNOR3263
012017021778BBASB33     070BBAS        ON      NM000R$  000000000000900000000000230000000000006000000000001200000000000070000000000007000000000001000161000000000000383300000000000004752800000000000332202017022000000010000000000000BRBBASACNOR3263
012017021778BBASB34     070BBAS        ON      NM000R$  000000000000300000000000030000000000001000000000000100000000000010000000000000000000000000100012000000000000129600000000000000141600000000000342202017022000000010000000000000BRBBASACNOR3265
012017021778BBASB35     070BBAS        ON      NM000R$  000000000000100000000000010000000000001000000000000100000000000010000000000000000000000000100001000000000000005000000000000000005000000000000352202017022000000010000000000000BRBBASACNOR3265
012017021778BBASB48     070BBAS        ON      NM000R$  000000000139000000000013900000000001390000000000139000000000013900000000000000000000000000000001000000000000000900000000000001251000000000000187202017022000000010000000000000BRBBASACNOR3263
012017021778BBASB54     070BBAS        ON      NM000R$  000000000079300000000007930000000000793000000000079300000000007930000000000000000000000000000001000000000000000500000000000000396500000000000247202017022000000010000000000000BRBBASACNOR3263
012017021778BBASB55     070BBAS        ON      NM000R$  000000000068000000000006800000000000680000000000068000000000006800000000000580000000000000000002000000000000003400000000000002312000000000000257202017022000000010000000000000BRBBASACNOR3263
012017021778BBASB57     070BBAS        ON      NM000R$  000000000049000000000005360000000000490000000000051700000000005360000000000001000000000000000007000000000000004200000000000002172000000000000277202017022000000010000000000000BRBBASACNOR3263
012017021778BBASB58     070BBAS        ON      NM000R$  000000000036000000000004460000000000360000000000042000000000004260000000000000000000000000000011000000000000013700000000000005760400000000000287202017022000000010000000000000BRBBASACNOR3263
012017021778BBASB59     070BBAS        ON      NM000R$  000000000030000000000003250000000000282000000000029400000000003250000000000000000000000000000020000000000000062900000000000018496200000000000297202017022000000010000000000000BRBBASACNOR3263
012017021778BBASB61     070BBAS        ON      NM000R$  000000000009600000000001430000000000081000000000011700000000001000000000000099000000000010000323000000000000409800000000000048340600000000000317202017022000000010000000000000BRBBASACNOR3263
012017021738BBASB61E    012BBAS        ON      NM000R$  000000000317200000000031720000000003172000000000317200000000031720000000000000000000000000000001000000000000000300000000000000951600000000000317202017022000000010000000000000BRBBASACNOR3265
012017021778BBASB67     070BBASE       ON      NM000R$  000000000057000000000005700000000000570000000000057000000000005700000000000001000000000000000002000000000000001500000000000000855000000000000269702017022000000010000000000000BRBBASACNOR3263
012017021778BBASB77     070BBASE       ON      NM000R$  000000000056000000000005600000000000560000000000056000000000005600000000000001000000000000000002000000000000001700000000000000952000000000000274702017022000000010000000000000BRBBASACNOR3261
012017021778BBASB78     070BBASE       ON      NM000R$  000000000146400000000014640000000001455000000000145700000000014550000000000000000000000000000002000000000000007000000000000010203000000000000179702017022000000010000000000000BRBBASACNOR3257
012017021778BBASB83     070BBAS        ON      NM000R$  000000000000800000000000080000000000002000000000000400000000000020000000000001000000000000900072000000000000165300000000000000818400000000000337202017022000000010000000000000BRBBASACNOR3263
012017021778BBASB85     070BBASE       ON      NM000R$  000000000073300000000007500000000000733000000000073800000000007500000000000000000000000085000002000000000000000300000000000000221600000000000254702017022000000010000000000000BRBBASACNOR3263
012017021778BBASB86     070BBASE       ON      NM000R$  000000000170000000000017000000000001700000000000170000000000017000000000000000000000000000000001000000000000005400000000000009180000000000000159702017022000000010000000000000BRBBASACNOR3257
012017021778BBASB87     070BBASE       ON      NM000R$  000000000161100000000016180000000001611000000000161200000000016180000000000000000000000000000003000000000000003800000000000006128800000000000164702017022000000010000000000000BRBBASACNOR3257
012017021778BBASB89     070BBASE       ON      NM000R$  000000000040500000000004150000000000405000000000041400000000004150000000000000000000000000000003000000000000003300000000000001366500000000000289702017022000000010000000000000BRBBASACNOR3263
012017021778BBASB90     070BBASE       ON      NM000R$  000000000025000000000002500000000000226000000000023900000000002500000000000065000000000000000004000000000000009700000000000002321500000000000304702017022000000010000000000000BRBBASACNOR3263
012017021778BBASB93     070BBASE       ON      NM000R$  000000000002400000000000300000000000017000000000002400000000000260000000000020000000000000000025000000000000172400000000000004257600000000000329702017022000000010000000000000BRBBASACNOR3263
012017021778BBASC1      070BBASE       ON      NM000R$  000000000026000000000002600000000000256000000000025600000000002580000000000000000000000036000004000000000000007000000000000001798000000000000309702017032000000010000000000000BRBBASACNOR3265
012017021778BBASC2      070BBASE       ON      NM000R$  000000000155400000000016070000000001554000000000158100000000016070000000000000000000000000000002000000000000010400000000000016447800000000000169702017032000000010000000000000BRBBASACNOR3257
012017021778BBASC20     070BBAS        ON      NM000R$  000000000129500000000012950000000001293000000000129300000000012930000000000000000000000000000002000000000000001600000000000002070000000000000202202017032000000010000000000000BRBBASACNOR3264
012017021778BBASC25     070BBAS        ON      NM000R$  000000000075900000000008010000000000759000000000078300000000008010000000000000000000000000000003000000000000002100000000000001645500000000000252202017032000000010000000000000BRBBASACNOR3264
012017021778BBASC26     070BBAS        ON      NM000R$  000000000064500000000007000000000000645000000000066600000000006950000000000000000000000000000013000000000000009700000000000006464100000000000262202017032000000010000000000000BRBBASACNOR3264
012017021778BBASC27     070BBAS        ON      NM000R$  000000000057000000000006120000000000550000000000059000000000006120000000000000000000000000000009000000000000023400000000000013810700000000000272202017032000000010000000000000BRBBASACNOR3264
012017021778BBASC28     070BBAS        ON      NM000R$  000000000047500000000005000000000000470000000000047500000000005000000000000440000000000000000009000000000000028000000000000013320000000000000282202017032000000010000000000000BRBBASACNOR3264
012017021778BBASC29     070BBAS        ON      NM000R$  000000000043000000000004300000000000400000000000040900000000004000000000000400000000000000000017000000000000021100000000000008646100000000000292202017032000000010000000000000BRBBASACNOR3264
012017021778BBASC30     070BBAS        ON      NM000R$  000000000028000000000003370000000000280000000000030800000000003350000000000310000000000000000013000000000000012400000000000003830900000000000302202017032000000010000000000000BRBBASACNOR3264
012017021778BBASC31     070BBAS        ON      NM000R$  000000000024200000000002760000000000227000000000024100000000002760000000000232000000000026200102000000000000108300000000000026108500000000000312202017032000000010000000000000BRBBASACNOR3264
012017021778BBASC32     070BBAS        ON      NM000R$  000000000017700000000002050000000000167000000000019100000000002000000000000190000000000020800090000000000000208100000000000039770200000000000322202017032000000010000000000000BRBBASACNOR3264
012017021778BBASC34     070BBAS        ON      NM000R$  000000000009200000000001070000000000082000000000009300000000001010000000000088000000000010100168000000000000280200000000000026106500000000000342202017032000000010000000000000BRBBASACNOR3265
012017021778BBASC35     070BBAS        ON      NM000R$  000000000006600000000000680000000000052000000000005900000000000620000000000055000000000006200048000000000000068500000000000004107500000000000352202017032000000010000000000000BRBBASACNOR3265
012017021778BBASC36     070BBAS        ON      NM000R$  000000000003600000000000440000000000035000000000003900000000000410000000000030000000000004200046000000000000041600000000000001652800000000000362202017032000000010000000000000BRBBASACNOR3265
012017021778BBASC4      070BBAS  FM    ON      NM000R$  000000000007900000000000830000000000068000000000007500000000000800000000000066000000000011500018000000000000026500000000000002013500000000000347202017032000000010000000000000BRBBASACNOR3265
012017021778BBASC49     070BBAS        ON      NM000R$  000000000130200000000013020000000001302000000000130200000000013020000000000000000000000000000001000000000000000900000000000001171800000000000197202017032000000010000000000000BRBBASACNOR3264
012017021778BBASC5      070BBAS  FM    ON      NM000R$  000000000005100000000000510000000000047000000000004900000000000500000000000047000000000006500014000000000000021500000000000001067300000000000357202017032000000010000000000000BRBBASACNOR3265
012017021778BBASC58     070BBAS        ON      NM000R$  000000000043500000000004510000000000435000000000044900000000004510000000000000000000000000000002000000000000001300000000000000584700000000000287202017032000000010000000000000BRBBASACNOR3264
012017021778BBASC59     070BBAS        ON      NM000R$  000000000037500000000003750000000000375000000000037500000000003750000000000000000000000000000001000000000000001500000000000000562500000000000297202017032000000010000000000000BRBBASACNOR3264
012017021778BBASC6      070BBAS        ON      NM000R$  000000000003000000000000350000000000030000000000003100000000000320000000000016000000000003900034000000000000032500000000000001024800000000000367202017032000000010000000000000BRBBASACNOR3265
012017021778BBASC61     070BBAS  FM    ON      NM000R$  000000000021000000000002380000000000196000000000021500000000002300000000000197000000000022900286000000000000206600000000000044560300000000000317202017032000000010000000000000BRBBASACNOR3264
012017021778BBASC62     070BBAS  FM    ON      NM000R$  000000000015500000000001750000000000142000000000016400000000001690000000000000000000000029900038000000000000052200000000000008588200000000000327202017032000000010000000000000BRBBASACNOR3265
012017021778BBASC63     070BBAS        ON      NM000R$  000000000013600000000001400000000000119000000000012700000000001400000000000024000000000020000022000000000000023800000000000003039400000000000332202017032000000010000000000000BRBBASACNOR3265
012017021778BBASC68     070BBASE       ON      NM000R$  000000000053700000000005370000000000537000000000053700000000005370000000000000000000000000000004000000000000001500000000000000805500000000000279702017032000000010000000000000BRBBASACNOR3263
012017021778BBASC73     070BBAS  FM    ON      NM000R$  000000000010100000000001210000000000100000000000010900000000001210000000000085000000000015800016000000000000015900000000000001742700000000000337202017032000000010000000000000BRBBASACNOR3265
012017021778BBASC74     070BBASE       ON      NM000R$  000000000006200000000000700000000000060000000000006200000000000700000000000000000000000009000081000000000000242000000000000015013300000000000349702017032000000010000000000000BRBBASACNOR3265
012017021778BBASC80     070BBAS        ON      NM000R$  000000000030000000000003000000000000300000000000030000000000003000000000000000000000000000000001000000000000001200000000000000360000000000000307202017032000000010000000000000BRBBASACNOR3264
012017021778BBASC92     070BBASE       ON      NM000R$  000000000021600000000002160000000000216000000000021600000000002160000000000072000000000000000001000000000000000200000000000000043200000000000319702017032000000010000000000000BRBBASACNOR3264
012017021778BBASD1      070BBAS  FM    ON      NM000R$  000000000029500000000002950000000000288000000000029200000000002880000000000230000000000035500015000000000000030000000000000008776000000000000318802017041700000010000000000000BRBBASACNOR3265
012017021778BBASD10     070BBAS        ON      NM000R$  000000000030500000000003050000000000305000000000030500000000003050000000000000000000000000000001000000000000001500000000000000457500000000000308802017041700000010000000000000BRBBASACNOR3265
012017021778BBASD2      070BBAS        ON      NM000R$  000000000025000000000002500000000000250000000000025000000000002500000000000002000000000030000002000000000000000500000000000000125000000000000323802017041700000010000000000000BRBBASACNOR3263
012017021778BBASD25     070BBAS        ON      NM000R$  000000000083000000000008300000000000830000000000083000000000008300000000000000000000000000000002000000000000001300000000000001079000000000000248802017041700000010000000000000BRBBASACNOR3263
012017021778BBASD3      070BBAS  FM    ON      NM000R$  000000000016800000000001770000000000168000000000017500000000001770000000000060000000000000000002000000000000000600000000000000105300000000000338802017041700000010000000000000BRBBASACNOR3265
012017021778BBASD32     070BBAS  FM    ON      NM000R$  000000000022900000000002290000000000229000000000022900000000002290000000000000000000000000000001000000000000000500000000000000114500000000000328802017041700000010000000000000BRBBASACNOR3265
012017021778BBASD33     070BBAS        ON      NM000R$  000000000019100000000002110000000000190000000000020700000000002090000000000100000000000000000023000000000000002300000000000000477000000000000333802017041700000010000000000000BRBBASACNOR3265
012017021778BBASD34     070BBAS        ON      NM000R$  000000000014100000000001410000000000141000000000014100000000001410000000000009000000000000000001000000000000000100000000000000014100000000000343802017041700000010000000000000BRBBASACNOR3265
012017021778BBASD35     070BBAS        ON      NM000R$  000000000012100000000001210000000000121000000000012100000000001210000000000112000000000000000001000000000000000500000000000000060500000000000353802017041700000010000000000000BRBBASACNOR3265
012017021778BBASD36     070BBAS        ON      NM000R$  000000000008500000000000950000000000085000000000008600000000000950000000000010000000000000000004000000000000006700000000000000581500000000000363802017041700000010000000000000BRBBASACNOR3265
012017021778BBASD37     070BBAS        ON      NM000R$  000000000006500000000000670000000000050000000000006200000000000500000000000050000000000000000006000000000000001800000000000000112400000000000373802017041700000010000000000000BRBBASACNOR3265
012017021778BBASD4      070BBAS  FM    ON      NM000R$  000000000013000000000001400000000000130000000000013000000000001400000000000000000000000000000002000000000000001100000000000000144000000000000348802017041700000010000000000000BRBBASACNOR3265
012017021778BBASD5      070BBAS  FM    ON      NM000R$  000000000009700000000001060000000000097000000000010100000000001060000000000048000000000013300008000000000000023900000000000002426400000000000358802017041700000010000000000000BRBBASACNOR3265
012017021778BBASD6      070BBAS        ON      NM000R$  000000000007700000000000800000000000069000000000007500000000000800000000000069000000000000000004000000000000000500000000000000037500000000000368802017041700000010000000000000BRBBASACNOR3265
012017021778BBASD63     070BBASE       ON      NM000R$  000000000021400000000002140000000000214000000000021400000000002140000000000000000000000000000001000000000000000900000000000000192600000000000331302017041700000010000000000000BRBBASACNOR3265
012017021778BBASD64     070BBASE       ON      NM000R$  000000000016500000000001650000000000165000000000016500000000001650000000000000000000000000000001000000000000007000000000000001155000000000000341302017041700000010000000000000BRBBASACNOR3265
012017021778BBASD71     070BBASE       ON      NM000R$  000000000028000000000002800000000000280000000000028000000000002800000000000002000000000000000001000000000000002000000000000000560000000000000316302017041700000010000000000000BRBBASACNOR3264
012017021778BBASD87     070BBASE       ON      NM000R$  000000000057500000000005750000000000570000000000057100000000005700000000000000000000000000000002000000000000001500000000000000857500000000000276302017041700000010000000000000BRBBASACNOR3263
012017021778BBASE26     070BBAS        ON      NM000R$  000000000073300000000007330000000000733000000000073300000000007330000000000000000000000000000001000000000000000200000000000000146600000000000263802017051500000010000000000000BRBBASACNOR3265
012017021778BBASE8      070BBAS        ON      NM000R$  000000000149400000000015040000000001494000000000149600000000015040000000000000000000000000000002000000000000003700000000000005536800000000000178802017051500000010000000000000BRBBASACNOR3259
012017021778BBASF69     070BBASE       ON      NM000R$  000000000030700000000003700000000000307000000000032400000000003700000000000000000000000000000005000000000000000600000000000000194800000000000392502018061800000010000000000000BRBBASACNOR3265
012017021778BBASI99     070BBASE       ON      NM000R$  000000000071600000000007160000000000716000000000071600000000007160000000000000000000000000000001000000000000000200000000000000143200000000000288602017091800000010000000000000BRBBASACNOR3262
012017021778BBASL11     070BBASE       ON      NM000R$  000000000060000000000006000000000000600000000000060000000000006000000000000000000000000000000001000000000000001000000000000000600000000000000318602017121800000010000000000000BRBBASACNOR3264
012017021782BBASN1      080BBASE       ON      NM000R$  000000000000200000000000020000000000001000000000000100000000000010000000000000000000000000100004000000000000008000000000000000013000000000000307202017022000000010000000000000BRBBASACNOR3263
012017021782BBASN11     080BBASE       ON      NM000R$  000000000000300000000000040000000000003000000000000300000000000030000000000000000000000000100018000000000000005000000000000000018000000000000309702017022000000010000000000000BRBBASACNOR3263
012017021782BBASN29     080BBASE       ON      NM000R$  000000000000100000000000010000000000001000000000000100000000000010000000000000000000000000100007000000000000089500000000000000089500000000000292202017022000000010000000000000BRBBASACNOR3263
012017021782BBASN3      080BBASE       ON      NM000R$  000000000000100000000000010000000000001000000000000100000000000010000000000000000000000000100003000000000000009800000000000000009800000000000299702017022000000010000000000000BRBBASACNOR3263
012017021782BBASN30     080BBASE       ON      NM000R$  000000000000100000000000010000000000001000000000000100000000000010000000000000000000000000100007000000000000077000000000000000077000000000000302202017022000000010000000000000BRBBASACNOR3263
012017021782BBASN31     080BBASE       ON      NM000R$  000000000000400000000000050000000000001000000000000100000000000010000000000000000000000000000030000000000000114400000000000000151200000000000312202017022000000010000000000000BRBBASACNOR3263
012017021782BBASN32     080BBASE       ON      NM000R$  000000000001700000000000200000000000002000000000000500000000000020000000000000000000000000600023000000000000063200000000000000365200000000000322202017022000000010000000000000BRBBASACNOR3263
012017021782BBASN57     080BBASE       ON      NM000R$  000000000000100000000000010000000000001000000000000100000000000010000000000000000000000000100001000000000000009400000000000000009400000000000277202017022000000010000000000000BRBBASACNOR3263
012017021782BBASN59     080BBASE       ON      NM000R$  000000000000100000000000010000000000001000000000000100000000000010000000000000000000000000900003000000000000006500000000000000006500000000000297202017022000000010000000000000BRBBASACNOR3263
012017021782BBASN61     080BBASE       ON      NM000R$  000000000000200000000000020000000000001000000000000100000000000010000000000000000000000000000002000000000000000400000000000000000600000000000317202017022000000010000000000000BRBBASACNOR3263
012017021782BBASN68     080BBASE       ON      NM000R$  000000000000200000000000020000000000002000000000000200000000000020000000000000000000000000100009000000000000200000000000000000400000000000000279702017022000000010000000000000BRBBASACNOR3263
012017021782BBASN69     080BBASE       ON      NM000R$  000000000000100000000000010000000000001000000000000100000000000010000000000000000000000000000001000000000000009000000000000000009000000000000294702017022000000010000000000000BRBBASACNOR3263
012017021782BBASN83     080BBASE       ON      NM000R$  000000000006600000000000660000000000066000000000006600000000000660000000000000000000000000000001000000000000000500000000000000033000000000000337202017022000000010000000000000BRBBASACNOR3263
012017021782BBASN90     080BBASE       ON      NM000R$  000000000000100000000000010000000000001000000000000100000000000010000000000000000000000000000001000000000000007600000000000000007600000000000304702017022000000010000000000000BRBBASACNOR3263
012017021782BBASO1      080BBASE FM    ON      NM000R$  000000000007400000000000750000000000052000000000006400000000000520000000000045000000000008000019000000000000036000000000000002307300000000000309702017032000000010000000000000BRBBASACNOR3265
012017021782BBASO27     080BBASE       ON      NM000R$  000000000001100000000000130000000000011000000000001200000000000130000000000006000000000001300004000000000000003000000000000000037000000000000272202017032000000010000000000000BRBBASACNOR3264
012017021782BBASO28     080BBASE       ON      NM000R$  000000000001500000000000200000000000015000000000001800000000000150000000000007000000000002100028000000000000030900000000000000566400000000000282202017032000000010000000000000BRBBASACNOR3264
012017021782BBASO29     080BBASE       ON      NM000R$  000000000003100000000000340000000000023000000000002700000000000230000000000015000000000003400011000000000000027600000000000000753900000000000292202017032000000010000000000000BRBBASACNOR3264
012017021782BBASO3      080BBASE       ON      NM000R$  000000000007500000000000750000000000064000000000006500000000000640000000000000000000000000000003000000000000002400000000000000158000000000000314702017032000000010000000000000BRBBASACNOR3265
012017021782BBASO30     080BBASE       ON      NM000R$  000000000005100000000000510000000000038000000000004300000000000380000000000001000000000006200062000000000000072200000000000003114500000000000302202017032000000010000000000000BRBBASACNOR3264
012017021782BBASO31     080BBASE       ON      NM000R$  000000000008000000000000800000000000058000000000006500000000000580000000000054000000000007900021000000000000029300000000000001933400000000000312202017032000000010000000000000BRBBASACNOR3264
012017021782BBASO32     080BBASE       ON      NM000R$  000000000011500000000001230000000000088000000000009600000000000950000000000088000000000009500042000000000000066300000000000006409800000000000322202017032000000010000000000000BRBBASACNOR3264
012017021782BBASO58     080BBASE       ON      NM000R$  000000000002700000000000270000000000027000000000002700000000000270000000000011000000000002700001000000000000005000000000000000135000000000000287202017032000000010000000000000BRBBASACNOR3264
012017021782BBASO59     080BBASE       ON      NM000R$  000000000004000000000000400000000000040000000000004000000000000400000000000000000000000000000001000000000000009200000000000000368000000000000297202017032000000010000000000000BRBBASACNOR3264
012017021782BBASO61     080BBASE       ON      NM000R$  000000000009500000000000970000000000095000000000009500000000000960000000000000000000000000000015000000000000014100000000000001347600000000000317202017032000000010000000000000BRBBASACNOR3264
012017021782BBASO62     080BBASE FM    ON      NM000R$  000000000014300000000001450000000000107000000000012500000000001070000000000000000000000013000028000000000000030400000000000003806600000000000327202017032000000010000000000000BRBBASACNOR3265
012017021782BBASO63     080BBASE       ON      NM000R$  000000000016700000000001670000000000133000000000013300000000001330000000000000000000000000000004000000000000039800000000000005322800000000000332202017032000000010000000000000BRBBASACNOR3265
012017021782BBASO69     080BBASE       ON      NM000R$  000000000003700000000000370000000000037000000000003700000000000370000000000000000000000004900003000000000000001000000000000000037000000000000294702017032000000010000000000000BRBBASACNOR3264
012017021782BBASO70     080BBASE       ON      NM000R$  000000000004900000000000490000000000033000000000003400000000000350000000000000000000000000000019000000000000015300000000000000526600000000000299702017032000000010000000000000BRBBASACNOR3263
012017021782BBASO73     080BBASE FM    ON      NM000R$  000000000019300000000001930000000000155000000000016500000000001560000000000000000000000000000055000000000000056600000000000009362600000000000337202017032000000010000000000000BRBBASACNOR3265
012017021782BBASO80     080BBASE       ON      NM000R$  000000000006000000000000680000000000055000000000006500000000000550000000000040000000000007000004000000000000002900000000000000188500000000000307202017032000000010000000000000BRBBASACNOR3264
012017021782BBASO92     080BBASE FM    ON      NM000R$  000000000011200000000001120000000000082000000000009200000000000820000000000000000000000013800009000000000000008900000000000000821300000000000319702017032000000010000000000000BRBBASACNOR3264
012017021782BBASP10     080BBASE FM    ON      NM000R$  000000000010200000000001020000000000102000000000010200000000001020000000000089000000000028000001000000000000000100000000000000010200000000000308802017041700000010000000000000BRBBASACNOR3265
012017021782BBASP28     080BBASE       ON      NM000R$  000000000004700000000000470000000000036000000000004100000000000360000000000000000000000000000002000000000000000200000000000000008300000000000278802017041700000010000000000000BRBBASACNOR3263
012017021782BBASP30     080BBASE       ON      NM000R$  000000000007500000000000750000000000075000000000007500000000000750000000000000000000000009100001000000000000000800000000000000060000000000000298802017041700000010000000000000BRBBASACNOR3263
012017021782BBASP32     080BBASE FM    ON      NM000R$  000000000016700000000001670000000000167000000000016700000000001670000000000000000000000000000001000000000000000500000000000000083500000000000328802017041700000010000000000000BRBBASACNOR3265
012017021782BBASP33     080BBASE       ON      NM000R$  000000000021300000000002130000000000186000000000018800000000001860000000000000000000000000000023000000000000002300000000000000433700000000000333802017041700000010000000000000BRBBASACNOR3265
012017021782BBASP87     080BBASE       ON      NM000R$  000000000005200000000000520000000000031000000000003900000000000360000000000036000000000003900072000000000000106000000000000004191000000000000276302017041700000010000000000000BRBBASACNOR3263
012017021782BBASP97     080BBASE       ON      NM000R$  000000000007300000000000730000000000073000000000007300000000000730000000000000000000000000000001000000000000000500000000000000036500000000000296302017041700000010000000000000BRBBASACNOR3259
012017021702BBDC3       010BRADESCO    ON      N1   R$  000000000315200000000031980000000003127000000000317200000000031880000000003188000000000318903773000000000000796800000000002527629300000000000000009999123100000010000000000000BRBBDCACNOR1660
012017021796BBDC3F      020BRADESCO    ON      N1   R$  000000000318000000000032120000000003131000000000317000000000032120000000003168000000000325800053000000000000001670000000000005294541000000000000009999123100000010000000000000BRBBDCACNOR1660
012017021702BBDC4       010BRADESCO    PN      N1   R$  000000000327200000000033010000000003239000000000327700000000032910000000003291000000000329215253000000000005235100000000017157996000000000000000009999123100000010000000000000BRBBDCACNPR8660
012017021796BBDC4F      020BRADESCO    PN      N1   R$  000000000327000000000033000000000003243000000000327500000000032970000000003280000000000329700167000000000000004172000000000013666087000000000000009999123100000010000000000000BRBBDCACNPR8660
012017021778BBDCA9      070BBDCE       PN      N1000R$  000000000081000000000008100000000000810000000000081000000000008100000000000000000000000000000001000000000000100000000000000081000000000000000283402018011500000010000000000000BRBBDCACNPR8652
012017021778BBDCB1      070BBDC        PN      N1000R$  000000000017500000000002000000000000160000000000017700000000002000000000000165000000000000000021000000000000040800000000000007249100000000000309602017022000000010000000000000BRBBDCACNPR8653
012017021778BBDCB11     070BBDCE       PN      N1000R$  000000000184800000000018480000000001848000000000184800000000018480000000000000000000000000000001000000000000110000000000000203280000000000000144802017022000000010000000000000BRBBDCACNPR8643
012017021778BBDCB17     070BBDCE       PN      N1000R$  000000000153100000000015310000000001531000000000153100000000015310000000000000000000000000000001000000000000220000000000000336820000000000000176602017022000000010000000000000BRBBDCACNPR8643
012017021778BBDCB2      070BBDCE       PN      N1000R$  000000000010500000000001260000000000090000000000010500000000001260000000000096000000000000000017000000000000029900000000000003160600000000000317102017022000000010000000000000BRBBDCACNPR8651
012017021778BBDCB26     070BBDCE       PN      N1000R$  000000000137100000000013710000000001371000000000137100000000013710000000000000000000000000000001000000000000539400000000000739517400000000000194802017022000000010000000000000BRBBDCACNPR8643
012017021778BBDCB27     070BBDC        PN      N1000R$  000000000089300000000008930000000000893000000000089300000000008930000000000000000000000000000001000000000000000260000000000000232180000000000238002017022000000010000000000000BRBBDCACNPR8645
012017021778BBDCB29     070BBDC        PN      N1000R$  000000000037500000000003750000000000358000000000036300000000003580000000000388000000000000000002000000000000001600000000000000581300000000000289602017022000000010000000000000BRBBDCACNPR8653
012017021778BBDCB3      070BBDC        PN      N1000R$  000000000002000000000000270000000000008000000000001700000000000130000000000011000000000002500258000000000000548000000000000009482200000000000329602017022000000010000000000000BRBBDCACNPR8653
012017021778BBDCB31     070BBDCE       PN      N1000R$  000000000118500000000011850000000001185000000000118500000000011850000000000000000000000000000001000000000000110000000000000130350000000000000208902017022000000010000000000000BRBBDCACNPR8655
012017021778BBDCB43     070BBDC        PN      N1000R$  000000000009800000000001030000000000062000000000007300000000001030000000000000000000000010000244000000000000235600000000000017204400000000000319602017022000000010000000000000BRBBDCACNPR8656
012017021778BBDCB44     070BBDC        PN      N1000R$  000000000046900000000004900000000000468000000000047200000000004900000000000000000000000000000010000000000000010000000000000004728000000000000279602017022000000010000000000000BRBBDCACNPR8657
012017021778BBDCB45     070BBDC        PN      N1000R$  000000000028100000000003070000000000270000000000028500000000002950000000000270000000000000000013000000000000046100000000000013150200000000000299602017022000000010000000000000BRBBDCACNPR8657
012017021778BBDCB49     070BBDC        PN      N1000R$  000000000000200000000000020000000000001000000000000100000000000010000000000000000000000000100003000000000000007800000000000000008800000000000339602017022000000010000000000000BRBBDCACNPR8659
012017021778BBDCB52     070BBDC        PN      N1000R$  000000000069100000000007200000000000691000000000071000000000007180000000000000000000000000000004000000000000003400000000000002416900000000000258002017022000000010000000000000BRBBDCACNPR8657
012017021778BBDCB57     070BBDC        PN      N1000R$  000000000000100000000000010000000000001000000000000100000000000010000000000000000000000000100002000000000000000400000000000000000400000000000349602017022000000010000000000000BRBBDCACNPR8659
012017021778BBDCB61     070BBDCE       PN      N1000R$  000000000055600000000005560000000000556000000000055600000000005560000000000000000000000000000001000000000000000400000000000000222400000000000272102017022000000010000000000000BRBBDCACNPR8645
012017021778BBDCB68     070BBDC        PN      N1000R$  000000000176000000000017600000000001760000000000176000000000017600000000000000000000000000000002000000000000000550000000000000968000000000000151602017022000000010000000000000BRBBDCACNPR8643
012017021778BBDCC20     070BBDC  FM    PN      N1000R$  000000000003600000000000360000000000029000000000003100000000000320000000000032000000000003400047000000000000052100000000000001621900000000000346602017032000000010000000000000BRBBDCACNPR8659
012017021778BBDCC21     070BBDC        PN      N1000R$  000000000021800000000002220000000000218000000000021900000000002220000000000000000000000000000008000000000000015300000000000003362100000000000311602017032000000010000000000000BRBBDCACNPR8657
012017021778BBDCC22     070BBDCE       PN      N1000R$  000000000033500000000003400000000000333000000000033800000000003400000000000000000000000000000004000000000000002900000000000000981800000000000296802017032000000010000000000000BRBBDCACNPR8659
012017021778BBDCC23     070BBDC  FM    PN      N1000R$  000000000009500000000000950000000000068000000000007600000000000900000000000088000000000016500253000000000000261500000000000020009100000000000331602017032000000010000000000000BRBBDCACNPR8657
012017021778BBDCC32     070BBDC        PN      N1000R$  000000000013400000000001530000000000122000000000013200000000001490000000000120000000000026000036000000000000046400000000000006161800000000000321602017032000000010000000000000BRBBDCACNPR8657
012017021778BBDCC41     070BBDC  FM    PN      N1000R$  000000000016500000000001850000000000152000000000016300000000001850000000000180000000000000000028000000000000058200000000000009516700000000000316602017032000000010000000000000BRBBDCACNPR8659
012017021778BBDCC42     070BBDCE       PN      N1000R$  000000000003000000000000300000000000022000000000002900000000000250000000000019000000000003000013000000000000106700000000000003151600000000000349102017032000000010000000000000BRBBDCACNPR8659
012017021778BBDCC43     070BBDCE       PN      N1000R$  000000000005600000000000570000000000056000000000005600000000000570000000000000000000000000000002000000000000001100000000000000061700000000000339102017032000000010000000000000BRBBDCACNPR8659
012017021778BBDCC44     070BBDC        PN      N1000R$  000000000005100000000000530000000000041000000000004500000000000450000000000000000000000004700062000000000000073100000000000003332500000000000341602017032000000010000000000000BRBBDCACNPR8657
012017021778BBDCC45     070BBDC        PN      N1000R$  000000000001100000000000130000000000008000000000000900000000000110000000000000000000000003400007000000000000012600000000000000123300000000000361602017032000000010000000000000BRBBDCACNPR8660
012017021778BBDCC47     070BBDC  FM    PN      N1000R$  000000000005900000000000680000000000058000000000006200000000000640000000000049000000000010000036000000000000118500000000000007444300000000000336602017032000000010000000000000BRBBDCACNPR8659
012017021778BBDCC48     070BBDC        PN      N1000R$  000000000002500000000000250000000000018000000000002300000000000210000000000015000000000004900006000000000000007000000000000000161500000000000351602017032000000010000000000000BRBBDCACNPR8659
012017021778BBDCC53     070BBDCE       PN      N1000R$  000000000007300000000000770000000000062000000000006800000000000770000000000000000000000000000026000000000000067700000000000004610100000000000334102017032000000010000000000000BRBBDCACNPR8656
012017021778BBDCC60     070BBDC        PN      N1000R$  000000000029900000000002990000000000299000000000029900000000002990000000000299000000000000000004000000000000021600000000000006458400000000000299302017032000000010000000000000BRBBDCACNPR8657
012017021778BBDCC7      070BBDC        PN      N1000R$  000000000040300000000004080000000000403000000000040500000000004080000000000000000000000000000010000000000000009300000000000003767200000000000289302017032000000010000000000000BRBBDCACNPR8656
012017021778BBDCC74     070BBDCE       PN      N1000R$  000000000027100000000002710000000000260000000000027000000000002600000000000000000000000000000002000000000000009200000000000002489900000000000304102017032000000010000000000000BRBBDCACNPR8646
012017021778BBDCC77     070BBDCE       PN      N1000R$  000000000178500000000017850000000001785000000000178500000000017850000000000000000000000000000001000000000000000500000000000000892500000000000149502017032000000010000000000000BRBBDCACNPR8643
012017021778BBDCC8      070BBDC  FM    PN      N1000R$  000000000025400000000002710000000000228000000000025400000000002660000000000000000000000000000167000000000000149400000000000037951800000000000306602017032000000010000000000000BRBBDCACNPR8656
012017021778BBDCC91     070BBDCE       PN      N1000R$  000000000088500000000008850000000000885000000000088500000000008850000000000000000000000000000001000000000000000260000000000000230100000000000240402017032000000010000000000000BRBBDCACNPR8644
012017021778BBDCD13     070BBDCE       PN      N1000R$  000000000066600000000006660000000000666000000000066600000000006660000000000000000000000000000001000000000000000400000000000000266400000000000264702017041700000010000000000000BRBBDCACNPR8659
012017021778BBDCD2      070BBDC  FM    PN      N1000R$  000000000015900000000001590000000000157000000000015800000000001570000000000000000000000022100003000000000000002900000000000000459300000000000326302017041700000010000000000000BRBBDCACNPR8656
012017021778BBDCD4      070BBDC  FM    PN      N1000R$  000000000007400000000000740000000000074000000000007400000000000740000000000069000000000014800001000000000000000100000000000000007400000000000346302017041700000010000000000000BRBBDCACNPR8659
012017021778BBDCD5      070BBDC        PN      N1000R$  000000000006900000000000690000000000069000000000006900000000000690000000000000000000000000000001000000000000007500000000000000517500000000000351302017041700000010000000000000BRBBDCACNPR8659
012017021778BBDCD55     070BBDC        PN      N1000R$  000000000073700000000007370000000000737000000000073700000000007370000000000000000000000000000001000000000000000500000000000000368500000000000257202017041700000010000000000000BRBBDCACNPR8659
012017021778BBDCD85     070BBDC  FM    PN      N1000R$  000000000004700000000000470000000000047000000000004700000000000470000000000041000000000000000001000000000000000100000000000000004700000000000356302017041700000010000000000000BRBBDCACNPR8659
012017021778BBDCE41     070BBDCE       PN      N1000R$  000000000056600000000005660000000000566000000000056600000000005660000000000000000000000000000001000000000000000400000000000000226400000000000277202017051500000010000000000000BRBBDCACNPR8645
012017021778BBDCF51     070BBDC        PN      N1000R$  000000000117500000000011750000000001175000000000117500000000011750000000000000000000000000000002000000000000110000000000000129250000000000000216502017061900000010000000000000BRBBDCACNPR8660
012017021778BBDCH70     070BBDCE       PN      N1000R$  000000000137500000000013750000000001350000000000137400000000013500000000000000000000000000000003000000000000539600000000000741947500000000000201202017082100000010000000000000BRBBDCACNPR8660
012017021782BBDCN1      080BBDCE       PN      N1000R$  000000000000100000000000010000000000001000000000000100000000000010000000000000000000000000100002000000000000020000000000000000020000000000000309602017022000000010000000000000BRBBDCACNPR8653
012017021782BBDCN3      080BBDCE       PN      N1000R$  000000000003600000000000510000000000020000000000003500000000000200000000000003000000000000000015000000000000022900000000000000810900000000000329602017022000000010000000000000BRBBDCACNPR8653
012017021782BBDCN36     080BBDCE       PN      N1000R$  000000000023600000000002380000000000235000000000023600000000002380000000000000000000000000000011000000000000019900000000000004703700000000000352102017022000000010000000000000BRBBDCACNPR8655
012017021782BBDCN43     080BBDCE       PN      N1000R$  000000000001000000000000100000000000001000000000000900000000000010000000000000000000000000800004000000000000073600000000000000667000000000000319602017022000000010000000000000BRBBDCACNPR8656
012017021782BBDCN49     080BBDCE       PN      N1000R$  000000000011000000000001100000000000110000000000011000000000001100000000000000000000000000000001000000000000005000000000000000550000000000000339602017022000000010000000000000BRBBDCACNPR8659
012017021782BBDCO21     080BBDCE       PN      N1000R$  000000000003100000000000340000000000025000000000002800000000000250000000000021000000000006800007000000000000015900000000000000452200000000000311602017032000000010000000000000BRBBDCACNPR8657
012017021782BBDCO22     080BBDCE       PN      N1000R$  000000000001300000000000140000000000013000000000001300000000000140000000000000000000000001400014000000000000017300000000000000232200000000000296802017032000000010000000000000BRBBDCACNPR8659
012017021782BBDCO23     080BBDCE FM    PN      N1000R$  000000000010200000000001020000000000089000000000009700000000000890000000000000000000000014900004000000000000004100000000000000400400000000000331602017032000000010000000000000BRBBDCACNPR8657
012017021782BBDCO32     080BBDCE       PN      N1000R$  000000000006100000000000630000000000054000000000006100000000000550000000000000000000000011000006000000000000019500000000000001197000000000000321602017032000000010000000000000BRBBDCACNPR8657
012017021782BBDCO41     080BBDCE FM    PN      N1000R$  000000000003300000000000350000000000033000000000003300000000000350000000000000000000000005000002000000000000001000000000000000033400000000000316602017032000000010000000000000BRBBDCACNPR8659
012017021782BBDCO43     080BBDCE       PN      N1000R$  000000000013800000000001380000000000138000000000013800000000001380000000000000000000000000000001000000000000001000000000000000138000000000000339102017032000000010000000000000BRBBDCACNPR8659
012017021782BBDCO51     080BBDCE       PN      N1000R$  000000000003600000000000390000000000036000000000003700000000000390000000000000000000000014500005000000000000022200000000000000835200000000000314102017032000000010000000000000BRBBDCACNPR8656
012017021782BBDCO74     080BBDCE       PN      N1000R$  000000000001900000000000200000000000019000000000001900000000000200000000000000000000000000000005000000000000010500000000000000204500000000000304102017032000000010000000000000BRBBDCACNPR8646
012017021782BBDCP29     080BBDCE FM    PN      N1000R$  000000000005300000000000530000000000053000000000005300000000000530000000000000000000000000000001000000000000000100000000000000005300000000000308802017041700000010000000000000BRBBDCACNPR8645
012017021782BBDCP52     080BBDCE FM    PN      N1000R$  000000000008100000000000820000000000081000000000008100000000000820000000000000000000000020000002000000000000002000000000000000163000000000000318802017041700000010000000000000BRBBDCACNPR8653
012017021782BBDCP86     080BBDCE       PN      N1000R$  000000000029500000000002960000000000288000000000029100000000002880000000000000000000000000000007000000000000021000000000000006124900000000000358802017041700000010000000000000BRBBDCACNPR8655
012017021782BBDCX36     080BBDCE       PN      N1000R$  000000000040600000000004060000000000355000000000038000000000003550000000000302000000000045000002000000000000000200000000000000076100000000000356802017121800000010000000000000BRBBDCACNPR8652
012017021712BBFI11B     010FII BB PROGRCI      MB   R$  000000025310000000002569990000000253000000000025416800000002550000000000253200000000025500000017000000000000000078000000000019825105000000000000009999123100000010000000000000BRBBFICTF006239
012017021712BBPO11      010FII BB PRGIICI           R$  000000001332300000000133500000000013268000000001331200000000132860000000013286000000001335000148000000000000009938000000000132302754000000000000009999123100000010000000000000BRBBPOCTF003151
012017021712BBRC11      010FII BB CORP CI           R$  000000001240200000000125100000000012400000000001245800000000124000000000012250000000001240000025000000000000000539000000000006715045000000000000009999123100000010000000000000BRBBRCCTF004165
012017021702BBRK3       010BR BROKERS  ON      NM   R$  000000000017700000000001770000000000175000000000017500000000001760000000000176000000000017700277000000000000108000000000000018992500000000000000009999123100000010000000000000BRBBRKACNOR4110
012017021796BBRK3F      020BR BROKERS  ON      NM   R$  000000000017800000000001780000000000178000000000017800000000001780000000000167000000000017800002000000000000000074000000000000013172000000000000009999123100000010000000000000BRBBRKACNOR4110
012017021714BBSD11      010BB ETF SP DVCI           R$  000000000485000000000049060000000004850000000000486900000000049060000000000000000000000000000007000000000000000150000000000000730360000000000000009999123100000010000000000000BRBBSDCTF000100
012017021702BBSE3       010BBSEGURIDADEON  EDR NM   R$  000000000286200000000028860000000002832000000000286000000000028740000000002868000000000287409904000000000004232400000000012107028600000000000000009999123100000010000000000000BRBBSEACNOR5108
012017021796BBSE3F      020BBSEGURIDADEON  EDR NM   R$  000000000286900000000028800000000002832000000000285700000000028650000000002850000000000286500127000000000000003708000000000010594058000000000000009999123100000010000000000000BRBBSEACNOR5108
012017021762BBSE3T      030BBSEGURIDADEON  EDR NM034R$  000000000288900000000028900000000002889000000000288900000000028900000000000000000000000000000002000000000000001200000000000003467735000000000000009999123100000010000000000000BRBBSEACNOR5108
012017021762BBSE3T      030BBSEGURIDADEON  EDR NM060R$  000000000289800000000029200000000002898000000000291400000000029180000000000000000000000000000014000000000001300000000000003788388667000000000000009999123100000010000000000000BRBBSEACNOR5108
012017021778BBSEB27     070BBSE    /EDRON      NM000R$  000000000023000000000002300000000000230000000000023000000000002300000000000000000000000000000001000000000000002000000000000000460000000000000264902017022000000010000000000000BRBBSEACNOR5107
012017021778BBSEB28     070BBSE    /EDRON      NM000R$  000000000010300000000001030000000000103000000000010300000000001030000000000000000000000000000001000000000000001000000000000000103000000000000274902017022000000010000000000000BRBBSEACNOR5107
012017021778BBSEB29     070BBSE    /EDRON      NM000R$  000000000001500000000000250000000000015000000000002000000000000240000000000004000000000005000008000000000000021000000000000000432400000000000284902017022000000010000000000000BRBBSEACNOR5107
012017021778BBSEB30     070BBSE    /EDRON      NM000R$  000000000000200000000000020000000000002000000000000200000000000020000000000000000000000000100002000000000000002200000000000000004400000000000294902017022000000010000000000000BRBBSEACNOR5107
012017021778BBSEB57     070BBSE    /EDRON      NM000R$  000000000016000000000001600000000000155000000000015600000000001600000000000000000000000000000008000000000000021500000000000003375000000000000269902017022000000010000000000000BRBBSEACNOR5107
012017021778BBSEB59     070BBSE    /EDRON      NM000R$  000000000000500000000000050000000000005000000000000500000000000050000000000000000000000000000001000000000000000500000000000000002500000000000289902017022000000010000000000000BRBBSEACNOR5107
012017021778BBSEB88     070BBSEE   /EDRON      NM000R$  000000000009000000000000950000000000090000000000009200000000000950000000000000000000000000000002000000000000012000000000000001113000000000000277402017022000000010000000000000BRBBSEACNOR5107
012017021778BBSEB99     070BBSEE   /EDRON      NM000R$  000000000018300000000001830000000000183000000000018300000000001830000000000000000000000000000001000000000000009800000000000001793400000000000267402017022000000010000000000000BRBBSEACNOR5105
012017021778BBSEC3      070BBSE  FM/EDRON      NM000R$  000000000004600000000000460000000000046000000000004600000000000460000000000000000000000010000001000000000000000500000000000000023000000000000299902017032000000010000000000000BRBBSEACNOR5107
012017021778BBSEC30     070BBSE    /EDRON      NM000R$  000000000006200000000000620000000000056000000000005600000000000560000000000040000000000007300007000000000000012300000000000000700400000000000294902017032000000010000000000000BRBBSEACNOR5107
012017021778BBSEC31     070BBSE    /EDRON      NM000R$  000000000003900000000000390000000000039000000000003900000000000390000000000000000000000003900001000000000000000600000000000000023400000000000304902017032000000010000000000000BRBBSEACNOR5107
012017021778BBSEC58     070BBSE  FM/EDRON      NM000R$  000000000013000000000001300000000000130000000000013000000000001300000000000000000000000000000007000000000000013000000000000001690000000000000279902017032000000010000000000000BRBBSEACNOR5107
012017021778BBSEC59     070BBSE  FM/EDRON      NM000R$  000000000008800000000000880000000000088000000000008800000000000880000000000016000000000012700003000000000000004400000000000000387200000000000289902017032000000010000000000000BRBBSEACNOR5107
012017021778BBSEC67     070BBSE  FM/EDRON      NM000R$  000000000021300000000002130000000000213000000000021300000000002130000000000000000000000000000001000000000000001000000000000000213000000000000269902017032000000010000000000000BRBBSEACNOR5107
012017021778BBSEC9      070BBSE    /EDRON      NM000R$  000000000009900000000001090000000000099000000000010500000000001080000000000051000000000000000006000000000000014700000000000001549000000000000284902017032000000010000000000000BRBBSEACNOR5107
012017021778BBSEC92     070BBSEE   /EDRON      NM000R$  000000000023000000000002300000000000230000000000023000000000002300000000000000000000000000000001000000000000002000000000000000460000000000000267402017032000000010000000000000BRBBSEACNOR5105
012017021778BBSEC94     070BBSEE   /EDRON      NM000R$  000000000011800000000001180000000000117000000000011700000000001170000000000000000000000000000003000000000000012000000000000001413300000000000282402017032000000010000000000000BRBBSEACNOR5106
012017021778BBSEC98     070BBSEE   /EDRON      NM000R$  000000000007600000000000760000000000065000000000006800000000000650000000000000000000000000000003000000000000005600000000000000381500000000000292402017032000000010000000000000BRBBSEACNOR5106
012017021778BBSED30     070BBSE    /EDRON      NM000R$  000000000010400000000001040000000000104000000000010400000000001040000000000000000000000000000001000000000000000200000000000000020800000000000293202017041700000010000000000000BRBBSEACNOR5107
012017021778BBSED60     070BBSE  FM/EDRON      NM000R$  000000000008600000000000860000000000086000000000008600000000000860000000000000000000000000000001000000000000000200000000000000017200000000000298202017041700000010000000000000BRBBSEACNOR5107
012017021782BBSEN17     080BBSEE   /EDRON      NM000R$  000000000000100000000000010000000000001000000000000100000000000010000000000000000000000000000001000000000000009800000000000000009800000000000144902017022000000010000000000000BRBBSEACNOR5105
012017021782BBSEN52     080BBSEE   /EDRON      NM000R$  000000000000100000000000010000000000001000000000000100000000000010000000000000000000000000000001000000000000009800000000000000009800000000000194902017022000000010000000000000BRBBSEACNOR5105
012017021782BBSEO59     080BBSEE FM/EDRON      NM000R$  000000000009500000000000950000000000095000000000009500000000000950000000000000000000000000000005000000000000010500000000000000997500000000000289902017032000000010000000000000BRBBSEACNOR5107
012017021702BBTG11      010BTG PACTUAL UNT          R$  000000000181700000000018680000000001817000000000184100000000018400000000001840000000000185501264000000000000674500000000001242160300000000000000009999123100000010000000000000BRBBTGUNT007116
012017021796BBTG11F     020BTG PACTUAL UNT          R$  000000000183000000000018610000000001824000000000184300000000018610000000001700000000000186100044000000000000001109000000000002044895000000000000009999123100000010000000000000BRBBTGUNT007116
012017021702BBTG12      010BTG PACTUAL UNT          R$  000000000007500000000000940000000000065000000000008300000000000850000000000084000000000008901038000000000006186100000000000518312300000000000000009999123100000010000000000000BRBBTGUNT015100
012017021796BBTG12F     020BTG PACTUAL UNT          R$  000000000005000000000000900000000000050000000000007700000000000800000000000080000000000000000009000000000000000292000000000000022565000000000000009999123100000010000000000000BRBBTGUNT015100
012017021712BBVJ11      010FII C JARDIMCI           R$  000000000562000000000056200000000005600000000000560100000000056000000000005565000000000560000014000000000000001030000000000005769663000000000000009999123100000010000000000000BRBBVJCTF001174
012017021712BCFF11B     010FII BC FFII CI  ER  MB   R$  000000000720000000000072260000000007126000000000720600000000072260000000007200000000000722600085000000000000009554000000000068852429000000000000009999123100000010000000000000BRBCFFCTF000183
012017021712BCRI11      010FII BEES CRICI           R$  000000001150000000000115000000000011486000000001149600000000115000000000011490000000001150000053000000000000002349000000000027006060000000000000009999123100000010000000000000BRBCRICTF009120
012017021702BEEF3       010MINERVA     ON      NM   R$  000000000119600000000012000000000001176000000000118900000000011900000000001189000000000119001935000000000000525300000000000624641800000000000000009999123100000010000000000000BRBEEFACNOR6106
012017021796BEEF3F      020MINERVA     ON      NM   R$  000000000120000000000012000000000001177000000000118600000000011980000000001176000000000119800008000000000000000224000000000000265693000000000000009999123100000010000000000000BRBEEFACNOR6106
012017021702BEES3       010BANESTES    ON           R$  000000000033700000000003370000000000325000000000033000000000003260000000000326000000000033000063000000000000053800000000000017761500000000000000009999123100000010000000000000BRBEESACNOR9291
012017021796BEES3F      020BANESTES    ON           R$  000000000033000000000003300000000000330000000000033000000000003300000000000328000000000038600002000000000000000040000000000000013200000000000000009999123100000010000000000000BRBEESACNOR9291
012017021702BEES4       010BANESTES    PN           R$  000000000039400000000003940000000000360000000000036200000000003600000000000378000000000037900005000000000000002300000000000000833900000000000000009999123100000010000000000000BRBEESACNPR6216
012017021796BEES4F      020BANESTES    PN           R$  000000000039400000000003940000000000360000000000037700000000003600000000000352000000000050000005000000000000000155000000000000058520000000000000009999123100000010000000000000BRBEESACNPR6216
012017021702BGIP4       010BANESE      PN           R$  000000000188700000000020670000000001887000000000196000000000019000000000001800000000000199700011000000000000002000000000000003920300000000000000009999123100000010000000000000BRBGIPACNPR8187
012017021702BIOM3       010BIOMM       ON      MA   R$  000000000065000000000006500000000000650000000000065000000000006500000000000650000000000069000002000000000000001300000000000000845000000000000000009999123100000010000000000000BRBIOMACNOR2104
012017021702BMEB3       010MERC BRASIL ON           R$  000000000060000000000006000000000000600000000000060000000000006000000000000600000000000063500002000000000000000500000000000000300000000000000000009999123100000010000000000000BRBMEBACNOR8193
012017021702BMEB4       010MERC BRASIL PN           R$  000000000050000000000005000000000000485000000000049100000000005000000000000487000000000050800037000000000000012100000000000005947000000000000000009999123100000010000000000000BRBMEBACNPR5196
012017021702BMIN3       010MERC INVEST ON           R$  000000000006900000000000750000000000069000000000007000000000000750000000000073000000000007500005000000000000010000000000000000708000000000000000009999123100000010000000000000BRBMINACNOR4164
012017021702BMIN4       010MERC INVEST PN           R$  000000000005400000000000540000000000051000000000005200000000000520000000000052000000000005300090000000000000483000000000000025189000000000000000009999123100000010000000000000BRBMINACNPR1165
012017021796BMIN4F      020MERC INVEST PN           R$  000000000005800000000000580000000000052000000000005300000000000530000000000051000000000005200023000000000000004466000000000000237789000000000000009999123100000010000000000000BRBMINACNPR1165
012017021712BMLC11B     010FII BMBRC LCCI  ER  MB   R$  000000000861000000000086100000000008585000000000860100000000085850000000008585000000000862000006000000000000000162000000000001393390000000000000009999123100000010000000000000BRBMLCCTF004160
012017021702BNBR3       010NORD BRASIL ON           R$  000000000270200000000027020000000002702000000000270200000000027020000000002550000000000275000001000000000000000100000000000000270200000000000000009999123100000010000000000000BRBNBRACNOR8193
012017021702BOAC34      010BANK AMERICADRN          R$  000000000755200000000075520000000007552000000000755200000000075520000000000000000000000000000001000000000000000100000000000000755200000000000000009999123100000010000000000000BRBOACBDR004125
012017021702BOBR4       010BOMBRIL     PN           R$  000000000022600000000002260000000000224000000000022400000000002240000000000223000000000022500013000000000000006100000000000001371700000000000000009999123100000010000000000000BRBOBRACNPR3128
012017021714BOVA11      010ISHARES BOVACI  ATZ      R$  000000000652900000000065650000000006500000000000653300000000065420000000006542000000000655406385000000000002327640000000015207178960000000000000009999123100000010000000000000BRBOVACTF003103
012017021796BOVA11F     020ISHARES BOVACI  ATZ      R$  000000000651000000000065560000000006510000000000654000000000065500000000005802000000000675000008000000000000000031000000000000202751000000000000009999123100000010000000000000BRBOVACTF003103
012017021778BOVAB29     070BOVAE   /ATZCI        000R$  000000000013800000000001380000000000138000000000013800000000001380000000000000000000000000000001000000000000003800000000000000524400000000000795002018021900000010000000000000BRBOVACTF003103
012017021778BOVAB37     070BOVA    /ATZCI        000R$  000000000015900000000001590000000000159000000000015900000000001590000000000000000000000000000001000000000000007600000000000001208400000000000770002018021900000010000000000000BRBOVACTF003102
012017021778BOVAB57     070BOVA    /ATZCI        000R$  000000000081600000000008160000000000816000000000081600000000008160000000000000000000000000000001000000000000003000000000000002448000000000000570002017022000000010000000000000BRBOVACTF003102
012017021778BOVAB6      070BOVA    /ATZCI        000R$  000000000041300000000004130000000000413000000000041300000000004130000000000000000000000000000001000000000000002500000000000001032500000000000610002017022000000010000000000000BRBOVACTF003102
012017021778BOVAB60     070BOVA    /ATZCI        000R$  000000000055500000000005550000000000555000000000055500000000005550000000000000000000000000000002000000000000007000000000000003885000000000000600002017022000000010000000000000BRBOVACTF003102
012017021778BOVAB62     070BOVA    /ATZCI        000R$  000000000031000000000003370000000000310000000000033500000000003370000000000350000000000000000003000000000000006200000000000002078600000000000620002017022000000010000000000000BRBOVACTF003102
012017021778BOVAB63     070BOVA    /ATZCI        000R$  000000000025700000000002570000000000250000000000025600000000002500000000000000000000000000000002000000000000001030000000000000264500000000000630002017022000000010000000000000BRBOVACTF003102
012017021778BOVAB64     070BOVA    /ATZCI        000R$  000000000013600000000001570000000000119000000000012900000000001570000000000000000000000000000005000000000000005160000000000000669560000000000640002017022000000010000000000000BRBOVACTF003102
012017021738BOVAB64E    012BOVA    /ATZCI        000R$  000000000640000000000064000000000006400000000000640000000000064000000000000000000000000000000001000000000000001000000000000006400000000000000640002017022000000010000000000000BRBOVACTF003103
012017021778BOVAB65     070BOVA    /ATZCI        000R$  000000000003500000000000690000000000028000000000004200000000000690000000000063000000000000000010000000000001519940000000000064049760000000000650002017022000000010000000000000BRBOVACTF003102
012017021778BOVAB67     070BOVA    /ATZCI        000R$  000000000000100000000000010000000000001000000000000100000000000010000000000000000000000000000001000000000000002500000000000000002500000000000670002017022000000010000000000000BRBOVACTF003102
012017021778BOVAB80     070BOVA    /ATZCI        000R$  000000000013300000000001330000000000133000000000013300000000001330000000000000000000000000000001000000000000007600000000000001010800000000000800002018021900000010000000000000BRBOVACTF003103
012017021778BOVAC59     070BOVA    /ATZCI        000R$  000000000065700000000006570000000000657000000000065700000000006570000000000000000000000000000001000000000000003000000000000001971000000000000590002017032000000010000000000000BRBOVACTF003102
012017021778BOVAC63     070BOVA    /ATZCI        000R$  000000000031400000000003330000000000314000000000032400000000003330000000000155000000000000000006000000000000013200000000000004277800000000000630002017032000000010000000000000BRBOVACTF003102
012017021778BOVAC64     070BOVA  FM    CI        000R$  000000000025300000000002610000000000229000000000024400000000002610000000000000000000000000000011000000000000019830000000000004852560000000000640002017032000000010000000000000BRBOVACTF003102
012017021778BOVAC65     070BOVA  FM    CI        000R$  000000000018600000000001940000000000179000000000018500000000001940000000000000000000000000000007000000000000008200000000000001523800000000000650002017032000000010000000000000BRBOVACTF003102
012017021778BOVAC66     070BOVA  FM    CI        000R$  000000000012900000000001320000000000119000000000012500000000001320000000000000000000000000000009000000000000017500000000000002200000000000000660002017032000000010000000000000BRBOVACTF003102
012017021778BOVAC67     070BOVA  FM    CI        000R$  000000000008500000000000900000000000076000000000007900000000000900000000000028000000000000000004000000000000011000000000000000872500000000000670002017032000000010000000000000BRBOVACTF003102
012017021778BOVAC68     070BOVA  FM    CI        000R$  000000000005100000000000570000000000051000000000005400000000000570000000000000000000000000000002000000000000005000000000000000270000000000000680002017032000000010000000000000BRBOVACTF003102
012017021778BOVAD64     070BOVA  FM    CI        000R$  000000000034400000000003630000000000327000000000034600000000003600000000000000000000000000000009000000000000022500000000000007785000000000000640002017041700000010000000000000BRBOVACTF003102
012017021778BOVAD65     070BOVA  FM    CI        000R$  000000000027900000000002930000000000263000000000027700000000002930000000000000000000000000000008000000000000019200000000000005334400000000000650002017041700000010000000000000BRBOVACTF003102
012017021778BOVAD66     070BOVA  FM    CI        000R$  000000000022100000000002310000000000208000000000021900000000002310000000000000000000000000000005000000000000012500000000000002740000000000000660002017041700000010000000000000BRBOVACTF003102
012017021778BOVAD67     070BOVA  FM    CI        000R$  000000000017900000000001790000000000179000000000017900000000001790000000000000000000000000000001000000000000002500000000000000447500000000000670002017041700000010000000000000BRBOVACTF003102
012017021782BOVAN1      080BOVAE   /ATZCI        000R$  000000000008000000000000800000000000080000000000008000000000000800000000000000000000000000000001000000000000003800000000000000304000000000000580002018021900000010000000000000BRBOVACTF003103
012017021782BOVAN24     080BOVAE   /ATZCI        000R$  000000000021500000000002150000000000215000000000021500000000002150000000000000000000000000000001000000000000003800000000000000817000000000000645002018021900000010000000000000BRBOVACTF003103
012017021782BOVAN5      080BOVAE   /ATZCI        000R$  000000000022000000000002200000000000220000000000022000000000002200000000000000000000000000000001000000000000007600000000000001672000000000000655002018021900000010000000000000BRBOVACTF003103
012017021782BOVAN65     080BOVAE   /ATZCI        000R$  000000000002200000000000220000000000022000000000002200000000000220000000000000000000000000000001000000000000001000000000000000022000000000000650002017022000000010000000000000BRBOVACTF003102
012017021782BOVAN99     080BOVAE   /ATZCI        000R$  000000000009000000000001560000000000090000000000012300000000001560000000000000000000000000000003000000000000015300000000000001882800000000000590002018021900000010000000000000BRBOVACTF003103
012017021782BOVAO63     080BOVAE FM    CI        000R$  000000000004500000000000460000000000045000000000004500000000000460000000000000000000000000000002000000000000003800000000000000172300000000000630002017032000000010000000000000BRBOVACTF003102
012017021782BOVAO64     080BOVAE FM    CI        000R$  000000000006000000000000710000000000060000000000006500000000000680000000000000000000000007900004000000000000007050000000000000464550000000000640002017032000000010000000000000BRBOVACTF003102
012017021782BOVAO65     080BOVAE FM    CI        000R$  000000000009200000000001100000000000089000000000009900000000000890000000000085000000000000000008000000000000012600000000000001249700000000000650002017032000000010000000000000BRBOVACTF003102
012017021782BOVAO66     080BOVAE FM    CI        000R$  000000000013600000000001520000000000136000000000014000000000001520000000000085000000000000000004000000000000010000000000000001407500000000000660002017032000000010000000000000BRBOVACTF003102
012017021782BOVAP62     080BOVAE   /ATZCI        000R$  000000000006600000000000660000000000066000000000006600000000000660000000000031000000000000000001000000000000003000000000000000198000000000000620002017041700000010000000000000BRBOVACTF003102
012017021782BOVAP63     080BOVAE FM    CI        000R$  000000000008700000000000870000000000087000000000008700000000000870000000000000000000000000000001000000000000002500000000000000217500000000000630002017041700000010000000000000BRBOVACTF003102
012017021782BOVAP64     080BOVAE FM    CI        000R$  000000000010800000000001170000000000108000000000011300000000001170000000000046000000000000000003000000000000007500000000000000850000000000000640002017041700000010000000000000BRBOVACTF003102
012017021782BOVAP65     080BOVAE FM    CI        000R$  000000000013900000000001510000000000139000000000014600000000001510000000000000000000000000000003000000000000007500000000000001100000000000000650002017041700000010000000000000BRBOVACTF003102
012017021782BOVAP66     080BOVAE FM    CI        000R$  000000000019100000000001910000000000173000000000017600000000001730000000000000000000000000000003000000000000013000000000000002294000000000000660002017041700000010000000000000BRBOVACTF003102
012017021714BOVV11      010IT NOW IBOV CI           R$  000000000675900000000067760000000006729000000000677200000000067760000000006776000000000750000059000000000000076320000000000516850260000000000000009999123100000010000000000000BRBOVVCTF009100
012017021702BPAC11      010BTGP BANCO  UNT          R$  000000000180000000000018000000000001800000000000180000000000018000000000001760000000000180000003000000000000005000000000000009000000000000000000009999123100000010000000000000BRBPACUNT006100
012017021702BPAN4       010BANCO PAN   PN      N1   R$  000000000026400000000002690000000000255000000000026400000000002650000000000264000000000026500232000000000000383400000000000101270300000000000000009999123100000010000000000000BRBPANACNPR1104
012017021796BPAN4F      020BANCO PAN   PN      N1   R$  000000000026200000000002630000000000260000000000026100000000002620000000000262000000000026700037000000000000000263000000000000068719000000000000009999123100000010000000000000BRBPANACNPR1104
012017021712BPFF11      010FII ABSOLUTOCI           R$  000000000919600000000091990000000009051000000000917800000000091990000000009171000000000919900041000000000000001311000000000012033524000000000000009999123100000010000000000000BRBPFFCTF002146
012017021702BPHA3       010BR PHARMA   ON      NM   R$  000000000082800000000008580000000000772000000000080800000000007750000000000774000000000077501222000000000000769400000000000622080800000000000000009999123100000010000000000000BRBPHAACNOR6104
012017021796BPHA3F      020BR PHARMA   ON      NM   R$  000000000081500000000008400000000000775000000000080900000000007900000000000770000000000079500021000000000000000481000000000000389136000000000000009999123100000010000000000000BRBPHAACNOR6104
012017021762BPHA3T      030BR PHARMA   ON      NM017R$  000000000078800000000007890000000000788000000000078800000000007890000000000000000000000000000002000000000000015000000000000011822328000000000000009999123100000010000000000000BRBPHAACNOR6104
012017021762BPHA3T      030BR PHARMA   ON      NM060R$  000000000085000000000008510000000000850000000000085000000000008510000000000000000000000000000002000000000000002000000000000001701238000000000000009999123100000010000000000000BRBPHAACNOR6104
012017021702BRAP3       010BRADESPAR   ON      N1   R$  000000000184000000000018540000000001840000000000184800000000018480000000001834000000000184900019000000000000009600000000000017744500000000000000009999123100000010000000000000BRBRAPACNOR5130
012017021796BRAP3F      020BRADESPAR   ON      N1   R$  000000000185000000000018540000000001850000000000185100000000018500000000001811000000000185400006000000000000000035000000000000064810000000000000009999123100000010000000000000BRBRAPACNOR5130
012017021702BRAP4       010BRADESPAR   PN      N1   R$  000000000226000000000022830000000002237000000000227000000000022800000000002275000000000228003695000000000000832000000000001888726400000000000000009999123100000010000000000000BRBRAPACNPR2130
012017021796BRAP4F      020BRADESPAR   PN      N1   R$  000000000226200000000022850000000002242000000000226300000000022810000000002260000000000228100069000000000000001106000000000002503817000000000000009999123100000010000000000000BRBRAPACNPR2130
012017021714BRAX11      010ISHARES BRAXCI           R$  000000000545600000000054970000000005456000000000546400000000054970000000004880000000000000000004000000000000000110000000000000601130000000000000009999123100000010000000000000BRBRAXCTF002100
012017021712BRCR11      010FII BC FUND CI  ER       R$  000000001030000000000103900000000010275000000001032700000000103900000000010320000000001039000648000000000000022809000000000235557228000000000000009999123100000010000000000000BRBRCRCTF000174
012017021702BRFS3       010BRF SA      ON      NM   R$  000000000436400000000043810000000004280000000000431800000000042850000000004284000000000428506713000000000002834900000000012243345100000000000000009999123100000010000000000000BRBRFSACNOR8117
012017021796BRFS3F      020BRF SA      ON      NM   R$  000000000437000000000043960000000004288000000000432500000000043100000000004300000000000431000167000000000000004039000000000017470134000000000000009999123100000010000000000000BRBRFSACNOR8117
012017021762BRFS3T      030BRF SA      ON      NM017R$  000000000431700000000043180000000004317000000000431700000000043180000000000000000000000000000002000000000000002000000000000008634971000000000000009999123100000010000000000000BRBRFSACNOR8117
012017021762BRFS3T      030BRF SA      ON      NM031R$  000000000438900000000043990000000004389000000000439200000000043990000000000000000000000000000004000000000000003000000000000013177061000000000000009999123100000010000000000000BRBRFSACNOR8117
