00COTAHIST.2017BOVESPA 20170220                                                                                                                                                                                                                      
012017022002AALR3       010ALLIAR      ON      NM   R$  000000000131000000000013200000000001298000000000131300000000013120000000001305000000000131200324000000000000148400000000000194852100000000000000009999123100000010000000000000BRAALRACNOR6100
012017022096AALR3F      020ALLIAR      ON      NM   R$  000000000128200000000013170000000001282000000000129800000000013120000000001282000000000138100009000000000000000358000000000000464827000000000000009999123100000010000000000000BRAALRACNOR6100
012017022002AAPL34      010APPLE       DRN ED       R$  000000000422100000000042210000000004221000000000422100000000042210000000004130000000000422100001000000000000000100000000000000422100000000000000009999123100000010000000000000BRAAPLBDR004120
012017022010ABCB10      010ABC BRASIL  PN  REC N2   R$  000000000189900000000018990000000001899000000000189900000000018990000000001770000000000187900001000000000000000200000000000000379800000000000000009999123100000010000000000000BRABCBR11PR8126
012017022096ABCB10F     020ABC BRASIL  PN  REC N2   R$  000000000188000000000019300000000001880000000000190100000000019090000000001800000000000193000004000000000000000068000000000000129331000000000000009999123100000010000000000000BRABCBR11PR8126
012017022002ABCB4       010ABC BRASIL  PN      N2   R$  000000000188000000000019050000000001856000000000187600000000018690000000001869000000000187101750000000000000357800000000000671465300000000000000009999123100000010000000000000BRABCBACNPR4127
012017022096ABCB4F      020ABC BRASIL  PN      N2   R$  000000000188000000000018970000000001855000000000187900000000018690000000001869000000000189900031000000000000001186000000000002228967000000000000009999123100000010000000000000BRABCBACNPR4127
012017022012ABCP11      010FII ABC IMOBCI           R$  000000000147200000000014720000000001400000000000141600000000014100000000001400000000000141000031000000000000003198000000000004528686000000000000009999123100000010000000000000BRABCPCTF000256
012017022002ABEV3       010AMBEV S/A   ON           R$  000000000179800000000018010000000001778000000000178900000000017840000000001784000000000178509576000000000003507600000000006276026500000000000000009999123100000010000000000000BRABEVACNOR1116
012017022096ABEV3F      020AMBEV S/A   ON           R$  000000000180000000000018000000000001780000000000179100000000018000000000001770000000000180000275000000000000005472000000000009804131000000000000009999123100000010000000000000BRABEVACNOR1116
012017022038ABEVB16E    012ABEV        ON        000R$  000000000158400000000015840000000001584000000000158400000000015840000000000000000000000000000005000000000000107300000000000169963200000000000158402017022000000010000000000000BRABEVACNOR1116
012017022038ABEVB1E     012ABEVE       ON        000R$  000000000165900000000016590000000001659000000000165900000000016590000000000000000000000000000012000000000000515500000000000855214500000000000165902017022000000010000000000000BRABEVACNOR1116
012017022038ABEVB28E    012ABEV        ON        000R$  000000000173400000000017340000000001734000000000173400000000017340000000000000000000000000000076000000000001624000000000002816016000000000000173402017022000000010000000000000BRABEVACNOR1116
012017022038ABEVB37E    012ABEV        ON        000R$  000000000168400000000016840000000001684000000000168400000000016840000000000000000000000000000045000000000001531800000000002579551200000000000168402017022000000010000000000000BRABEVACNOR1116
012017022038ABEVB45E    012ABEV        ON        000R$  000000000153400000000015340000000001534000000000153400000000015340000000000000000000000000000001000000000000028700000000000044025800000000000153402017022000000010000000000000BRABEVACNOR1116
012017022038ABEVB68E    012ABEVE       ON        000R$  000000000175900000000017590000000001759000000000175900000000017590000000000000000000000000000074000000000001104000000000001941936000000000000175902017022000000010000000000000BRABEVACNOR1116
012017022038ABEVB76E    012ABEVE       ON        000R$  000000000160900000000016090000000001609000000000160900000000016090000000000000000000000000000001000000000000030000000000000048270000000000000160902017022000000010000000000000BRABEVACNOR1116
012017022038ABEVB86E    012ABEVE       ON        000R$  000000000155900000000015590000000001559000000000155900000000015590000000000000000000000000000001000000000000100000000000000155900000000000000155902017022000000010000000000000BRABEVACNOR1116
012017022038ABEVB87E    012ABEV        ON        000R$  000000000163400000000016340000000001634000000000163400000000016340000000000000000000000000000013000000000000185700000000000303433800000000000163402017022000000010000000000000BRABEVACNOR1116
012017022038ABEVB97E    012ABEVE       ON        000R$  000000000170900000000017090000000001709000000000170900000000017090000000000000000000000000000036000000000000080000000000000136720000000000000170902017022000000010000000000000BRABEVACNOR1116
012017022038ABEVB98E    012ABEV        ON        000R$  000000000178400000000017840000000001784000000000178400000000017840000000000000000000000000000036000000000001559300000000002781791200000000000178402017022000000010000000000000BRABEVACNOR1116
012017022078ABEVC16     070ABEV        ON        000R$  000000000020400000000002040000000000204000000000020400000000002040000000000000000000000035000001000000000000001500000000000000306000000000000159802017032000000010000000000000BRABEVACNOR1114
012017022078ABEVC19     070ABEV  FM    ON        000R$  000000000001200000000000130000000000008000000000001000000000000080000000000009000000000001100042000000000000175200000000000001817100000000000189802017032000000010000000000000BRABEVACNOR1114
012017022078ABEVC2      070ABEV  FM    ON        000R$  000000000003700000000000450000000000037000000000003900000000000390000000000033000000000004100030000000000000084800000000000003314500000000000179802017032000000010000000000000BRABEVACNOR1112
012017022078ABEVC20     070ABEV        ON        000R$  000000000000200000000000020000000000002000000000000200000000000020000000000001000000000000600002000000000000020000000000000000040000000000000199802017032000000010000000000000BRABEVACNOR1114
012017022078ABEVC3      070ABEVE       ON        000R$  000000000006000000000000600000000000053000000000005700000000000530000000000051000000000010000004000000000000002500000000000000142900000000000177302017032000000010000000000000BRABEVACNOR1114
012017022078ABEVC49     070ABEV  FM    ON        000R$  000000000000400000000000040000000000004000000000000400000000000040000000000001000000000000700003000000000000040000000000000000160000000000000194802017032000000010000000000000BRABEVACNOR1114
012017022078ABEVC7      070ABEVE       ON        000R$  000000000009000000000000900000000000090000000000009000000000000900000000000000000000000014400001000000000000000500000000000000045000000000000172302017032000000010000000000000BRABEVACNOR1112
012017022078ABEVC76     070ABEVE       ON        000R$  000000000012900000000001290000000000129000000000012900000000001290000000000000000000000000000001000000000000000400000000000000051600000000000167302017032000000010000000000000BRABEVACNOR1114
012017022078ABEVC78     070ABEVE       ON        000R$  000000000001600000000000160000000000016000000000001600000000000160000000000000000000000001700001000000000000001000000000000000016000000000000187302017032000000010000000000000BRABEVACNOR1114
012017022078ABEVC79     070ABEVE       ON        000R$  000000000000600000000000060000000000006000000000000600000000000060000000000000000000000000700001000000000000020000000000000000120000000000000192302017032000000010000000000000BRABEVACNOR1113
012017022078ABEVC8      070ABEV  FM    ON        000R$  000000000007300000000000730000000000067000000000007100000000000700000000000000000000000007600006000000000000023000000000000001635200000000000174802017032000000010000000000000BRABEVACNOR1112
012017022078ABEVC99     070ABEV  FM    ON        000R$  000000000002100000000000230000000000018000000000001900000000000180000000000015000000000002200027000000000000063500000000000001261800000000000184802017032000000010000000000000BRABEVACNOR1108
012017022078ABEVD19     070ABEV  FM    ON        000R$  000000000002000000000000250000000000020000000000002300000000000230000000000002000000000000000004000000000000013600000000000000319500000000000189502017041700000010000000000000BRABEVACNOR1115
012017022078ABEVD58     070ABEVE       ON        000R$  000000000005100000000000510000000000051000000000005100000000000510000000000000000000000000000001000000000000000100000000000000005100000000000182002017041700000010000000000000BRABEVACNOR1112
012017022078ABEVD67     070ABEV  FM    ON        000R$  000000000006800000000000680000000000061000000000006400000000000610000000000000000000000000000003000000000000021200000000000001370900000000000179502017041700000010000000000000BRABEVACNOR1112
012017022078ABEVD78     070ABEV  FM    ON        000R$  000000000010000000000001000000000000093000000000009600000000000930000000000035000000000000000003000000000000020700000000000001997800000000000174502017041700000010000000000000BRABEVACNOR1112
012017022078ABEVD79     070ABEV  FM    ON        000R$  000000000004000000000000400000000000040000000000004000000000000400000000000001000000000000000001000000000000000200000000000000008000000000000184502017041700000010000000000000BRABEVACNOR1112
012017022078ABEVL63     070ABEVE       ON        000R$  000000000003100000000000310000000000031000000000003100000000000310000000000000000000000000000001000000000000000100000000000000003100000000000227002017121800000010000000000000BRABEVACNOR1112
012017022042ABEVN19E    013ABEVE       ON        000R$  000000000188400000000018840000000001884000000000188400000000018840000000000000000000000000000004000000000000241900000000000455739600000000000188402017022000000010000000000000BRABEVACNOR1116
012017022042ABEVN48E    013ABEVE       ON        000R$  000000000183400000000018340000000001834000000000183400000000018340000000000000000000000000000002000000000000000900000000000001650600000000000183402017022000000010000000000000BRABEVACNOR1116
012017022042ABEVN88E    013ABEVE       ON        000R$  000000000180900000000018090000000001809000000000180900000000018090000000000000000000000000000001000000000000000300000000000000542700000000000180902017022000000010000000000000BRABEVACNOR1116
012017022082ABEVO3      080ABEVE       ON        000R$  000000000002500000000000250000000000025000000000002500000000000250000000000000000000000000000001000000000000000300000000000000007500000000000177302017032000000010000000000000BRABEVACNOR1114
012017022082ABEVO46     080ABEVE       ON        000R$  000000000001000000000000100000000000009000000000000900000000000090000000000001000000000000900002000000000000006000000000000000055000000000000164802017032000000010000000000000BRABEVACNOR1114
012017022082ABEVO7      080ABEVE       ON        000R$  000000000001300000000000130000000000013000000000001300000000000130000000000000000000000001800002000000000000002000000000000000026000000000000172302017032000000010000000000000BRABEVACNOR1112
012017022082ABEVO8      080ABEVE FM    ON        000R$  000000000001800000000000200000000000018000000000001900000000000190000000000005000000000002000013000000000000392400000000000007456000000000000174802017032000000010000000000000BRABEVACNOR1112
012017022082ABEVO99     080ABEVE FM    ON        000R$  000000000006400000000000670000000000064000000000006500000000000670000000000000000000000000000003000000000000020300000000000001329500000000000184802017032000000010000000000000BRABEVACNOR1108
012017022082ABEVP67     080ABEVE FM    ON        000R$  000000000004200000000000420000000000042000000000004200000000000420000000000000000000000000000001000000000000010100000000000000424200000000000179502017041700000010000000000000BRABEVACNOR1112
012017022082ABEVP79     080ABEVE FM    ON        000R$  000000000006800000000000680000000000068000000000006800000000000680000000000000000000000000000001000000000000010100000000000000686800000000000184502017041700000010000000000000BRABEVACNOR1112
012017022002ADHM3       010ADVANCED-DH ON           R$  000000000034800000000003520000000000339000000000034400000000003440000000000339000000000034400051000000000000025000000000000008615500000000000000009999123100000010000000000000BRADHMACNOR9101
012017022012AEFI11      010FII AESAPAR CI           R$  000000001436000000000144500000000014350000000001439800000000144500000000014350000000001445000038000000000000001284000000000018487429000000000000009999123100000010000000000000BRAEFICTF002162
012017022012AGCX11      010FII AG CAIXACI           R$  000000012999900000001299990000000129001000000012963600000001293050000000129299000000012930500055000000000000000597000000000077392786000000000000009999123100000010000000000000BRAGCXCTF003151
012017022002AGRO3       010BRASILAGRO  ON      NM   R$  000000000123200000000012400000000001226000000000123400000000012360000000001232000000000123600440000000000000145700000000000179812200000000000000009999123100000010000000000000BRAGROACNOR7106
012017022096AGRO3F      020BRASILAGRO  ON      NM   R$  000000000124600000000012610000000001233000000000124300000000012400000000001230000000000125000012000000000000000306000000000000380421000000000000009999123100000010000000000000BRAGROACNOR7106
012017022062AGRO3T      030BRASILAGRO  ON      NM030R$  000000000124500000000012460000000001245000000000124500000000012460000000000000000000000000000002000000000000002500000000000003113633000000000000009999123100000010000000000000BRAGROACNOR7106
012017022012ALMI11B     010FII TORRE ALCI      MB   R$  000000017790000000001800000000000174000000000017742400000001793000000000174100000000017930000027000000000000000146000000000025903910000000000000009999123100000010000000000000BRALMICTF003246
012017022002ALPA3       010ALPARGATAS  ON      N1   R$  000000000098000000000009850000000000980000000000098200000000009830000000000983000000000100400005000000000000001200000000000001179400000000000000009999123100000010000000000000BRALPAACNOR0219
012017022096ALPA3F      020ALPARGATAS  ON      N1   R$  000000000109600000000010960000000001096000000000109600000000010960000000000912000000000109600006000000000000000102000000000000111792000000000000009999123100000010000000000000BRALPAACNOR0219
012017022002ALPA4       010ALPARGATAS  PN      N1   R$  000000000119400000000012170000000001177000000000120000000000012100000000001210000000000121503330000000000000581800000000000698322100000000000000009999123100000010000000000000BRALPAACNPR7219
012017022096ALPA4F      020ALPARGATAS  PN      N1   R$  000000000120000000000012100000000001186000000000120400000000012100000000001020000000000121600009000000000000000212000000000000255428000000000000009999123100000010000000000000BRALPAACNPR7219
012017022038ALPAB71E    012ALPAE       PN      N1000R$  000000000118500000000011850000000001185000000000118500000000011850000000000000000000000000000002000000000000103100000000000122173500000000000118502017022000000010000000000000BRALPAACNPR7219
012017022078ALPAC40     070ALPA        PN      N1000R$  000000000010000000000001000000000000100000000000010000000000001000000000000000000000000014500001000000000000000100000000000000010000000000000105002017032000000010000000000000BRALPAACNPR7219
012017022078ALPAF63     070ALPAE       PN      N1000R$  000000000003600000000000360000000000035000000000003500000000000350000000000000000000000000000003000000000000107100000000000003802100000000000132502017061900000010000000000000BRALPAACNPR7219
012017022082ALPAR61     080ALPAE       PN      N1000R$  000000000003000000000000300000000000030000000000003000000000000300000000000000000000000000000002000000000000107100000000000003213000000000000112502017061900000010000000000000BRALPAACNPR7219
012017022002ALSC3       010ALIANSCE    ON      NM   R$  000000000154800000000015610000000001526000000000154200000000015550000000001543000000000155501359000000000000274200000000000422946700000000000000009999123100000010000000000000BRALSCACNOR0110
012017022096ALSC3F      020ALIANSCE    ON      NM   R$  000000000154800000000015480000000001548000000000154800000000015480000000001397000000000156000001000000000000000004000000000000006192000000000000009999123100000010000000000000BRALSCACNOR0110
012017022002ALUP11      010ALUPAR      UNT     N2   R$  000000000199000000000020260000000001990000000000200500000000019970000000001997000000000199901988000000000000445100000000000892690900000000000000009999123100000010000000000000BRALUPCDAM15105
012017022096ALUP11F     020ALUPAR      UNT     N2   R$  000000000198600000000020220000000001986000000000200500000000020020000000001984000000000201400048000000000000001277000000000002561462000000000000009999123100000010000000000000BRALUPCDAM15105
012017022002ALUP3       010ALUPAR      ON      N2   R$  000000000067500000000007000000000000669000000000067800000000007000000000000630000000000069800020000000000000014600000000000009904700000000000000009999123100000010000000000000BRALUPACNOR8105
012017022002ALUP4       010ALUPAR      PN      N2   R$  000000000071000000000007100000000000690000000000070500000000006900000000000690000000000070000015000000000000004000000000000002821600000000000000009999123100000010000000000000BRALUPACNPR5105
012017022096ALUP4F      020ALUPAR      PN      N2   R$  000000000065000000000006500000000000650000000000065000000000006500000000000650000000000070000001000000000000000033000000000000021450000000000000009999123100000010000000000000BRALUPACNPR5105
012017022002AMAR3       010LOJAS MARISAON      NM   R$  000000000069400000000007100000000000691000000000069700000000006950000000000694000000000069500359000000000000154700000000000107951600000000000000009999123100000010000000000000BRAMARACNOR4112
012017022096AMAR3F      020LOJAS MARISAON      NM   R$  000000000069600000000007010000000000695000000000069700000000006960000000000694000000000069800007000000000000000007000000000000004882000000000000009999123100000010000000000000BRAMARACNOR4112
012017022002ANIM3       010ANIMA       ON      NM   R$  000000000140500000000014100000000001381000000000139400000000013930000000001393000000000140800272000000000000044700000000000062327800000000000000009999123100000010000000000000BRANIMACNOR6103
012017022096ANIM3F      020ANIMA       ON      NM   R$  000000000139000000000013950000000001390000000000139100000000013950000000001391000000000140800004000000000000000143000000000000198940000000000000009999123100000010000000000000BRANIMACNOR6103
012017022002ARZZ3       010AREZZO CO   ON      NM   R$  000000000299700000000030440000000002997000000000301700000000030200000000003020000000000302900547000000000000134800000000000406792800000000000000009999123100000010000000000000BRARZZACNOR3123
012017022096ARZZ3F      020AREZZO CO   ON      NM   R$  000000000302800000000030350000000003018000000000302600000000030210000000002900000000000304500015000000000000000340000000000001028872000000000000009999123100000010000000000000BRARZZACNOR3123
012017022008ATOM3       010ATOMPAR     ON           R$  000000000047000000000004900000000000468000000000047800000000004750000000000470000000000047500137000000000000097900000000000046873500000000000000009999123100000010000000000000BRATOMACNOR1102
012017022096ATOM3F      020ATOMPAR     ON           R$  000000000046100000000005000000000000461000000000048300000000004610000000000461000000000047400014000000000000000292000000000000141241000000000000009999123100000010000000000000BRATOMACNOR1102
012017022002AZEV4       010AZEVEDO     PN           R$  000000000014500000000001450000000000135000000000013500000000001360000000000135000000000013700014000000000000010300000000000001399900000000000000009999123100000010000000000000BRAZEVACNPR7116
012017022002BAHI3       010BAHEMA      ON           R$  000000000390700000000047500000000003907000000000423800000000045010000000004500000000000474000060000000000000007100000000000030093200000000000000009999123100000010000000000000BRBAHIACNOR1069
012017022002BALM4       010BAUMER      PN           R$  000000000082000000000008200000000000820000000000082000000000008200000000000821000000000090000002000000000000000600000000000000492000000000000000009999123100000010000000000000BRBALMACNPR2047
012017022002BAUH4       010EXCELSIOR   PN           R$  000000000090000000000009000000000000900000000000090000000000009000000000000881000000000091800001000000000000001000000000000000900000000000000000009999123100000010000000000000BRBAUHACNPR3111
012017022002BAZA3       010AMAZONIA    ON           R$  000000000294100000000029420000000002941000000000294100000000029410000000002941000000000301900004000000000000000600000000000001764700000000000000009999123100000010000000000000BRBAZAACNOR0170
012017022096BAZA3F      020AMAZONIA    ON           R$  000000000291500000000029250000000002915000000000292000000000029250000000002925000000000298900002000000000000000065000000000000189825000000000000009999123100000010000000000000BRBAZAACNOR0170
012017022002BBAS3       010BRASIL      ON      NM   R$  000000000331100000000033520000000003287000000000331600000000033440000000003343000000000334410016000000000005008800000000016611175200000000000000009999123100000010000000000000BRBBASACNOR3265
012017022096BBAS3F      020BRASIL      ON      NM   R$  000000000330200000000033500000000003288000000000331200000000033500000000003340000000000335000359000000000000009913000000000032839421000000000000009999123100000010000000000000BRBBASACNOR3265
012017022062BBAS3T      030BRASIL      ON      NM030R$  000000000334300000000033440000000003343000000000334300000000033440000000000000000000000000000002000000000000001000000000000003343065000000000000009999123100000010000000000000BRBBASACNOR3265
012017022062BBAS3T      030BRASIL      ON      NM031R$  000000000334900000000033500000000003337000000000334500000000033380000000000000000000000000000010000000000000012000000000000040149786000000000000009999123100000010000000000000BRBBASACNOR3265
012017022062BBAS3T      030BRASIL      ON      NM059R$  000000000338500000000033900000000003385000000000338800000000033900000000000000000000000000000010000000000000001000000000000003388974000000000000009999123100000010000000000000BRBBASACNOR3265
012017022078BBASA8      070BBASE       ON      NM000R$  000000000052000000000005200000000000520000000000052000000000005200000000000000000000000000000002000000000000000200000000000000104000000000000338602018011500000010000000000000BRBBASACNOR3264
012017022078BBASA84     070BBASE       ON      NM000R$  000000000115000000000011500000000001148000000000114900000000011480000000000000000000000000000002000000000000000200000000000000229800000000000243602018011500000010000000000000BRBBASACNOR3261
012017022038BBASB11E    012BBASE       ON      NM000R$  000000000309700000000030970000000003097000000000309700000000030970000000000000000000000000000039000000000000122800000000000380311600000000000309702017022000000010000000000000BRBBASACNOR3265
012017022078BBASB19     070BBASE       ON      NM000R$  000000000044800000000004480000000000448000000000044800000000004480000000000000000000000000000002000000000000003000000000000001344000000000000360902018021900000010000000000000BRBBASACNOR3265
012017022038BBASB1E     012BBAS        ON      NM000R$  000000000307200000000030720000000003072000000000307200000000030720000000000000000000000000000050000000000000256700000000000788582400000000000307202017022000000010000000000000BRBBASACNOR3265
012017022038BBASB20E    012BBAS        ON      NM000R$  000000000202200000000020220000000002022000000000202200000000020220000000000000000000000000000002000000000000001400000000000002830800000000000202202017022000000010000000000000BRBBASACNOR3265
012017022038BBASB22E    012BBAS        ON      NM000R$  000000000222200000000022220000000002222000000000222200000000022220000000000000000000000000000001000000000000001800000000000003999600000000000222202017022000000010000000000000BRBBASACNOR3265
012017022038BBASB23E    012BBAS        ON      NM000R$  000000000232200000000023220000000002322000000000232200000000023220000000000000000000000000000001000000000000000500000000000001161000000000000232202017022000000010000000000000BRBBASACNOR3265
012017022038BBASB24E    012BBAS        ON      NM000R$  000000000242200000000024220000000002422000000000242200000000024220000000000000000000000000000003000000000000002800000000000006781600000000000242202017022000000010000000000000BRBBASACNOR3265
012017022038BBASB25E    012BBAS        ON      NM000R$  000000000252200000000025220000000002522000000000252200000000025220000000000000000000000000000008000000000000061800000000000155859600000000000252202017022000000010000000000000BRBBASACNOR3265
012017022038BBASB26E    012BBAS        ON      NM000R$  000000000262200000000026220000000002622000000000262200000000026220000000000000000000000000000014000000000000023400000000000061354800000000000262202017022000000010000000000000BRBBASACNOR3265
012017022038BBASB27E    012BBAS        ON      NM000R$  000000000272200000000027220000000002722000000000272200000000027220000000000000000000000000000042000000000000158700000000000431981400000000000272202017022000000010000000000000BRBBASACNOR3265
012017022038BBASB28E    012BBAS        ON      NM000R$  000000000282200000000028220000000002822000000000282200000000028220000000000000000000000000000090000000000001345000000000003795590000000000000282202017022000000010000000000000BRBBASACNOR3265
012017022038BBASB29E    012BBAS        ON      NM000R$  000000000292200000000029220000000002922000000000292200000000029220000000000000000000000000000186000000000001328800000000003882753600000000000292202017022000000010000000000000BRBBASACNOR3265
012017022038BBASB2E     012BBAS        ON      NM000R$  000000000327200000000032720000000003272000000000327200000000032720000000000000000000000000000044000000000000201300000000000658653600000000000327202017022000000010000000000000BRBBASACNOR3265
012017022038BBASB30E    012BBAS        ON      NM000R$  000000000302200000000030220000000003022000000000302200000000030220000000000000000000000000000115000000000000478300000000001445422600000000000302202017022000000010000000000000BRBBASACNOR3265
012017022038BBASB31E    012BBAS        ON      NM000R$  000000000312200000000031220000000003122000000000312200000000031220000000000000000000000000000095000000000000813800000000002540683600000000000312202017022000000010000000000000BRBBASACNOR3265
012017022038BBASB32E    012BBAS        ON      NM000R$  000000000322200000000032220000000003222000000000322200000000032220000000000000000000000000000556000000000001130200000000003641504400000000000322202017022000000010000000000000BRBBASACNOR3265
012017022038BBASB33E    012BBAS        ON      NM000R$  000000000332200000000033220000000003322000000000332200000000033220000000000000000000000000000001000000000000000400000000000001328800000000000332202017022000000010000000000000BRBBASACNOR3265
012017022038BBASB3E     012BBASE       ON      NM000R$  000000000299700000000029970000000002997000000000299700000000029970000000000000000000000000000034000000000000141400000000000423775800000000000299702017022000000010000000000000BRBBASACNOR3265
012017022038BBASB50E    012BBAS        ON      NM000R$  000000000207200000000020720000000002072000000000207200000000020720000000000000000000000000000002000000000000052000000000000107744000000000000207202017022000000010000000000000BRBBASACNOR3265
012017022038BBASB52E    012BBAS        ON      NM000R$  000000000227200000000022720000000002272000000000227200000000022720000000000000000000000000000002000000000000033500000000000076112000000000000227202017022000000010000000000000BRBBASACNOR3265
012017022038BBASB54E    012BBAS        ON      NM000R$  000000000247200000000024720000000002472000000000247200000000024720000000000000000000000000000008000000000000011300000000000027933600000000000247202017022000000010000000000000BRBBASACNOR3265
012017022038BBASB55E    012BBAS        ON      NM000R$  000000000257200000000025720000000002572000000000257200000000025720000000000000000000000000000011000000000000033600000000000086419200000000000257202017022000000010000000000000BRBBASACNOR3265
012017022038BBASB56E    012BBAS        ON      NM000R$  000000000267200000000026720000000002672000000000267200000000026720000000000000000000000000000018000000000000349500000000000933864000000000000267202017022000000010000000000000BRBBASACNOR3265
012017022038BBASB57E    012BBAS        ON      NM000R$  000000000277200000000027720000000002772000000000277200000000027720000000000000000000000000000037000000000000157600000000000436867200000000000277202017022000000010000000000000BRBBASACNOR3265
012017022038BBASB58E    012BBAS        ON      NM000R$  000000000287200000000028720000000002872000000000287200000000028720000000000000000000000000000058000000000000548100000000001574143200000000000287202017022000000010000000000000BRBBASACNOR3265
012017022038BBASB59E    012BBAS        ON      NM000R$  000000000297200000000029720000000002972000000000297200000000029720000000000000000000000000000038000000000000140300000000000416971600000000000297202017022000000010000000000000BRBBASACNOR3265
012017022038BBASB61E    012BBAS        ON      NM000R$  000000000317200000000031720000000003172000000000317200000000031720000000000000000000000000000237000000000001358800000000004310113600000000000317202017022000000010000000000000BRBBASACNOR3265
012017022038BBASB63E    012BBASE       ON      NM000R$  000000000229700000000022970000000002297000000000229700000000022970000000000000000000000000000003000000000000002700000000000006201900000000000229702017022000000010000000000000BRBBASACNOR3265
012017022038BBASB65E    012BBASE       ON      NM000R$  000000000249700000000024970000000002497000000000249700000000024970000000000000000000000000000003000000000000004500000000000011236500000000000249702017022000000010000000000000BRBBASACNOR3265
012017022038BBASB67E    012BBASE       ON      NM000R$  000000000269700000000026970000000002697000000000269700000000026970000000000000000000000000000007000000000000010000000000000026970000000000000269702017022000000010000000000000BRBBASACNOR3265
012017022038BBASB68E    012BBASE       ON      NM000R$  000000000279700000000027970000000002797000000000279700000000027970000000000000000000000000000013000000000000227800000000000637156600000000000279702017022000000010000000000000BRBBASACNOR3265
012017022038BBASB69E    012BBASE       ON      NM000R$  000000000294700000000029470000000002947000000000294700000000029470000000000000000000000000000021000000000000162100000000000477708700000000000294702017022000000010000000000000BRBBASACNOR3265
012017022038BBASB6E     012BBASE       ON      NM000R$  000000000259700000000025970000000002597000000000259700000000025970000000000000000000000000000001000000000000000100000000000000259700000000000259702017022000000010000000000000BRBBASACNOR3265
012017022038BBASB72E    012BBASE       ON      NM000R$  000000000224700000000022470000000002247000000000224700000000022470000000000000000000000000000002000000000000006000000000000013482000000000000224702017022000000010000000000000BRBBASACNOR3265
012017022038BBASB74E    012BBASE       ON      NM000R$  000000000244700000000024470000000002447000000000244700000000024470000000000000000000000000000001000000000000002500000000000006117500000000000244702017022000000010000000000000BRBBASACNOR3265
012017022038BBASB76E    012BBASE       ON      NM000R$  000000000264700000000026470000000002647000000000264700000000026470000000000000000000000000000006000000000000009500000000000025146500000000000264702017022000000010000000000000BRBBASACNOR3265
012017022038BBASB77E    012BBASE       ON      NM000R$  000000000274700000000027470000000002747000000000274700000000027470000000000000000000000000000011000000000000077800000000000213716600000000000274702017022000000010000000000000BRBBASACNOR3265
012017022038BBASB78E    012BBASE       ON      NM000R$  000000000179700000000017970000000001797000000000179700000000017970000000000000000000000000000007000000000000120000000000000215640000000000000179702017022000000010000000000000BRBBASACNOR3265
012017022038BBASB79E    012BBASE       ON      NM000R$  000000000189700000000018970000000001897000000000189700000000018970000000000000000000000000000002000000000000005800000000000011002600000000000189702017022000000010000000000000BRBBASACNOR3265
012017022038BBASB81E    012BBASE       ON      NM000R$  000000000214700000000021470000000002147000000000214700000000021470000000000000000000000000000001000000000000002000000000000004294000000000000214702017022000000010000000000000BRBBASACNOR3265
012017022038BBASB84E    012BBASE       ON      NM000R$  000000000239700000000023970000000002397000000000239700000000023970000000000000000000000000000001000000000000002400000000000005752800000000000239702017022000000010000000000000BRBBASACNOR3265
012017022038BBASB85E    012BBASE       ON      NM000R$  000000000254700000000025470000000002547000000000254700000000025470000000000000000000000000000003000000000000001500000000000003820500000000000254702017022000000010000000000000BRBBASACNOR3265
012017022038BBASB86E    012BBASE       ON      NM000R$  000000000159700000000015970000000001597000000000159700000000015970000000000000000000000000000001000000000000019000000000000030343000000000000159702017022000000010000000000000BRBBASACNOR3265
012017022038BBASB87E    012BBASE       ON      NM000R$  000000000164700000000016470000000001647000000000164700000000016470000000000000000000000000000003000000000000005700000000000009387900000000000164702017022000000010000000000000BRBBASACNOR3265
012017022038BBASB88E    012BBASE       ON      NM000R$  000000000284700000000028470000000002847000000000284700000000028470000000000000000000000000000012000000000000041400000000000117865800000000000284702017022000000010000000000000BRBBASACNOR3265
012017022038BBASB89E    012BBASE       ON      NM000R$  000000000289700000000028970000000002897000000000289700000000028970000000000000000000000000000029000000000000558800000000001618843600000000000289702017022000000010000000000000BRBBASACNOR3265
012017022038BBASB90E    012BBASE       ON      NM000R$  000000000304700000000030470000000003047000000000304700000000030470000000000000000000000000000025000000000000273800000000000834268600000000000304702017022000000010000000000000BRBBASACNOR3265
012017022038BBASB93E    012BBASE       ON      NM000R$  000000000329700000000032970000000003297000000000329700000000032970000000000000000000000000000015000000000000060800000000000200457600000000000329702017022000000010000000000000BRBBASACNOR3265
012017022078BBASC1      070BBASE       ON      NM000R$  000000000027400000000003000000000000274000000000029200000000003000000000000000000000000036000002000000000000001400000000000000409600000000000309702017032000000010000000000000BRBBASACNOR3265
012017022078BBASC28     070BBAS        ON      NM000R$  000000000050300000000005030000000000500000000000050100000000005000000000000450000000000000000003000000000000002600000000000001303900000000000282202017032000000010000000000000BRBBASACNOR3264
012017022078BBASC29     070BBAS        ON      NM000R$  000000000041900000000004300000000000419000000000041900000000004300000000000400000000000000000004000000000000002500000000000001049800000000000292202017032000000010000000000000BRBBASACNOR3264
012017022078BBASC30     070BBAS        ON      NM000R$  000000000032000000000003200000000000320000000000032000000000003200000000000325000000000000000001000000000000001500000000000000480000000000000302202017032000000010000000000000BRBBASACNOR3264
012017022078BBASC31     070BBAS        ON      NM000R$  000000000028000000000002800000000000250000000000025700000000002800000000000026000000000030000042000000000000043100000000000011091900000000000312202017032000000010000000000000BRBBASACNOR3264
012017022078BBASC32     070BBAS        ON      NM000R$  000000000021200000000002120000000000177000000000018900000000002070000000000142000000000020700845000000000000620900000000000117814100000000000322202017032000000010000000000000BRBBASACNOR3264
012017022078BBASC34     070BBAS        ON      NM000R$  000000000010700000000001100000000000080000000000008700000000000920000000000085000000000009200078000000000000097000000000000008492100000000000342202017032000000010000000000000BRBBASACNOR3265
012017022078BBASC35     070BBAS        ON      NM000R$  000000000008000000000000800000000000048000000000005900000000000550000000000055000000000006000059000000000000064800000000000003849300000000000352202017032000000010000000000000BRBBASACNOR3265
012017022078BBASC36     070BBAS        ON      NM000R$  000000000004000000000000410000000000030000000000003300000000000410000000000030000000000004100061000000000000072900000000000002441800000000000362202017032000000010000000000000BRBBASACNOR3265
012017022078BBASC4      070BBAS  FM    ON      NM000R$  000000000008000000000000800000000000064000000000006900000000000640000000000058000000000007400022000000000000019000000000000001327100000000000347202017032000000010000000000000BRBBASACNOR3265
012017022078BBASC5      070BBAS  FM    ON      NM000R$  000000000005000000000000500000000000038000000000004000000000000380000000000012000000000005000050000000000000036700000000000001471100000000000357202017032000000010000000000000BRBBASACNOR3265
012017022078BBASC58     070BBAS        ON      NM000R$  000000000047400000000004740000000000474000000000047400000000004740000000000000000000000000000001000000000000000400000000000000189600000000000287202017032000000010000000000000BRBBASACNOR3264
012017022078BBASC6      070BBAS        ON      NM000R$  000000000003900000000000390000000000023000000000002800000000000290000000000029000000000003000176000000000000096200000000000002772600000000000367202017032000000010000000000000BRBBASACNOR3265
012017022078BBASC61     070BBAS  FM    ON      NM000R$  000000000023500000000002490000000000207000000000022300000000002490000000000219000000000024200212000000000000221400000000000049435400000000000317202017032000000010000000000000BRBBASACNOR3264
012017022078BBASC62     070BBAS  FM    ON      NM000R$  000000000016900000000001720000000000144000000000015100000000001690000000000000000000000020000450000000000000427500000000000064945900000000000327202017032000000010000000000000BRBBASACNOR3265
012017022078BBASC63     070BBAS        ON      NM000R$  000000000013900000000001400000000000121000000000012900000000001350000000000100000000000014000072000000000000131300000000000016974600000000000332202017032000000010000000000000BRBBASACNOR3265
012017022078BBASC70     070BBASE       ON      NM000R$  000000000034200000000003420000000000342000000000034200000000003420000000000001000000000000000001000000000000000400000000000000136800000000000299702017032000000010000000000000BRBBASACNOR3263
012017022078BBASC73     070BBAS  FM    ON      NM000R$  000000000011000000000001100000000000102000000000010500000000001020000000000000000000000012000033000000000000058700000000000006204000000000000337202017032000000010000000000000BRBBASACNOR3265
012017022078BBASC74     070BBASE       ON      NM000R$  000000000007000000000000700000000000058000000000006200000000000580000000000000000000000008500124000000000000053200000000000003344900000000000349702017032000000010000000000000BRBBASACNOR3265
012017022078BBASC92     070BBASE       ON      NM000R$  000000000021200000000002120000000000195000000000020000000000001970000000000001000000000000000048000000000000080400000000000016121500000000000319702017032000000010000000000000BRBBASACNOR3264
012017022078BBASD1      070BBAS  FM    ON      NM000R$  000000000029100000000002930000000000276000000000028600000000002840000000000250000000000034500054000000000000109500000000000031384500000000000318802017041700000010000000000000BRBBASACNOR3265
012017022078BBASD28     070BBAS        ON      NM000R$  000000000060000000000006000000000000600000000000060000000000006000000000000562000000000000000001000000000000000200000000000000120000000000000278802017041700000010000000000000BRBBASACNOR3263
012017022078BBASD3      070BBAS  FM    ON      NM000R$  000000000017500000000001820000000000161000000000016600000000001820000000000060000000000000000011000000000000007700000000000001284000000000000338802017041700000010000000000000BRBBASACNOR3265
012017022078BBASD32     070BBAS  FM    ON      NM000R$  000000000022700000000002300000000000209000000000021500000000002150000000000000000000000000000006000000000000002800000000000000602900000000000328802017041700000010000000000000BRBBASACNOR3265
012017022078BBASD33     070BBAS        ON      NM000R$  000000000019000000000001900000000000190000000000019000000000001900000000000100000000000020900001000000000000001000000000000000190000000000000333802017041700000010000000000000BRBBASACNOR3265
012017022078BBASD34     070BBAS        ON      NM000R$  000000000016500000000001650000000000154000000000015500000000001540000000000009000000000016500002000000000000004400000000000000682000000000000343802017041700000010000000000000BRBBASACNOR3265
012017022078BBASD35     070BBAS        ON      NM000R$  000000000010700000000001070000000000107000000000010700000000001070000000000002000000000000000001000000000000001000000000000000107000000000000353802017041700000010000000000000BRBBASACNOR3265
012017022078BBASD36     070BBAS        ON      NM000R$  000000000009000000000000900000000000081000000000008200000000000810000000000010000000000011900003000000000000002700000000000000222300000000000363802017041700000010000000000000BRBBASACNOR3265
012017022078BBASD4      070BBAS  FM    ON      NM000R$  000000000012300000000001250000000000123000000000012400000000001250000000000080000000000000000002000000000000002200000000000000274800000000000348802017041700000010000000000000BRBBASACNOR3265
012017022078BBASD5      070BBAS  FM    ON      NM000R$  000000000009500000000000970000000000087000000000009500000000000870000000000013000000000012200015000000000000027200000000000002597100000000000358802017041700000010000000000000BRBBASACNOR3265
012017022078BBASD59     070BBAS        ON      NM000R$  000000000045000000000004500000000000450000000000045000000000004500000000000000000000000000000001000000000000001000000000000000450000000000000293802017041700000010000000000000BRBBASACNOR3265
012017022078BBASD6      070BBAS        ON      NM000R$  000000000007500000000000750000000000068000000000006900000000000700000000000050000000000000000008000000000000046700000000000003234000000000000368802017041700000010000000000000BRBBASACNOR3265
012017022078BBASD63     070BBASE       ON      NM000R$  000000000020100000000002010000000000201000000000020100000000002010000000000000000000000000000001000000000000000800000000000000160800000000000331302017041700000010000000000000BRBBASACNOR3265
012017022078BBASD68     070BBASE       ON      NM000R$  000000000042100000000005200000000000421000000000047000000000005200000000000000000000000000000008000000000000001000000000000000470300000000000286302017041700000010000000000000BRBBASACNOR3263
012017022078BBASE31     070BBAS        ON      NM000R$  000000000044500000000004450000000000434000000000043400000000004340000000000000000000000000000003000000000000002600000000000001130600000000000303802017051500000010000000000000BRBBASACNOR3259
012017022078BBASE36     070BBAS        ON      NM000R$  000000000011100000000001110000000000105000000000010500000000001050000000000100000000000000000002000000000000020000000000000002100600000000000363802017051500000010000000000000BRBBASACNOR3265
012017022078BBASE57     070BBAS        ON      NM000R$  000000000063000000000006300000000000630000000000063000000000006300000000000200000000000000000001000000000000000100000000000000063000000000000278802017051500000010000000000000BRBBASACNOR3265
012017022078BBASE58     070BBAS        ON      NM000R$  000000000055000000000005500000000000550000000000055000000000005500000000000100000000000000000001000000000000000100000000000000055000000000000288802017051500000010000000000000BRBBASACNOR3265
012017022078BBASF36     070BBAS        ON      NM000R$  000000000018000000000001800000000000180000000000018000000000001800000000000000000000000000000001000000000000000900000000000000162000000000000364902017061900000010000000000000BRBBASACNOR3265
012017022078BBASF69     070BBASE       ON      NM000R$  000000000040100000000004760000000000401000000000043000000000004760000000000080000000000200000005000000000000000500000000000000215400000000000392502018061800000010000000000000BRBBASACNOR3265
012017022078BBASG61     070BBASE       ON      NM000R$  000000000053000000000005300000000000508000000000051500000000005080000000000000000000000000000002000000000000000300000000000000154600000000000306302017071700000010000000000000BRBBASACNOR3259
012017022078BBASK3      070BBASE       ON      NM000R$  000000000052300000000005230000000000500000000000050700000000005000000000000000000000000000000002000000000000000300000000000000152300000000000333602017112100000010000000000000BRBBASACNOR3263
012017022042BBASN33E    013BBASE       ON      NM000R$  000000000332200000000033220000000003322000000000332200000000033220000000000000000000000000000001000000000000000300000000000000996600000000000332202017022000000010000000000000BRBBASACNOR3265
012017022042BBASN83E    013BBASE       ON      NM000R$  000000000337200000000033720000000003372000000000337200000000033720000000000000000000000000000001000000000000004000000000000013488000000000000337202017022000000010000000000000BRBBASACNOR3265
012017022042BBASN93E    013BBASE       ON      NM000R$  000000000329700000000032970000000003297000000000329700000000032970000000000000000000000000000003000000000000068900000000000227163300000000000329702017022000000010000000000000BRBBASACNOR3265
012017022082BBASO1      080BBASE FM    ON      NM000R$  000000000005100000000000540000000000040000000000004600000000000400000000000013000000000003500023000000000000016400000000000000770100000000000309702017032000000010000000000000BRBBASACNOR3265
012017022082BBASO26     080BBASE       ON      NM000R$  000000000000500000000000050000000000004000000000000400000000000040000000000000000000000001600002000000000000001500000000000000007000000000000262202017032000000010000000000000BRBBASACNOR3264
012017022082BBASO27     080BBASE       ON      NM000R$  000000000000600000000000070000000000006000000000000600000000000060000000000003000000000000600005000000000000040000000000000000250000000000000272202017032000000010000000000000BRBBASACNOR3264
012017022082BBASO28     080BBASE       ON      NM000R$  000000000001300000000000130000000000010000000000001200000000000100000000000009000000000001300010000000000000063000000000000000756000000000000282202017032000000010000000000000BRBBASACNOR3264
012017022082BBASO29     080BBASE       ON      NM000R$  000000000002300000000000230000000000017000000000001800000000000170000000000001000000000008600095000000000000102100000000000001899300000000000292202017032000000010000000000000BRBBASACNOR3264
012017022082BBASO3      080BBASE       ON      NM000R$  000000000005000000000000500000000000050000000000005000000000000500000000000000000000000000000006000000000000006000000000000000300000000000000314702017032000000010000000000000BRBBASACNOR3265
012017022082BBASO30     080BBASE       ON      NM000R$  000000000003800000000000380000000000027000000000003400000000000270000000000001000000000005800010000000000000006200000000000000213000000000000302202017032000000010000000000000BRBBASACNOR3264
012017022082BBASO31     080BBASE       ON      NM000R$  000000000005800000000000580000000000041000000000005200000000000410000000000000000000000005200053000000000000126300000000000006590500000000000312202017032000000010000000000000BRBBASACNOR3264
012017022082BBASO32     080BBASE       ON      NM000R$  000000000009000000000000900000000000055000000000007200000000000550000000000055000000000007500736000000000000237000000000000017253900000000000322202017032000000010000000000000BRBBASACNOR3264
012017022082BBASO34     080BBASE       ON      NM000R$  000000000018600000000001860000000000181000000000018100000000001810000000000000000000000000000002000000000000001300000000000000236300000000000342202017032000000010000000000000BRBBASACNOR3265
012017022082BBASO5      080BBASE       ON      NM000R$  000000000027600000000002760000000000276000000000027600000000002760000000000000000000000000000001000000000000000500000000000000138000000000000357202017032000000010000000000000BRBBASACNOR3265
012017022082BBASO57     080BBASE       ON      NM000R$  000000000001000000000000100000000000010000000000001000000000000100000000000000000000000000000005000000000000010000000000000000100000000000000277202017032000000010000000000000BRBBASACNOR3264
012017022082BBASO58     080BBASE       ON      NM000R$  000000000001400000000000170000000000014000000000001500000000000170000000000000000000000002700003000000000000002000000000000000031000000000000287202017032000000010000000000000BRBBASACNOR3264
012017022082BBASO59     080BBASE       ON      NM000R$  000000000002900000000000290000000000021000000000002400000000000210000000000000000000000000000116000000000000070400000000000001721300000000000297202017032000000010000000000000BRBBASACNOR3264
012017022082BBASO61     080BBASE       ON      NM000R$  000000000006800000000000680000000000052000000000006100000000000520000000000000000000000005500005000000000000007500000000000000459500000000000317202017032000000010000000000000BRBBASACNOR3264
012017022082BBASO62     080BBASE FM    ON      NM000R$  000000000010600000000001090000000000071000000000008800000000000710000000000000000000000013000373000000000000133800000000000011808300000000000327202017032000000010000000000000BRBBASACNOR3265
012017022082BBASO63     080BBASE       ON      NM000R$  000000000012500000000001250000000000100000000000011600000000001000000000000000000000000000000006000000000000003800000000000000444200000000000332202017032000000010000000000000BRBBASACNOR3265
012017022082BBASO68     080BBASE       ON      NM000R$  000000000001200000000000120000000000009000000000001000000000000090000000000000000000000000000012000000000000005000000000000000051000000000000279702017032000000010000000000000BRBBASACNOR3263
012017022082BBASO70     080BBASE       ON      NM000R$  000000000002700000000000270000000000024000000000002400000000000240000000000000000000000000000002000000000000015100000000000000362700000000000299702017032000000010000000000000BRBBASACNOR3263
012017022082BBASO73     080BBASE FM    ON      NM000R$  000000000015400000000001570000000000127000000000013600000000001270000000000000000000000000000030000000000000037500000000000005126800000000000337202017032000000010000000000000BRBBASACNOR3265
012017022082BBASO80     080BBASE       ON      NM000R$  000000000004700000000000470000000000042000000000004500000000000420000000000026000000000000000014000000000000013000000000000000596000000000000307202017032000000010000000000000BRBBASACNOR3264
012017022082BBASO92     080BBASE FM    ON      NM000R$  000000000007900000000000820000000000062000000000007300000000000620000000000052000000000008200028000000000000016100000000000001185800000000000319702017032000000010000000000000BRBBASACNOR3264
012017022082BBASP10     080BBASE FM    ON      NM000R$  000000000008900000000000890000000000078000000000007900000000000780000000000071000000000028000005000000000000002500000000000000199600000000000308802017041700000010000000000000BRBBASACNOR3265
012017022082BBASP28     080BBASE       ON      NM000R$  000000000003400000000000340000000000033000000000003300000000000330000000000000000000000000000003000000000000006200000000000000204700000000000278802017041700000010000000000000BRBBASACNOR3263
012017022082BBASP3      080BBASE FM    ON      NM000R$  000000000020900000000002160000000000191000000000020600000000001910000000000000000000000000000033000000000000057900000000000011965700000000000338802017041700000010000000000000BRBBASACNOR3265
012017022082BBASP31     080BBASE       ON      NM000R$  000000000010900000000001090000000000095000000000010000000000000950000000000000000000000000000005000000000000003300000000000000330200000000000313802017041700000010000000000000BRBBASACNOR3265
012017022082BBASP32     080BBASE FM    ON      NM000R$  000000000016400000000001640000000000143000000000015200000000001430000000000000000000000000000012000000000000024100000000000003669200000000000328802017041700000010000000000000BRBBASACNOR3265
012017022082BBASP70     080BBASE       ON      NM000R$  000000000007600000000000760000000000068000000000007200000000000680000000000000000000000008100003000000000000002100000000000000151500000000000301302017041700000010000000000000BRBBASACNOR3265
012017022082BBASP76     080BBASE       ON      NM000R$  000000000001800000000000200000000000018000000000001900000000000200000000000010000000000000000002000000000000020000000000000000380000000000000261302017041700000010000000000000BRBBASACNOR3259
012017022082BBASP80     080BBASE       ON      NM000R$  000000000000100000000000020000000000001000000000000100000000000020000000000000000000000000300002000000000000020000000000000000030000000000000201302017041700000010000000000000BRBBASACNOR3259
012017022082BBASP87     080BBASE       ON      NM000R$  000000000003500000000000350000000000017000000000003000000000000270000000000026000000000003300047000000000000080400000000000002439800000000000276302017041700000010000000000000BRBBASACNOR3263
012017022082BBASR32     080BBASE       ON      NM000R$  000000000024000000000002400000000000240000000000024000000000002400000000000000000000000000000001000000000000000900000000000000216000000000000324902017061900000010000000000000BRBBASACNOR3265
012017022082BBASR58     080BBASE       ON      NM000R$  000000000008000000000000800000000000080000000000008000000000000800000000000000000000000000000001000000000000000900000000000000072000000000000284902017061900000010000000000000BRBBASACNOR3264
012017022002BBDC3       010BRADESCO    ON      N1   R$  000000000318800000000032220000000003163000000000319200000000032000000000003198000000000320002982000000000000553800000000001768032100000000000000009999123100000010000000000000BRBBDCACNOR1660
012017022096BBDC3F      020BRADESCO    ON      N1   R$  000000000319000000000032680000000003170000000000319200000000031800000000003166000000000318000085000000000000001946000000000006213507000000000000009999123100000010000000000000BRBBDCACNOR1660
012017022002BBDC4       010BRADESCO    PN      N1   R$  000000000330200000000033190000000003283000000000330000000000033040000000003304000000000330809152000000000003933900000000012983850500000000000000009999123100000010000000000000BRBBDCACNPR8660
012017022096BBDC4F      020BRADESCO    PN      N1   R$  000000000330000000000033170000000003282000000000329900000000033150000000003300000000000331500183000000000000004693000000000015486065000000000000009999123100000010000000000000BRBBDCACNPR8660
012017022062BBDC4T      030BRADESCO    PN      N1030R$  000000000332000000000033210000000003320000000000332000000000033210000000000000000000000000000004000000000000000600000000000001992384000000000000009999123100000010000000000000BRBBDCACNPR8660
012017022038BBDCB10E    012BBDCE       ON      N1000R$  000000000201400000000020140000000002014000000000201400000000020140000000000000000000000000000001000000000000157190000000000316580660000000000201402017022000000010000000000000BRBBDCACNOR1660
012017022038BBDCB11E    012BBDCE       PN      N1000R$  000000000144800000000014480000000001448000000000144800000000014480000000000000000000000000000001000000000000110000000000000159280000000000000144802017022000000010000000000000BRBBDCACNPR8660
012017022038BBDCB12E    012BBDCE       ON      N1000R$  000000000238700000000023870000000002387000000000238700000000023870000000000000000000000000000001000000000000000100000000000000238700000000000238702017022000000010000000000000BRBBDCACNOR1660
012017022038BBDCB14E    012BBDCE       PN      N1000R$  000000000140200000000014020000000001402000000000140200000000014020000000000000000000000000000011000000000001084570000000001520567140000000000140202017022000000010000000000000BRBBDCACNPR8660
012017022038BBDCB16E    012BBDC        PN      N1000R$  000000000228900000000022890000000002289000000000228900000000022890000000000000000000000000000002000000000000033000000000000075537000000000000228902017022000000010000000000000BRBBDCACNPR8660
012017022038BBDCB17E    012BBDCE       PN      N1000R$  000000000176600000000017660000000001766000000000176600000000017660000000000000000000000000000016000000000002544240000000004493127840000000000176602017022000000010000000000000BRBBDCACNPR8660
012017022038BBDCB1E     012BBDC        PN      N1000R$  000000000309600000000030960000000003096000000000309600000000030960000000000000000000000000000076000000000002588500000000008013996000000000000309602017022000000010000000000000BRBBDCACNPR8660
012017022038BBDCB26E    012BBDCE       PN      N1000R$  000000000194800000000019480000000001948000000000194800000000019480000000000000000000000000000002000000000000161260000000000314134480000000000194802017022000000010000000000000BRBBDCACNPR8660
012017022038BBDCB27E    012BBDC        PN      N1000R$  000000000238000000000023800000000002380000000000238000000000023800000000000000000000000000000004000000000000021840000000000051979200000000000238002017022000000010000000000000BRBBDCACNPR8660
012017022038BBDCB29E    012BBDC        PN      N1000R$  000000000289600000000028960000000002896000000000289600000000028960000000000000000000000000000033000000000000353000000000001022288000000000000289602017022000000010000000000000BRBBDCACNPR8660
012017022038BBDCB2E     012BBDCE       PN      N1000R$  000000000317100000000031710000000003171000000000317100000000031710000000000000000000000000000051000000000000815600000000002586267600000000000317102017022000000010000000000000BRBBDCACNPR8660
012017022038BBDCB31E    012BBDCE       PN      N1000R$  000000000208900000000020890000000002089000000000208900000000020890000000000000000000000000000004000000000000262500000000000548362500000000000208902017022000000010000000000000BRBBDCACNPR8660
012017022038BBDCB3E     012BBDC        PN      N1000R$  000000000329600000000032960000000003296000000000329600000000032960000000000000000000000000000086000000000002835400000000009345478400000000000329602017022000000010000000000000BRBBDCACNPR8660
012017022038BBDCB40E    012BBDC        PN      N1000R$  000000000147100000000014710000000001471000000000147100000000014710000000000000000000000000000005000000000000342150000000000503302650000000000147102017022000000010000000000000BRBBDCACNPR8660
012017022038BBDCB41E    012BBDCE       PN      N1000R$  000000000181200000000018120000000001812000000000181200000000018120000000000000000000000000000012000000000001074360000000001946740320000000000181202017022000000010000000000000BRBBDCACNPR8660
012017022038BBDCB43E    012BBDC        PN      N1000R$  000000000319600000000031960000000003196000000000319600000000031960000000000000000000000000000070000000000001699500000000005431602000000000000319602017022000000010000000000000BRBBDCACNPR8660
012017022038BBDCB44E    012BBDC        PN      N1000R$  000000000279600000000027960000000002796000000000279600000000027960000000000000000000000000000010000000000000206200000000000576535200000000000279602017022000000010000000000000BRBBDCACNPR8660
012017022038BBDCB45E    012BBDC        PN      N1000R$  000000000299600000000029960000000002996000000000299600000000029960000000000000000000000000000035000000000000279400000000000837082400000000000299602017022000000010000000000000BRBBDCACNPR8660
012017022038BBDCB46E    012BBDC        PN      N1000R$  000000000233400000000023340000000002334000000000233400000000023340000000000000000000000000000003000000000000006460000000000015077640000000000233402017022000000010000000000000BRBBDCACNPR8660
012017022038BBDCB52E    012BBDC        PN      N1000R$  000000000258000000000025800000000002580000000000258000000000025800000000000000000000000000000003000000000000029800000000000076884000000000000258002017022000000010000000000000BRBBDCACNPR8660
012017022038BBDCB55E    012BBDC        PN      N1000R$  000000000248000000000024800000000002480000000000248000000000024800000000000000000000000000000001000000000000007000000000000017360000000000000248002017022000000010000000000000BRBBDCACNPR8660
012017022038BBDCB56E    012BBDCE       PN      N1000R$  000000000231200000000023120000000002312000000000231200000000023120000000000000000000000000000006000000000000056320000000000130211840000000000231202017022000000010000000000000BRBBDCACNPR8660
012017022038BBDCB5E     012BBDCE       PN      N1000R$  000000000135700000000013570000000001357000000000135700000000013570000000000000000000000000000003000000000000077220000000000104787540000000000135702017022000000010000000000000BRBBDCACNPR8660
012017022038BBDCB61E    012BBDCE       PN      N1000R$  000000000272100000000027210000000002721000000000272100000000027210000000000000000000000000000005000000000000004690000000000012761490000000000272102017022000000010000000000000BRBBDCACNPR8660
012017022038BBDCB69E    012BBDC        PN      N1000R$  000000000165200000000016520000000001652000000000165200000000016520000000000000000000000000000002000000000000468600000000000774127200000000000165202017022000000010000000000000BRBBDCACNPR8660
012017022038BBDCB70E    012BBDC        PN      N1000R$  000000000269800000000026980000000002698000000000269800000000026980000000000000000000000000000009000000000000215600000000000581688800000000000269802017022000000010000000000000BRBBDCACNPR8660
012017022038BBDCB73E    012BBDCE       PN      N1000R$  000000000203900000000020390000000002039000000000203900000000020390000000000000000000000000000003000000000000979200000000001996588800000000000203902017022000000010000000000000BRBBDCACNPR8660
012017022038BBDCB76E    012BBDC        PN      N1000R$  000000000142500000000014250000000001425000000000142500000000014250000000000000000000000000000002000000000000040700000000000057997500000000000142502017022000000010000000000000BRBBDCACNPR8660
012017022038BBDCB78E    012BBDCE       ON      N1000R$  000000000251400000000025140000000002514000000000251400000000025140000000000000000000000000000002000000000000029040000000000073006560000000000251402017022000000010000000000000BRBBDCACNOR1660
012017022038BBDCB79E    012BBDCE       PN      N1000R$  000000000287100000000028710000000002871000000000287100000000028710000000000000000000000000000014000000000000189100000000000542906100000000000287102017022000000010000000000000BRBBDCACNPR8660
012017022038BBDCB80E    012BBDCE       PN      N1000R$  000000000265500000000026550000000002655000000000265500000000026550000000000000000000000000000001000000000000004700000000000012478500000000000265502017022000000010000000000000BRBBDCACNPR8660
012017022038BBDCB88E    012BBDC        ON      N1000R$  000000000249100000000024910000000002491000000000249100000000024910000000000000000000000000000001000000000000186890000000000465542990000000000249102017022000000010000000000000BRBBDCACNOR1660
012017022038BBDCB89E    012BBDCE       PN      N1000R$  000000000163000000000016300000000001630000000000163000000000016300000000000000000000000000000004000000000000232540000000000379040200000000000163002017022000000010000000000000BRBBDCACNPR8660
012017022038BBDCB91E    012BBDCE       ON      N1000R$  000000000183200000000018320000000001832000000000183200000000018320000000000000000000000000000001000000000000660000000000001209120000000000000183202017022000000010000000000000BRBBDCACNOR1660
012017022038BBDCB92E    012BBDCE       PN      N1000R$  000000000199300000000019930000000001993000000000199300000000019930000000000000000000000000000006000000000000485300000000000967202900000000000199302017022000000010000000000000BRBBDCACNPR8660
012017022038BBDCB96E    012BBDCE       ON      N1000R$  000000000255900000000025590000000002559000000000255900000000025590000000000000000000000000000001000000000000024860000000000063616740000000000255902017022000000010000000000000BRBBDCACNOR1660
012017022038BBDCB97E    012BBDCE       ON      N1000R$  000000000228700000000022870000000002287000000000228700000000022870000000000000000000000000000001000000000001320000000000003018840000000000000228702017022000000010000000000000BRBBDCACNOR1660
012017022078BBDCC20     070BBDC  FM    PN      N1000R$  000000000003500000000000390000000000032000000000003400000000000350000000000030000000000006000025000000000000051400000000000001758200000000000346602017032000000010000000000000BRBBDCACNPR8659
012017022078BBDCC23     070BBDC  FM    PN      N1000R$  000000000009300000000001010000000000085000000000009600000000000990000000000086000000000016000051000000000000121400000000000011739700000000000331602017032000000010000000000000BRBBDCACNPR8657
012017022078BBDCC32     070BBDC        PN      N1000R$  000000000015200000000001520000000000152000000000015200000000001520000000000124000000000026000001000000000000005000000000000000760000000000000321602017032000000010000000000000BRBBDCACNPR8657
012017022078BBDCC41     070BBDC  FM    PN      N1000R$  000000000018400000000001930000000000184000000000018700000000001930000000000184000000000000000006000000000000004700000000000000883100000000000316602017032000000010000000000000BRBBDCACNPR8659
012017022078BBDCC42     070BBDCE       PN      N1000R$  000000000002600000000000300000000000026000000000002700000000000280000000000027000000000003900011000000000000064900000000000001769200000000000349102017032000000010000000000000BRBBDCACNPR8659
012017022078BBDCC44     070BBDC        PN      N1000R$  000000000005100000000000560000000000048000000000004900000000000510000000000041000000000010000036000000000000122600000000000006075900000000000341602017032000000010000000000000BRBBDCACNPR8657
012017022078BBDCC45     070BBDC        PN      N1000R$  000000000001100000000000140000000000009000000000001200000000000110000000000010000000000001400027000000000000170500000000000002106500000000000361602017032000000010000000000000BRBBDCACNPR8660
012017022078BBDCC47     070BBDC  FM    PN      N1000R$  000000000006900000000000740000000000064000000000006800000000000740000000000000000000000014100012000000000000011600000000000000794000000000000336602017032000000010000000000000BRBBDCACNPR8659
012017022078BBDCC48     070BBDC        PN      N1000R$  000000000002200000000000260000000000015000000000002300000000000240000000000021000000000004900024000000000000027400000000000000642900000000000351602017032000000010000000000000BRBBDCACNPR8659
012017022078BBDCC50     070BBDC        PN      N1000R$  000000000000200000000000030000000000002000000000000200000000000030000000000002000000000001000003000000000000003100000000000000007300000000000371602017032000000010000000000000BRBBDCACNPR8660
012017022078BBDCC53     070BBDCE       PN      N1000R$  000000000007700000000000870000000000077000000000008300000000000860000000000000000000000000000007000000000000016600000000000001389500000000000334102017032000000010000000000000BRBBDCACNPR8656
012017022078BBDCC8      070BBDC  FM    PN      N1000R$  000000000026600000000002860000000000261000000000027000000000002860000000000000000000000000000047000000000000096100000000000025994500000000000306602017032000000010000000000000BRBBDCACNPR8656
012017022078BBDCC81     070BBDCE       PN      N1000R$  000000000061500000000006150000000000615000000000061500000000006150000000000000000000000000000001000000000000000100000000000000061500000000000272202017032000000010000000000000BRBBDCACNPR8645
012017022078BBDCD11     070BBDC  FM    PN      N1000R$  000000000026100000000002610000000000258000000000025900000000002580000000000000000000000000000002000000000000004200000000000001089900000000000316302017041700000010000000000000BRBBDCACNPR8655
012017022078BBDCD2      070BBDC  FM    PN      N1000R$  000000000017400000000001870000000000174000000000017800000000001870000000000000000000000022100005000000000000004200000000000000751200000000000326302017041700000010000000000000BRBBDCACNPR8656
012017022078BBDCD4      070BBDC  FM    PN      N1000R$  000000000008400000000000840000000000084000000000008400000000000840000000000000000000000014800001000000000000001200000000000000100800000000000346302017041700000010000000000000BRBBDCACNPR8659
012017022078BBDCD85     070BBDC  FM    PN      N1000R$  000000000005300000000000560000000000053000000000005500000000000560000000000000000000000000000003000000000000021000000000000001158000000000000356302017041700000010000000000000BRBBDCACNPR8659
012017022078BBDCH98     070BBDCE       ON      N1000R$  000000000012000000000001200000000000120000000000012000000000001200000000000000000000000000000001000000000000000600000000000000072000000000000373002017082100000010000000000000BRBBDCACNOR1648
012017022042BBDCN36E    013BBDCE       PN      N1000R$  000000000352100000000035210000000003521000000000352100000000035210000000000000000000000000000002000000000000001500000000000005281500000000000352102017022000000010000000000000BRBBDCACNPR8660
012017022042BBDCN3E     013BBDCE       PN      N1000R$  000000000329600000000032960000000003296000000000329600000000032960000000000000000000000000000001000000000000003300000000000010876800000000000329602017022000000010000000000000BRBBDCACNPR8660
012017022042BBDCN49E    013BBDCE       PN      N1000R$  000000000339600000000033960000000003396000000000339600000000033960000000000000000000000000000002000000000000005000000000000016980000000000000339602017022000000010000000000000BRBBDCACNPR8660
012017022082BBDCO21     080BBDCE       PN      N1000R$  000000000002100000000000210000000000021000000000002100000000000210000000000016000000000002400001000000000000000300000000000000006300000000000311602017032000000010000000000000BRBBDCACNPR8657
012017022082BBDCO23     080BBDCE FM    PN      N1000R$  000000000007200000000000730000000000072000000000007200000000000730000000000062000000000014900003000000000000000800000000000000058100000000000331602017032000000010000000000000BRBBDCACNPR8657
012017022082BBDCO30     080BBDCE       PN      N1000R$  000000000000100000000000010000000000001000000000000100000000000010000000000000000000000000000001000000000000003000000000000000003000000000000231302017032000000010000000000000BRBBDCACNPR8644
012017022082BBDCO32     080BBDCE       PN      N1000R$  000000000004600000000000460000000000046000000000004600000000000460000000000000000000000005000001000000000000001000000000000000046000000000000321602017032000000010000000000000BRBBDCACNPR8657
012017022082BBDCO41     080BBDCE FM    PN      N1000R$  000000000003600000000000360000000000030000000000003200000000000300000000000000000000000000000009000000000000033600000000000001085600000000000316602017032000000010000000000000BRBBDCACNPR8659
012017022082BBDCO74     080BBDCE       PN      N1000R$  000000000001200000000000120000000000012000000000001200000000000120000000000000000000000000000001000000000000000010000000000000000120000000000304102017032000000010000000000000BRBBDCACNPR8646
012017022082BBDCO8      080BBDCE FM    PN      N1000R$  000000000001900000000000190000000000015000000000001800000000000150000000000000000000000001700012000000000000024100000000000000457500000000000306602017032000000010000000000000BRBBDCACNPR8656
012017022082BBDCP2      080BBDCE FM    PN      N1000R$  000000000009400000000000940000000000092000000000009300000000000920000000000000000000000009700002000000000000020000000000000001870000000000000326302017041700000010000000000000BRBBDCACNPR8656
012017022082BBDCP29     080BBDCE FM    PN      N1000R$  000000000004300000000000430000000000043000000000004300000000000430000000000000000000000006000002000000000000020000000000000000860000000000000308802017041700000010000000000000BRBBDCACNPR8645
012017022012BBFI11B     010FII BB PROGRCI      MB   R$  000000025334100000002540000000000250155000000025111500000002505000000000250500000000025600000038000000000000000182000000000045703025000000000000009999123100000010000000000000BRBBFICTF006239
012017022012BBPO11      010FII BB PRGIICI           R$  000000001330100000000135000000000013301000000001339900000000135000000000013405000000001350002124000000000000031026000000000415728840000000000000009999123100000010000000000000BRBBPOCTF003151
012017022012BBRC11      010FII BB CORP CI           R$  000000001239900000000127000000000012399000000001248800000000127000000000012600000000001270000027000000000000001352000000000016883842000000000000009999123100000010000000000000BRBBRCCTF004165
012017022002BBRK3       010BR BROKERS  ON      NM   R$  000000000017600000000001790000000000175000000000017600000000001760000000000176000000000017800299000000000000190900000000000033732700000000000000009999123100000010000000000000BRBBRKACNOR4110
012017022014BBSD11      010BB ETF SP DVCI           R$  000000000495600000000050020000000004956000000000499000000000049980000000000000000000000000000005000000000000000090000000000000449150000000000000009999123100000010000000000000BRBBSDCTF000100
012017022002BBSE3       010BBSEGURIDADEON  EDR NM   R$  000000000287600000000028960000000002854000000000286700000000028800000000002880000000000288103035000000000001325000000000003799757900000000000000009999123100000010000000000000BRBBSEACNOR5108
012017022096BBSE3F      020BBSEGURIDADEON  EDR NM   R$  000000000286500000000028990000000002853000000000286300000000028850000000002867000000000288500127000000000000003706000000000010613254000000000000009999123100000010000000000000BRBBSEACNOR5108
012017022062BBSE3T      030BBSEGURIDADEON  EDR NM030R$  000000000288600000000028890000000002886000000000288800000000028890000000000000000000000000000010000000000000202000000000000583419429000000000000009999123100000010000000000000BRBBSEACNOR5108
012017022062BBSE3T      030BBSEGURIDADEON  EDR NM045R$  000000000291000000000029110000000002910000000000291000000000029110000000000000000000000000000012000000000000001000000000000002910110000000000000009999123100000010000000000000BRBBSEACNOR5108
012017022038BBSEB27E    012BBSE    /EDRON      NM000R$  000000000264900000000026490000000002649000000000264900000000026490000000000000000000000000000015000000000000038100000000000100926900000000000264902017022000000010000000000000BRBBSEACNOR5108
012017022038BBSEB28E    012BBSE    /EDRON      NM000R$  000000000274900000000027490000000002749000000000274900000000027490000000000000000000000000000029000000000000118400000000000325481600000000000274902017022000000010000000000000BRBBSEACNOR5108
012017022038BBSEB29E    012BBSE    /EDRON      NM000R$  000000000284900000000028490000000002849000000000284900000000028490000000000000000000000000000014000000000000032900000000000093732100000000000284902017022000000010000000000000BRBBSEACNOR5108
012017022038BBSEB56E    012BBSE    /EDRON      NM000R$  000000000259900000000025990000000002599000000000259900000000025990000000000000000000000000000021000000000000140400000000000364899600000000000259902017022000000010000000000000BRBBSEACNOR5108
012017022038BBSEB57E    012BBSE    /EDRON      NM000R$  000000000269900000000026990000000002699000000000269900000000026990000000000000000000000000000019000000000000070000000000000188930000000000000269902017022000000010000000000000BRBBSEACNOR5108
012017022038BBSEB58E    012BBSE    /EDRON      NM000R$  000000000279900000000027990000000002799000000000279900000000027990000000000000000000000000000010000000000000133900000000000374786100000000000279902017022000000010000000000000BRBBSEACNOR5108
012017022038BBSEB69E    012BBSEE   /EDRON      NM000R$  000000000282400000000028240000000002824000000000282400000000028240000000000000000000000000000009000000000000092400000000000260937600000000000282402017022000000010000000000000BRBBSEACNOR5108
012017022038BBSEB88E    012BBSEE   /EDRON      NM000R$  000000000277400000000027740000000002774000000000277400000000027740000000000000000000000000000003000000000000049200000000000136480800000000000277402017022000000010000000000000BRBBSEACNOR5108
012017022038BBSEB96E    012BBSEE   /EDRON      NM000R$  000000000237400000000023740000000002374000000000237400000000023740000000000000000000000000000002000000000000000600000000000001424400000000000237402017022000000010000000000000BRBBSEACNOR5108
012017022038BBSEB99E    012BBSEE   /EDRON      NM000R$  000000000267400000000026740000000002674000000000267400000000026740000000000000000000000000000011000000000000084500000000000225953000000000000267402017022000000010000000000000BRBBSEACNOR5108
012017022078BBSEC29     070BBSE    /EDRON      NM000R$  000000000016500000000001650000000000165000000000016500000000001650000000000045000000000000000001000000000000001000000000000000165000000000000274902017032000000010000000000000BRBBSEACNOR5106
012017022078BBSEC3      070BBSE  FM/EDRON      NM000R$  000000000003400000000000340000000000034000000000003400000000000340000000000000000000000004600001000000000000000500000000000000017000000000000299902017032000000010000000000000BRBBSEACNOR5107
012017022078BBSEC30     070BBSE    /EDRON      NM000R$  000000000005200000000000520000000000052000000000005200000000000520000000000030000000000005900001000000000000001000000000000000052000000000000294902017032000000010000000000000BRBBSEACNOR5107
012017022078BBSEC31     070BBSE    /EDRON      NM000R$  000000000002100000000000210000000000021000000000002100000000000210000000000000000000000000000001000000000000001500000000000000031500000000000304902017032000000010000000000000BRBBSEACNOR5107
012017022078BBSEC32     070BBSE    /EDRON      NM000R$  000000000001100000000000110000000000011000000000001100000000000110000000000000000000000000000001000000000000350000000000000003850000000000000314902017032000000010000000000000BRBBSEACNOR5107
012017022078BBSEC58     070BBSE  FM/EDRON      NM000R$  000000000013000000000001300000000000126000000000012900000000001260000000000000000000000000000002000000000000002200000000000000285600000000000279902017032000000010000000000000BRBBSEACNOR5107
012017022078BBSEC67     070BBSE  FM/EDRON      NM000R$  000000000020400000000002040000000000204000000000020400000000002040000000000000000000000000000001000000000000002000000000000000408000000000000269902017032000000010000000000000BRBBSEACNOR5107
012017022078BBSED31     070BBSE    /EDRON      NM000R$  000000000006700000000000670000000000067000000000006700000000000670000000000000000000000000000001000000000000001000000000000000067000000000000303202017041700000010000000000000BRBBSEACNOR5107
012017022078BBSED57     070BBSE  FM/EDRON      NM000R$  000000000026000000000002600000000000260000000000026000000000002600000000000000000000000000000001000000000000002000000000000000520000000000000268202017041700000010000000000000BRBBSEACNOR5107
012017022078BBSED59     070BBSE  FM/EDRON      NM000R$  000000000019000000000001900000000000187000000000018900000000001870000000000000000000000000000002000000000000003100000000000000586000000000000278202017041700000010000000000000BRBBSEACNOR5106
012017022078BBSED60     070BBSE  FM/EDRON      NM000R$  000000000008700000000000870000000000087000000000008700000000000870000000000000000000000000000001000000000000002100000000000000182700000000000298202017041700000010000000000000BRBBSEACNOR5107
012017022078BBSED69     070BBSE  FM/EDRON      NM000R$  000000000013200000000001320000000000132000000000013200000000001320000000000000000000000000000001000000000000002100000000000000277200000000000288202017041700000010000000000000BRBBSEACNOR5107
012017022082BBSEO27     080BBSEE   /EDRON      NM000R$  000000000001600000000000160000000000016000000000001600000000000160000000000000000000000001700001000000000000350000000000000005600000000000000264902017032000000010000000000000BRBBSEACNOR5107
012017022082BBSEO57     080BBSEE FM/EDRON      NM000R$  000000000000900000000000120000000000009000000000000900000000000120000000000000000000000000000003000000000000050300000000000000453600000000000259902017032000000010000000000000BRBBSEACNOR5106
012017022082BBSEO59     080BBSEE FM/EDRON      NM000R$  000000000008600000000000860000000000085000000000008500000000000850000000000000000000000000000004000000000000010000000000000000855800000000000289902017032000000010000000000000BRBBSEACNOR5107
012017022082BBSEO76     080BBSEE   /EDRON      NM000R$  000000000001000000000000100000000000010000000000001000000000000100000000000000000000000000000001000000000000003800000000000000038000000000000257402017032000000010000000000000BRBBSEACNOR5107
012017022082BBSEO77     080BBSEE       ON      NM000R$  000000000004100000000000420000000000041000000000004100000000000420000000000000000000000000000003000000000000350000000000000014455000000000000277402017032000000010000000000000BRBBSEACNOR5108
012017022002BBTG11      010BTG PACTUAL UNT          R$  000000000186100000000018830000000001840000000000186500000000018790000000001877000000000187900752000000000000215000000000000401019700000000000000009999123100000010000000000000BRBBTGUNT007116
012017022096BBTG11F     020BTG PACTUAL UNT          R$  000000000186100000000018810000000001851000000000186600000000018790000000001861000000000190000037000000000000001091000000000002036731000000000000009999123100000010000000000000BRBBTGUNT007116
012017022002BBTG12      010BTG PACTUAL UNT          R$  000000000009900000000001190000000000092000000000010100000000001000000000000098000000000010401267000000000003996300000000000404741000000000000000009999123100000010000000000000BRBBTGUNT015100
012017022096BBTG12F     020BTG PACTUAL UNT          R$  000000000009700000000001040000000000097000000000009700000000001040000000000104000000000000000006000000000000000139000000000000013594000000000000009999123100000010000000000000BRBBTGUNT015100
012017022012BBVJ11      010FII C JARDIMCI           R$  000000000560100000000056290000000005566000000000558000000000056290000000005565000000000562900019000000000000000790000000000004408707000000000000009999123100000010000000000000BRBBVJCTF001174
012017022012BCFF11B     010FII BC FFII CI      MB   R$  000000000722700000000072800000000007149000000000720100000000072500000000007180000000000725000063000000000000005455000000000039281699000000000000009999123100000010000000000000BRBCFFCTF000183
012017022012BCRI11      010FII BEES CRICI           R$  000000001150000000000116000000000011450000000001149700000000114500000000011451000000001150000085000000000000004329000000000049773643000000000000009999123100000010000000000000BRBCRICTF009120
012017022002BDLL4       010BARDELLA    PN           R$  000000000365000000000036600000000003501000000000361200000000036600000000003660000000000390000012000000000000001800000000000006501800000000000000009999123100000010000000000000BRBDLLACNPR8151
012017022002BEEF3       010MINERVA     ON      NM   R$  000000000119700000000011970000000001167000000000117500000000011670000000001167000000000117102145000000000000546600000000000642489500000000000000009999123100000010000000000000BRBEEFACNOR6106
012017022096BEEF3F      020MINERVA     ON      NM   R$  000000000120000000000012000000000001171000000000117900000000011740000000001170000000000119000020000000000000000468000000000000551848000000000000009999123100000010000000000000BRBEEFACNOR6106
012017022002BEES3       010BANESTES    ON           R$  000000000032300000000003360000000000319000000000032600000000003300000000000330000000000033500054000000000000038000000000000012420900000000000000009999123100000010000000000000BRBEESACNOR9291
012017022096BEES3F      020BANESTES    ON           R$  000000000032000000000003280000000000320000000000032300000000003280000000000305000000000038400004000000000000000131000000000000042400000000000000009999123100000010000000000000BRBEESACNOR9291
012017022002BEES4       010BANESTES    PN           R$  000000000038000000000003800000000000378000000000037800000000003780000000000361000000000037600004000000000000000700000000000000264800000000000000009999123100000010000000000000BRBEESACNPR6216
012017022002BGIP3       010BANESE      ON           R$  000000000186000000000018820000000001860000000000187600000000018820000000001880000000000195500002000000000000000400000000000000750600000000000000009999123100000010000000000000BRBGIPACNOR1187
012017022002BGIP4       010BANESE      PN           R$  000000000191200000000019610000000001910000000000191900000000019610000000001946000000000197700014000000000000003500000000000006716900000000000000009999123100000010000000000000BRBGIPACNPR8187
012017022096BGIP4F      020BANESE      PN           R$  000000000199700000000019970000000001997000000000199700000000019970000000001962000000000199700002000000000000000020000000000000039940000000000000009999123100000010000000000000BRBGIPACNPR8187
012017022002BIOM3       010BIOMM       ON      MA   R$  000000000070000000000007000000000000700000000000070000000000007000000000000655000000000070000001000000000000000200000000000000140000000000000000009999123100000010000000000000BRBIOMACNOR2104
012017022002BMEB4       010MERC BRASIL PN           R$  000000000050900000000005090000000000505000000000050700000000005050000000000496000000000050500008000000000000004400000000000002232200000000000000009999123100000010000000000000BRBMEBACNPR5196
012017022002BMIN4       010MERC INVEST PN           R$  000000000005300000000000550000000000052000000000005300000000000530000000000052000000000005300142000000000000839000000000000044691000000000000000009999123100000010000000000000BRBMINACNPR1165
012017022096BMIN4F      020MERC INVEST PN           R$  000000000005400000000000560000000000052000000000005400000000000520000000000052000000000005500017000000000000003604000000000000194996000000000000009999123100000010000000000000BRBMINACNPR1165
012017022012BMLC11B     010FII BMBRC LCCI      MB   R$  000000000858500000000086500000000008585000000000861700000000086500000000008600000000000884500048000000000000002480000000000021372315000000000000009999123100000010000000000000BRBMLCCTF004160
012017022002BNBR3       010NORD BRASIL ON           R$  000000000274900000000028200000000002749000000000276000000000028200000000002756000000000282000015000000000000006400000000000017666900000000000000009999123100000010000000000000BRBNBRACNOR8193
012017022002BOBR4       010BOMBRIL     PN           R$  000000000022500000000002300000000000224000000000022700000000002290000000000226000000000022900065000000000000050900000000000011596800000000000000009999123100000010000000000000BRBOBRACNPR3128
012017022096BOBR4F      020BOMBRIL     PN           R$  000000000023800000000002380000000000238000000000023800000000002380000000000208000000000022700001000000000000000005000000000000001190000000000000009999123100000010000000000000BRBOBRACNPR3128
012017022014BOVA11      010ISHARES BOVACI  ATZ      R$  000000000658700000000066490000000006573000000000662300000000066350000000006635000000000664002403000000000001226730000000008125299820000000000000009999123100000010000000000000BRBOVACTF003103
012017022096BOVA11F     020ISHARES BOVACI  ATZ      R$  000000000660300000000066490000000006595000000000661500000000066480000000006632000000000670000014000000000000000047000000000000310934000000000000009999123100000010000000000000BRBOVACTF003103
012017022038BOVAB10E    012BOVAE   /ATZCI        000R$  000000000605000000000060500000000006050000000000605000000000060500000000000000000000000000000001000000000000024000000000000145200000000000000605002017022000000010000000000000BRBOVACTF003103
012017022038BOVAB11E    012BOVAE   /ATZCI        000R$  000000000615000000000061500000000006150000000000615000000000061500000000000000000000000000000008000000000000017710000000000108916500000000000615002017022000000010000000000000BRBOVACTF003103
012017022038BOVAB25E    012BOVAE   /ATZCI        000R$  000000000655000000000065500000000006550000000000655000000000065500000000000000000000000000000002000000000000007600000000000049780000000000000655002017022000000010000000000000BRBOVACTF003103
012017022078BOVAB37     070BOVA    /ATZCI        000R$  000000000015900000000001590000000000159000000000015900000000001590000000000000000000000000000002000000000000005310000000000000844290000000000770002018021900000010000000000000BRBOVACTF003102
012017022038BOVAB55E    012BOVA    /ATZCI        000R$  000000000550000000000055000000000005500000000000550000000000055000000000000000000000000000000001000000000000007850000000000043175000000000000550002017022000000010000000000000BRBOVACTF003103
012017022038BOVAB56E    012BOVA    /ATZCI        000R$  000000000560000000000056000000000005600000000000560000000000056000000000000000000000000000000001000000000000031900000000000178640000000000000560002017022000000010000000000000BRBOVACTF003103
012017022038BOVAB57E    012BOVA    /ATZCI        000R$  000000000570000000000057000000000005700000000000570000000000057000000000000000000000000000000002000000000000014600000000000083220000000000000570002017022000000010000000000000BRBOVACTF003103
012017022038BOVAB58E    012BOVA    /ATZCI        000R$  000000000580000000000058000000000005800000000000580000000000058000000000000000000000000000000002000000000000037900000000000219820000000000000580002017022000000010000000000000BRBOVACTF003103
012017022038BOVAB59E    012BOVA    /ATZCI        000R$  000000000590000000000059000000000005900000000000590000000000059000000000000000000000000000000009000000000000029490000000000173991000000000000590002017022000000010000000000000BRBOVACTF003103
012017022038BOVAB60E    012BOVA    /ATZCI        000R$  000000000600000000000060000000000006000000000000600000000000060000000000000000000000000000000006000000000000078780000000000472680000000000000600002017022000000010000000000000BRBOVACTF003103
012017022038BOVAB62E    012BOVA    /ATZCI        000R$  000000000620000000000062000000000006200000000000620000000000062000000000000000000000000000000012000000000000379510000000002352962000000000000620002017022000000010000000000000BRBOVACTF003103
012017022038BOVAB63E    012BOVA    /ATZCI        000R$  000000000630000000000063000000000006300000000000630000000000063000000000000000000000000000000012000000000000259890000000001637307000000000000630002017022000000010000000000000BRBOVACTF003103
012017022038BOVAB64E    012BOVA    /ATZCI        000R$  000000000640000000000064000000000006400000000000640000000000064000000000000000000000000000000013000000000000125000000000000800000000000000000640002017022000000010000000000000BRBOVACTF003103
012017022038BOVAB65E    012BOVA    /ATZCI        000R$  000000000650000000000065000000000006500000000000650000000000065000000000000000000000000000000013000000000002097900000000013636350000000000000650002017022000000010000000000000BRBOVACTF003103
012017022038BOVAB66E    012BOVA    /ATZCI        000R$  000000000660000000000066000000000006600000000000660000000000066000000000000000000000000000000004000000000000028600000000000188760000000000000660002017022000000010000000000000BRBOVACTF003103
012017022038BOVAB69E    012BOVA    /ATZCI        000R$  000000000490000000000049000000000004900000000000490000000000049000000000000000000000000000000002000000000000036500000000000178850000000000000490002017022000000010000000000000BRBOVACTF003103
012017022038BOVAB6E     012BOVA    /ATZCI        000R$  000000000610000000000061000000000006100000000000610000000000061000000000000000000000000000000004000000000000125750000000000767075000000000000610002017022000000010000000000000BRBOVACTF003103
012017022078BOVAB7      070BOVAE   /ATZCI        000R$  000000000013800000000001380000000000138000000000013800000000001380000000000000000000000000000001000000000000003800000000000000524400000000000775002018021900000010000000000000BRBOVACTF003103
012017022078BOVAC61     070BOVA    /ATZCI        000R$  000000000057700000000005850000000000577000000000057900000000005850000000000000000000000000000004000000000000006200000000000003592000000000000610002017032000000010000000000000BRBOVACTF003102
012017022078BOVAC62     070BOVA    /ATZCI        000R$  000000000047700000000004770000000000477000000000047700000000004770000000000000000000000000000001000000000000000600000000000000286200000000000620002017032000000010000000000000BRBOVACTF003102
012017022078BOVAC64     070BOVA  FM    CI        000R$  000000000029900000000003240000000000299000000000031300000000003240000000000000000000000000000004000000000000011300000000000003546200000000000640002017032000000010000000000000BRBOVACTF003102
012017022078BOVAC65     070BOVA  FM    CI        000R$  000000000022600000000002460000000000222000000000022500000000002460000000000000000000000000000005000000000000004300000000000000969400000000000650002017032000000010000000000000BRBOVACTF003102
012017022078BOVAC66     070BOVA  FM    CI        000R$  000000000016400000000001830000000000164000000000017400000000001800000000000000000000000018300006000000000000006380000000000001110940000000000660002017032000000010000000000000BRBOVACTF003102
012017022078BOVAC67     070BOVA  FM    CI        000R$  000000000011200000000001250000000000111000000000011600000000001250000000000028000000000012500017000000000000005420000000000000633030000000000670002017032000000010000000000000BRBOVACTF003102
012017022078BOVAC68     070BOVA  FM    CI        000R$  000000000007200000000000840000000000072000000000007500000000000830000000000000000000000000000004000000000000007500000000000000569500000000000680002017032000000010000000000000BRBOVACTF003102
012017022078BOVAD64     070BOVA  FM    CI        000R$  000000000039200000000004210000000000389000000000040800000000004210000000000000000000000000000005000000000000012100000000000004937000000000000640002017041700000010000000000000BRBOVACTF003102
012017022078BOVAD65     070BOVA  FM    CI        000R$  000000000032800000000003280000000000328000000000032800000000003280000000000000000000000000000002000000000000005000000000000001640000000000000650002017041700000010000000000000BRBOVACTF003102
012017022078BOVAD66     070BOVA  FM    CI        000R$  000000000026400000000002640000000000260000000000026300000000002600000000000000000000000035000003000000000000004750000000000001253400000000000660002017041700000010000000000000BRBOVACTF003102
012017022078BOVAD67     070BOVA  FM    CI        000R$  000000000020800000000002080000000000208000000000020800000000002080000000000000000000000000000001000000000000002500000000000000520000000000000670002017041700000010000000000000BRBOVACTF003102
012017022078BOVAD68     070BOVA  FM    CI        000R$  000000000016500000000001650000000000165000000000016500000000001650000000000000000000000000000001000000000000000120000000000000019800000000000680002017041700000010000000000000BRBOVACTF003102
012017022082BOVAN36     080BOVAE   /ATZCI        000R$  000000000013500000000001350000000000135000000000013500000000001350000000000000000000000000000001000000000000003800000000000000513000000000000600002018021900000010000000000000BRBOVACTF003103
012017022082BOVAN99     080BOVAE   /ATZCI        000R$  000000000013200000000001560000000000132000000000015500000000001560000000000000000000000000000002000000000000005310000000000000828120000000000590002018021900000010000000000000BRBOVACTF003103
012017022082BOVAO65     080BOVAE FM    CI        000R$  000000000006700000000000670000000000060000000000006100000000000610000000000061000000000006300005000000000000004600000000000000284200000000000650002017032000000010000000000000BRBOVACTF003102
012017022082BOVAO66     080BOVAE FM    CI        000R$  000000000010500000000001060000000000091000000000010000000000000910000000000085000000000009900013000000000000017100000000000001718500000000000660002017032000000010000000000000BRBOVACTF003102
012017022082BOVAP64     080BOVAE FM    CI        000R$  000000000009300000000000930000000000093000000000009300000000000930000000000077000000000000000001000000000000000500000000000000046500000000000640002017041700000010000000000000BRBOVACTF003102
012017022082BOVAP66     080BOVAE FM    CI        000R$  000000000015900000000001590000000000159000000000015900000000001590000000000000000000000000000001000000000000000300000000000000047700000000000660002017041700000010000000000000BRBOVACTF003102
012017022082BOVAX65     080BOVAE   /ATZCI        000R$  000000000036800000000003690000000000368000000000036800000000003690000000000000000000000000000003000000000000003000000000000001105500000000000650002017121800000010000000000000BRBOVACTF003103
012017022014BOVV11      010IT NOW IBOV CI           R$  000000000685700000000068570000000006857000000000685700000000068570000000006857000000000750000004000000000000024800000000000170053600000000000000009999123100000010000000000000BRBOVVCTF009100
012017022002BPAN4       010BANCO PAN   PN      N1   R$  000000000026800000000002800000000000265000000000027400000000002710000000000270000000000027300441000000000000788400000000000216551600000000000000009999123100000010000000000000BRBPANACNPR1104
012017022096BPAN4F      020BANCO PAN   PN      N1   R$  000000000029700000000002970000000000270000000000027600000000002710000000000271000000000027600018000000000000000521000000000000144198000000000000009999123100000010000000000000BRBPANACNPR1104
012017022012BPFF11      010FII ABSOLUTOCI           R$  000000000917000000000091700000000009024000000000908100000000091600000000009058000000000916000040000000000000002086000000000018943124000000000000009999123100000010000000000000BRBPFFCTF002146
012017022002BPHA3       010BR PHARMA   ON      NM   R$  000000000080000000000008100000000000755000000000077600000000007650000000000765000000000076900541000000000000315000000000000244649200000000000000009999123100000010000000000000BRBPHAACNOR6104
012017022096BPHA3F      020BR PHARMA   ON      NM   R$  000000000079000000000007900000000000769000000000077700000000007850000000000760000000000078400011000000000000000329000000000000255734000000000000009999123100000010000000000000BRBPHAACNOR6104
012017022062BPHA3T      030BR PHARMA   ON      NM031R$  000000000077600000000007770000000000776000000000077600000000007770000000000000000000000000000002000000000000000700000000000000543567000000000000009999123100000010000000000000BRBPHAACNOR6104
012017022002BRAP3       010BRADESPAR   ON      N1   R$  000000000235000000000023500000000002171000000000224600000000022540000000002250000000000225400571000000000000263100000000000591014500000000000000009999123100000010000000000000BRBRAPACNOR5130
012017022096BRAP3F      020BRADESPAR   ON      N1   R$  000000000190000000000023100000000001900000000000213400000000022500000000002205000000000225000055000000000000001193000000000002546462000000000000009999123100000010000000000000BRBRAPACNOR5130
012017022002BRAP4       010BRADESPAR   PN      N1   R$  000000000273300000000027350000000002596000000000265000000000026590000000002659000000000266018496000000000009114200000000024153848500000000000000009999123100000010000000000000BRBRAPACNPR2130
012017022096BRAP4F      020BRADESPAR   PN      N1   R$  000000000229800000000027320000000002298000000000263400000000026630000000002655000000000266300338000000000000010470000000000027583774000000000000009999123100000010000000000000BRBRAPACNPR2130
012017022062BRAP4T      030BRADESPAR   PN      N1030R$  000000000268200000000026830000000002682000000000268200000000026830000000000000000000000000000002000000000000025000000000000067066627000000000000009999123100000010000000000000BRBRAPACNPR2130
012017022062BRAP4T      030BRADESPAR   PN      N1031R$  000000000265800000000026590000000002658000000000265800000000026590000000000000000000000000000002000000000000015000000000000039872728000000000000009999123100000010000000000000BRBRAPACNPR2130
012017022062BRAP4T      030BRADESPAR   PN      N1063R$  000000000270700000000027080000000002707000000000270700000000027080000000000000000000000000000002000000000000050000000000000135356395000000000000009999123100000010000000000000BRBRAPACNPR2130
