00ROPC9999BOVESPA 99992017030320170303                                                                                                                          
01BRAP        PN      N1201703203417000070BRAPC97     000000010000000000961000000000000000000000000000000000000000500000000000000500000000000100000011292ACN    
01BRAP        PN      N1201703200124000070BRAPC79     000000010000000001901000000000006700000000000000000000000000000000000000000006700000000100000011302ACN    
01BRAP        PN      N1201703200108000070BRAPC61     000000010000000002101000000000000000000000000000000000000000030500000000000030500000000100000011302ACN    
01BRAP        PN      N1201703200035000070BRAPC71     000000010000000002151000000000000000000000000000000000000000046700000000000046700000000200000021302ACN    
01BRAP        PN      N1201703200132000070BRAPC74     000000010000000002401000000000000000000000000000000000000000055300000000000055300000000100000011302ACN    
01BRFS        ON      NM201703200965000070BRFSC93     000000010000000005083000000000000000000000000005800000000000018100000000000023900000000300000021152ACN    
01BRFS        ON      NM201703201015000070BRFSC4      000000010000000005183000000000000000000000000026000000000000025600000000000051600000000500000031152ACN    
01BRFS        ON      NM201703200973000070BRFSC94     000000010000000005883000000000005800000000000005800000000000000000000000000011600000000100000011152ACN    
01BRFS        ON      NM201703201023000070BRFSC30     000000010000000005983000000000010600000000000010600000000000000000000000000021200000000100000021152ACN    
01BRFS        ON      NM201703200841000070BRFSC46     000000010000000006583000000000000000000000000000100000000000000000000000000000100000000100000011152ACN    
01BRFS        ON      NM201703201848000070BRFSC40     000000010000000004008000000000000000000000000002000000000000000000000000000002000000000400000011171ACN    
01BRFS        ON      NM201703203352000070BRFSC41     000000010000000004108000000000017300000000000000000000000000000700000000000018000000000600000051171ACN    
01BRFS        ON      NM201703202186000070BRFSC42     000000010000000004208000000000011900000000000010600000000000021100000000000043600000000700000111171ACN    
01BRFS        ON      NM201703202208000070BRFSC43     000000010000000004308000000000003000000000000106500000000000003500000000000113000000001000000091171ACN    
01BRFS        ON      NM201703202216000070BRFSC13     000000010000000004358000000000040800000000000010000000000000031400000000000082200000000800000181171ACN    
01BRFS        ON      NM201703202224000070BRFSC44     000000010000000004408000000000008900000000000062500000000000199100000000000270500000000900000161171ACN    
01BRFS        ON      NM201703202232000070BRFSC14     000000010000000004458000000000016100000000000012500000000000015100000000000043700000000900000141171ACN    
01BRFS        ON      NM201703202240000070BRFSC45     000000010000000004508000000000046300000000000055000000000000017100000000000118400000001200000131171ACN    
01BRFS        ON      NM201703202259000070BRFSC15     000000010000000004558000000000004700000000000097200000000000054500000000000156400000001100000091171ACN    
01BRFS        ON      NM201703203166000070BRFSC25     000000010000000004583000000000000000000000000000400000000000000100000000000000500000000100000031172ACN    
01BRFS        ON      NM201703202267000070BRFSC6      000000010000000004608000000000016900000000000000000000000000000700000000000017600000000200000101171ACN    
01BRFS        ON      NM201703202275000070BRFSC16     000000010000000004658000000000001600000000000016500000000000001300000000000019400000001000000091171ACN    
01BRFS        ON      NM201703202283000070BRFSC47     000000010000000004708000000000000400000000000010200000000000007400000000000018000000000400000081171ACN    
01BRFS        ON      NM201703202291000070BRFSC7      000000010000000004758000000000004100000000000023000000000000307400000000000334500000001000000131171ACN    
01BRFS        ON      NM201703202305000070BRFSC48     000000010000000004808000000000001000000000000005300000000000001900000000000008200000000500000051171ACN    
01BRFS        ON      NM201703202313000070BRFSC18     000000010000000004858000000000000000000000000113500000000000002500000000000116000000000400000051171ACN    
01BRFS        ON      NM201703202321000070BRFSC49     000000010000000004908000000000000000000000000318100000000000014400000000000332500000000600000031171ACN    
01BRFS        ON      NM201703202330000070BRFSC19     000000010000000004958000000000000000000000000008800000000000083100000000000091900000000600000081171ACN    
01BRFS        ON      NM201703203301000070BRFSC29     000000010000000004983000000000000000000000000100000000000000003500000000000103500000000400000021172ACN    
01BRFS        ON      NM201703202348000070BRFSC50     000000010000000005033000000000001500000000000000000000000000000500000000000002000000000100000031171ACN    
01BRFS        ON      NM201703202364000070BRFSC52     000000010000000005233000000000000000000000000005100000000000010400000000000015500000000400000031171ACN    
01BRFS        ON      NM201703202380000070BRFSC55     000000010000000005533000000000000000000000000000300000000000000000000000000000300000000100000011171ACN    
01BRFS        ON      NM201703201864000070BRFSC58     000000010000000005833000000000000000000000000000000000000000300000000000000300000000000100000011171ACN    
01BRFS  FM    ON      NM201703203417000070BRFSC68     000000010000000003858000000000000000000000000002500000000000000000000000000002500000000100000011171ACN    
01BRFS  FM    ON      NM201703203433000070BRFSC9      000000010000000003958000000000004300000000000008800000000000003000000000000016100000000300000041171ACN    
01BRFS  FM    ON      NM201703203344000070BRFSC20     000000010000000004058000000000009100000000000000100000000000001000000000000010200000000600000081171ACN    
01BRFS  FM    ON      NM201703202178000070BRFSC11     000000010000000004158000000000037400000000000014100000000000012400000000000063900000001400000101171ACN    
01BRFS  FM    ON      NM201703202194000070BRFSC12     000000010000000004258000000000095300000000000089600000000000038000000000000222900000001500000201171ACN    
01BRIN        ON      NM201703200302000070BRINC79     000000010000000001925000000000135000000000000000000000000000028000000000000163000000000200000041112ACN    
01BRKM        PNA     N1201703200191000070BRKMC51     000000010000000002198000000000751000000000000000000000000000000000000000000751000000000300000011141ACN    
01BRKM        PNA     N1201703200221000070BRKMC11     000000010000000003173000000001205000000000000000000000000000000000000000001205000000000300000011142ACN    
01BRKM        PNA     N1201703200230000070BRKMC10     000000010000000004098000000000002000000000000000000000000000000000000000000002000000000100000011141ACN    
01BRML        ON      NM201703203123000070BRMLC6      000000010000000001231000000000002000000000000352100000000000005700000000000359800000002200000061081ACN    
01BRML        ON      NM201703203093000070BRMLC87     000000010000000001346000000000000000000000000157100000000000471900000000000629000000000300000031081ACN    
01BRML        ON      NM201703203131000070BRMLC78     000000010000000001442000000000000000000000000000000000000000237900000000000237900000000100000011082ACN    
01BRML        ON      NM201703202224000070BRMLC95     000000010000000000955000000000000000000000000157000000000008950000000000009107000000000200000181091ACN    
01BRML        ON      NM201703202283000070BRMLC42     000000010000000001281000000000000000000000000000200000000000000000000000000000200000000100000011091ACN    
01BRML        ON      NM201703202291000070BRMLC43     000000010000000001396000000000000000000000000132800000000000083400000000000216200000000200000031091ACN    
01BRML        ON      NM201703202895000070BRMLC75     000000010000000001592000000000000000000000000016600000000002400100000000002416700000000600000041092ACN    
01BRML        ON      NM201703203247000070BRMLC76     000000010000000001692000000000000000000000000000000000000002000000000000002000000000000200000041092ACN    
01BRML        ON      NM201703202356000070BRMLC17     000000010000000001717000000000000000000000000007000000000000000000000000000007000000000500000031091ACN    
01BRML  FM    ON      NM201703202305000070BRMLC44     000000010000000001467000000000003000000000000019200000000000004600000000000026800000000100000031091ACN    
01BRML  FM    ON      NM201703202313000070BRMLC15     000000010000000001517000000000001700000000000152800000000000001700000000000156200000000500000111091ACN    
01BRML  FM    ON      NM201703202321000070BRMLC45     000000010000000001567000000000001000000000000017300000000000000800000000000019100000000600000041091ACN    
01BRML  FM    ON      NM201703202330000070BRMLC16     000000010000000001617000000000000000000000000189810000000000051790000000000241600000001100000041091ACN    
01BRML  FM    ON      NM201703202348000070BRMLC46     000000010000000001667000000000000000000000000000000000000000007500000000000007500000000300000011091ACN    
01BVMF        ON      NM201703200612000070BVMFC1      000000010000000000957000000000000000000000000060000000000000000000000000000060000000000300000011361ACN    
01BVMF        ON      NM201703200620000070BVMFC31     000000010000000001132000000000119900000000000001000000000000000000000000000120900000000200000031362ACN    
01BVMF        ON      NM201703200906000070BVMFC24     000000010000000001357000000000090000000000000000000000000000004200000000000094200000000200000031361ACN    
01BVMF        ON      NM201703201066000070BVMFC54     000000010000000001382000000000001000000000000000000000000000000000000000000001000000000100000011362ACN    
01BVMF        ON      NM201703201058000070BVMFC27     000000010000000001732000000000007700000000000000000000000000000000000000000007700000000100000011362ACN    
01BVMF        ON      NM201703202143000070BVMFC22     000000010000000002157000000000063300000000000867600000000000607700000000001538600000009200001541361ACN    
01BVMF        ON      NM201703200221000070BVMFC65     000000010000000001482000000000000000000000000000000000000000075000000000000075000000000300000021382ACN    
01BVMF        ON      NM201703200108000070BVMFC12     000000010000000001207000000000406400000000000000000000000000000000000000000406400000000200000021391ACN    
01BVMF        ON      NM201703200132000070BVMFC14     000000010000000001407000000000000500000000000000000000000000000000000000000000500000000100000011391ACN    
01BVMF        ON      NM201703200035000070BVMFC45     000000010000000001532000000000000000000000000000000000000000090000000000000090000000000100000011392ACN    
01BVMF        ON      NM201703200167000070BVMFC25     000000010000000001557000000000005600000000000147600000000000214800000000000368000000000200000051391ACN    
01BVMF        ON      NM201703200175000070BVMFC16     000000010000000001607000000000000000000000000000000000000000000100000000000000100000000100000011391ACN    
01BVMF        ON      NM201703200183000070BVMFC46     000000010000000001657000000000002000000000000004400000000000026000000000000032400000000300000061391ACN    
01BVMF        ON      NM201703200191000070BVMFC17     000000010000000001707000000000005100000000000017300000000000596000000000000618400000000400000091391ACN    
01BVMF        ON      NM201703200205000070BVMFC47     000000010000000001757000000000011200000000000015000000000000019500000000000045700000000200000061391ACN    
01BVMF        ON      NM201703200329000070BVMFC78     000000010000000001782000000000002000000000000000000000000000003300000000000005300000000200000041392ACN    
01BVMF        ON      NM201703200213000070BVMFC18     000000010000000001807000000000111300000000000042100000000000002800000000000156200000000800000141391ACN    
01BVMF        ON      NM201703200248000070BVMFC60     000000010000000002032000000000595000000000000009900000000000330700000000000935600000004200000281391ACN    
01BVMF        ON      NM201703200027000070BVMFC51     000000010000000002132000000000010300000000000034400000000000008100000000000052800000001100000181391ACN    
01BVMF        ON      NM201703200264000070BVMFC2      000000010000000002207000000000001200000000000011000000000000008200000000000020400000000200000041391ACN    
01BVMF        ON      NM201703200272000070BVMFC52     000000010000000002257000000000000000000000000017300000000000000000000000000017300000000400000031391ACN    
01BVMF        ON      NM201703200280000070BVMFC23     000000010000000002307000000000000000000000000019700000000000001000000000000020700000000500000041391ACN    
01BVMF        ON      NM201703200957000070BVMFC71     000000010000000001182000000000350000000000000000100000000000000000000000000350100000000100000021402ACN    
01BVMF        ON      NM201703200647000070BVMFC9      000000010000000001907000000000000800000000001861800000000000025700000000001888300000000400000081402ACN    
01BVMF        ON      NM201703201015000070BVMFC80     000000010000000002007000000000040400000000000128000000000000004400000000000172800000000200000101402ACN    
01BVMF        ON      NM201703200604000070BVMFC70     000000010000000002057000000000003300000000000131900000000000051900000000000187100000000500000071402ACN    
01BVMF  FM    ON      NM201703200019000070BVMFC19     000000010000000001882000000000038400000000000074100000000000533900000000000646400000001700000441391ACN    
01BVMF  FM    ON      NM201703200221000070BVMFC49     000000010000000001932000000000130300000000000753400000000000003800000000000887500000002000000261391ACN    
01BVMF  FM    ON      NM201703200230000070BVMFC20     000000010000000001982000000000148100000000000516700000000000577300000000001242100000004600000541391ACN    
01BVMF  FM    ON      NM201703200256000070BVMFC21     000000010000000002082000000000015000000000000425300000000000013100000000000453400000004900000311391ACN    
01BVMF  FM    ON      NM201703200639000070BVMFC48     000000010000000001857000000000006700000000000053600000000000173000000000000233300000000300000181401ACN    
01CCRO        ON      NM201703200868000070CCROC66     000000010000000001580000000000001000000000000170600000000000011200000000000182800000000300000041281ACN    
01CCRO        ON      NM201703200256000070CCROC15     000000010000000001530000000000000000000000000044800000000000000000000000000044800000000200000011301ACN    
01CCRO        ON      NM201703200264000070CCROC16     000000010000000001630000000000000100000000000055000000000000000500000000000055600000000200000031301ACN    
01CCRO        ON      NM201703200817000070CCROC76     000000010000000001655000000000000000000000000001000000000000000100000000000001100000000200000021302ACN    
01CCRO        ON      NM201703200272000070CCROC46     000000010000000001680000000000001700000000000001100000000000360000000000000362800000000200000081301ACN    
01CCRO        ON      NM201703200280000070CCROC17     000000010000000001730000000000000600000000000043300000000000000100000000000044000000000100000041301ACN    
01CCRO        ON      NM201703200345000070CCROC20     000000010000000002030000000000000000000000000005000000000000000000000000000005000000000100000011301ACN    
01CCRO  FM    ON      NM201703200299000070CCROC47     000000010000000001780000000000012300000000000001400000000000000000000000000013700000000200000031301ACN    
01CCRO  FM    ON      NM201703200302000070CCROC18     000000010000000001830000000000128100000000000052600000000000102400000000000283100000000500000111301ACN    
01CCRO  FM    ON      NM201703200310000070CCROC48     000000010000000001880000000000008000000000000206200000000000064000000000000278200000000400000061301ACN    
01CCRO  FM    ON      NM201703200329000070CCROC19     000000010000000001930000000000004200000000000039100000000000000400000000000043700000000300000051301ACN    
01CCRO  FM    ON      NM201703200337000070CCROC49     000000010000000001980000000000000000000000000028600000000000000000000000000028600000000300000021301ACN    
01CESP        PNB     N1201703200043000070CESPC74     000000010000000001475000000000000000000000000000000000000000000300000000000000300000000100000011242ACN    
01CIEL        ON      NM201703202348000070CIELC86     000000010000000002963000000000000000000000000000000000000000001000000000000001000000000100000011182ACN    
01CIEL        ON      NM201703200833000070CIELC53     000000010000000002379000000000000000000000000006600000000000000000000000000006600000000100000011211ACN    
01CIEL        ON      NM201703200850000070CIELC54     000000010000000002479000000000000000000000000005600000000000000000000000000005600000000200000011211ACN    
01CIEL        ON      NM201703200868000070CIELC25     000000010000000002529000000000000400000000000000000000000000000600000000000001000000000100000031211ACN    
01CIEL        ON      NM201703200876000070CIELC55     000000010000000002579000000000003600000000000010300000000000000000000000000013900000000100000061211ACN    
01CIEL        ON      NM201703200744000070CIELC26     000000010000000002629000000000005800000000000000000000000000000600000000000006400000000300000061211ACN    
01CIEL        ON      NM201703200892000070CIELC27     000000010000000002729000000000052000000000000050000000000000194500000000000296500000000600000081211ACN    
01CIEL        ON      NM201703200906000070CIELC28     000000010000000002829000000000034800000000000006700000000000253400000000000294900000001000000321211ACN    
01CIEL        ON      NM201703200787000070CIELC78     000000010000000002854000000000000600000000000014400000000000002000000000000017000000000200000041212ACN    
01CIEL        ON      NM201703201201000070CIELC9      000000010000000002904000000000000600000000000005000000000000732000000000000737600000000600000111212ACN    
01CIEL        ON      NM201703200922000070CIELC29     000000010000000002929000000000010900000000000014200000000000345700000000000370800000001100000331211ACN    
01CIEL        ON      NM201703200930000070CIELC30     000000010000000003038000000000019300000000000005500000000000019100000000000043900000000900000201211ACN    
01CIEL        ON      NM201703200760000070CIELC61     000000010000000003113000000000000000000000000422800000000000022200000000000445000000000500000051212ACN    
01CIEL        ON      NM201703200957000070CIELC31     000000010000000003138000000000000000000000000000700000000000000300000000000001000000000100000021211ACN    
01CIEL        ON      NM201703200965000070CIELC1      000000010000000003188000000000012700000000000035600000000000000000000000000048300000000200000061211ACN    
01CIEL        ON      NM201703200973000070CIELC32     000000010000000003238000000000000000000000000003000000000000000000000000000003000000000100000011211ACN    
01CIEL        ON      NM201703201090000070CIELC81     000000010000000004113000000000000000000000000460000000000000000000000000000460000000000300000021212ACN    
01CIEL        ON      NM201703200540000070CIELC65     000000010000000002554000000000000000000000000100000000000000000000000000000100000000000200000021222ACN    
01CIEL        ON      NM201703200558000070CIELC66     000000010000000002654000000000000000000000000125000000000000025000000000000150000000000200000021222ACN    
01CIEL  FM    ON      NM201703200884000070CIELC56     000000010000000002679000000000020200000000000027200000000000009900000000000057300000000300000121211ACN    
01CIEL  FM    ON      NM201703200752000070CIELC57     000000010000000002779000000000027100000000000052400000000000197400000000000276900000001000000161211ACN    
01CIEL  FM    ON      NM201703200914000070CIELC58     000000010000000002879000000000032900000000000001000000000000030400000000000064300000001500000271211ACN    
01CIEL  FM    ON      NM201703200728000070CIELC59     000000010000000002988000000000054600000000000074700000000000038900000000000168200000003500000511211ACN    
01CIEL  FM    ON      NM201703200949000070CIELC60     000000010000000003088000000000009700000000000016600000000000001200000000000027500000001000000111211ACN    
01CMIG        PN      N1201703202577000070CMIGC8      000000010000000000774000000000000000000000000004500000000000000500000000000005000000000100000022171ACN    
01CMIG        PN      N1201703202593000070CMIGC84     000000010000000000814000000000000300000000000000000000000000000000000000000000300000000100000012171ACN    
01CMIG        PN      N1201703202615000070CMIGC88     000000010000000000854000000000009000000000000000000000000000001000000000000010000000000100000022171ACN    
01CMIG        PN      N1201703202623000070CMIGC9      000000010000000000874000000000003300000000000015600000000000008000000000000026900000000200000092171ACN    
01CMIG        PN      N1201703202631000070CMIGC92     000000010000000000894000000000006000000000000030000000000000008900000000000044900000000300000072171ACN    
01CMIG        PN      N1201703202640000070CMIGC94     000000010000000000914000000000014800000000000012700000000000012100000000000039600000000200000122171ACN    
01CMIG        PN      N1201703202658000070CMIGC96     000000010000000000934000000000006100000000000000000000000000118600000000000124700000000500000102171ACN    
01CMIG        PN      N1201703202666000070CMIGC98     000000010000000000954000000000002600000000000091200000000000132600000000000226400000000400000062171ACN    
01CMIG        PN      N1201703202674000070CMIGC10     000000010000000000974000000000011200000000000000500000000000058800000000000070500000000600000132171ACN    
01CMIG        PN      N1201703202682000070CMIGC40     000000010000000001024000000000000800000000000000000000000000007000000000000007800000000400000072171ACN    
01CMIG        PN      N1201703200680000070CMIGC42     000000010000000001274000000000000000000000000008000000000000001500000000000009500000000400000032181ACN    
01CMIG  FM    PN      N1201703202690000070CMIGC11     000000010000000001074000000000057800000000000077000000000000084200000000000219000000002300000322171ACN    
01CMIG  FM    PN      N1201703200620000070CMIGC99     000000010000000000994000000000000000000000000004700000000000001400000000000006100000000100000032181ACN    
01CMIG  FM    PN      N1201703200639000070CMIGC41     000000010000000001124000000000029800000000000010000000000000027700000000000067500000000800000202181ACN    
01CMIG  FM    PN      N1201703200647000070CMIGC61     000000010000000001174000000000110400000000000003000000000000283200000000000396600000002000000182181ACN    
01CMIG  FM    PN      N1201703200671000070CMIGC12     000000010000000001224000000000005600000000000054000000000000109100000000000168700000001600000052181ACN    
01CSAN        ON      NM201703200086000070CSANC75     000000010000000002430000000000000000000000000004200000000000000000000000000004200000000100000011142ACN    
01CSAN        ON      NM201703200094000070CSANC81     000000010000000002980000000000000000000000000004200000000000004200000000000008400000000100000011142ACN    
01CSAN        ON      NM201703202631000070CSANC43     000000010000000004255000000000000000000000000094800000000000110100000000000204900000000200000051151ACN    
01CSAN        ON      NM201703202640000070CSANC13     000000010000000004305000000000000000000000000000000000000000003000000000000003000000000100000021151ACN    
01CSAN        ON      NM201703202658000070CSANC44     000000010000000004355000000000001000000000000139800000000000084200000000000225000000000300000041151ACN    
01CSAN        ON      NM201703202666000070CSANC14     000000010000000004405000000000002500000000000000000000000000001000000000000003500000000100000021151ACN    
01CSAN        ON      NM201703202070000070CSANC87     000000010000000004630000000000000000000000000000000000000000060000000000000060000000000100000011152ACN    
01CSAN        ON      NM201703200310000070CSANC24     000000010000000004455000000000001000000000000000000000000000524500000000000525500000000400000071161ACN    
01CSAN        ON      NM201703200345000070CSANC46     000000010000000004605000000000001400000000000000000000000000007500000000000008900000000100000031161ACN    
01CSAN  FM    ON      NM201703202534000070CSANC38     000000010000000003755000000000000000000000000003500000000000010000000000000013500000000100000011151ACN    
01CSAN  FM    ON      NM201703202550000070CSANC39     000000010000000003855000000000000000000000000000000000000000027000000000000027000000000100000011151ACN    
01CSAN  FM    ON      NM201703202577000070CSANC40     000000010000000003955000000000000000000000000000000000000000018700000000000018700000000100000011151ACN    
01CSAN  FM    ON      NM201703202593000070CSANC41     000000010000000004055000000000000000000000000018600000000000031400000000000050000000000100000021151ACN    
01CSAN  FM    ON      NM201703202615000070CSANC42     000000010000000004155000000000001000000000000029000000000000024500000000000054500000000200000061151ACN    
01CSNA        ON        201703208761000070CSNAC10     000000010000000001000000000000000000000000000000000000000000007000000000000007000000000200000022471ACN    
01CSNA        ON        201703208770000070CSNAC40     000000010000000001050000000000003700000000000000000000000000000000000000000003700000000200000012471ACN    
01CSNA        ON        201703208788000070CSNAC11     000000010000000001100000000000015800000000000013300000000000023700000000000052800000000300000112471ACN    
01CSNA        ON        201703209261000070CSNAC71     000000010000000001175000000000018200000000000000000000000000000000000000000018200000000300000012472ACN    
01CSNA        ON        201703209288000070CSNAC72     000000010000000001275000000000008900000000000000700000000000000000000000000009600000000400000032472ACN    
01CSNA        ON        201703209296000070CSNAC63     000000010000000001325000000000000000000000000000500000000001200200000000001200700000000400000032472ACN    
01CSNA        ON        201703209300000070CSNAC73     000000010000000001375000000000430000000000000000000000000000000100000000000430100000000400000022472ACN    
01CSNA        ON        201703208842000070CSNAC14     000000010000000001400000000000600900000000000092800000000000157000000000000850700000002100000162471ACN    
01CSNA        ON        201703209350000070CSNAC64     000000010000000001425000000000000000000000000000000000000000850300000000000850300000000600000022472ACN    
01CSNA        ON        201703208850000070CSNAC44     000000010000000001450000000000000000000000000013000000000000000000000000000013000000000500000032471ACN    
01CSNA        ON        201703208869000070CSNAC15     000000010000000001500000000000000000000000000032500000000000000000000000000032500000000400000022471ACN    
01CSNA        ON        201703208877000070CSNAC45     000000010000000001550000000000000000000000000000500000000000000000000000000000500000000100000012471ACN    
01CSNA        ON        201703208940000070CSNAC19     000000010000000001900000000000000000000000000000400000000000000000000000000000400000000100000012471ACN    
01CSNA  FM    ON        201703208796000070CSNAC41     000000010000000001150000000000030000000000000015700000000000000000000000000045700000000300000112471ACN    
01CSNA  FM    ON        201703208800000070CSNAC12     000000010000000001200000000000033900000000000026800000000000053800000000000114500000001000000302471ACN    
01CSNA  FM    ON        201703208818000070CSNAC42     000000010000000001250000000000019800000000000032800000000000031600000000000084200000000500000132471ACN    
01CSNA  FM    ON        201703208826000070CSNAC13     000000010000000001300000000001508000000000000032100000000000037100000000001577200000002300000282471ACN    
01CSNA  FM    ON        201703208834000070CSNAC43     000000010000000001350000000000006100000000000000400000000000750100000000000756600000001100000062471ACN    
01CVCB        ON      NM201703200019000070CVCBC23     000000010000000002300000000000000000000000000000000000000000065600000000000065600000000100000021061ACN    
01CVCB        ON      NM201703200043000070CVCBC62     000000010000000003225000000000000000000000000007500000000000016300000000000023800000000200000021062ACN    
01CYRE        ON      NM201703201899000070CYREC41     000000010000000001150000000000000000000000000000300000000000106500000000000106800000000200000031281ACN    
01CYRE        ON      NM201703202402000070CYREC12     000000010000000001200000000000000000000000000007500000000000000000000000000007500000000100000011281ACN    
01CYRE        ON      NM201703202844000070CYREC73     000000010000000001375000000000000000000000000000000000000001025000000000001025000000000200000041282ACN    
01CYRE        ON      NM201703202461000070CYREC15     000000010000000001500000000000000000000000000039700000000000592000000000000631700000000800000041281ACN    
01CYRE        ON      NM201703202470000070CYREC45     000000010000000001550000000000000000000000000000800000000000000000000000000000800000000100000011281ACN    
01CYRE  FM    ON      NM201703202410000070CYREC42     000000010000000001250000000000000000000000000130400000000000001500000000000131900000000100000021281ACN    
01CYRE  FM    ON      NM201703202429000070CYREC13     000000010000000001300000000000000000000000000024800000000000000200000000000025000000000100000031281ACN    
01CYRE  FM    ON      NM201703202437000070CYREC43     000000010000000001350000000000000000000000000001800000000000025900000000000027700000000400000061281ACN    
01CYRE  FM    ON      NM201703202445000070CYREC14     000000010000000001400000000000002000000000000208600000000000003700000000000214300000001200000041281ACN    
01CYRE  FM    ON      NM201703202453000070CYREC44     000000010000000001450000000000000000000000000001000000000000000000000000000001000000000100000011281ACN    
01ECOR        ON      NM201703200418000070ECORC81     000000010000000000810000000000000000000000000000000000000000741600000000000741600000000100000021122ACN    
01ECOR        ON      NM201703200396000070ECORC9      000000010000000000900000000000000000000000000000000000000000000100000000000000100000000100000011121ACN    
01ECOR        ON      NM201703200922000070ECORC1      000000010000000001025000000000000000000000000000000000000000027000000000000027000000000100000011122ACN    
01EGIE        ON      NM201703200035000070EGIEC96     000000010000000004438000000000000000000000000000000000000000030100000000000030100000000100000021002ACN    
01ELET        PNB     N1201703200612000070ELETC57     000000010000000002750000000000000000000000000000000000000000002100000000000002100000000100000010681ACN    
01ELET        PNB     N1201703200914000070ELETC29     000000010000000002900000000000000000000000000000000000000000192000000000000192000000000100000010681ACN    
01ELET        PNB     N1201703200930000070ELETC59     000000010000000002950000000000000000000000000000000000000000084000000000000084000000000100000010681ACN    
01ELET        ON      N1201703201791000070ELETC92     000000010000000002250000000000000000000000000680000000000000000000000000000680000000000100000011521ACN    
01ELET        ON      N1201703201848000070ELETC85     000000010000000002500000000000000000000000000680000000000000000000000000000680000000000100000011521ACN    
01ELET        ON      N1201703201805000070ELETC95     000000010000000002525000000000000000000000000000000000000000147000000000000147000000000100000041522ACN    
01EMBR        ON      NM201703200310000070EMBRC18     000000010000000001800000000000000300000000000000000000000000007500000000000007800000000200000021791ACN    
01EMBR        ON      NM201703200302000070EMBRC19     000000010000000001900000000000013800000000000000000000000000017000000000000030800000001500000261791ACN    
01ENBR        ON      NM201703200094000070ENBRC46     000000010000000001604000000000000000000000000000000000000000065100000000000065100000000200000021221ACN    
01EQTL        ON      NM201703200736000070EQTLC52     000000010000000005176000000000000000000000000000000000000000075500000000000075500000000200000021191ACN    
01EQTL        ON      NM201703200698000070EQTLC54     000000010000000005376000000000000000000000000000000000000000045800000000000045800000000200000021191ACN    
01EQTL        ON      NM201703200620000070EQTLC55     000000010000000005476000000000000000000000000000000000000000030200000000000030200000000200000041191ACN    
01EQTL        ON      NM201703200019000070EQTLC5      000000010000000005576000000000000000000000000000000000000000003000000000000003000000000100000011201ACN    
01EQTL        ON      NM201703200078000070EQTLC27     000000010000000005726000000000000000000000000000000000000000001000000000000001000000000100000011202ACN    
01EQTL        ON      NM201703200060000070EQTLC57     000000010000000005776000000000000000000000000000000000000000400000000000000400000000000100000021201ACN    
01EQTL        ON      NM201703200094000070EQTLC59     000000010000000005976000000000000000000000000000000000000000295000000000000295000000000100000041201ACN    
01EQTL        ON      NM201703200116000070EQTLC30     000000010000000006026000000000000000000000000000000000000000001000000000000001000000000100000011202ACN    
01EQTL        ON      NM201703200167000070EQTLC61     000000010000000006176000000000000000000000000000000000000000400000000000000400000000000100000021201ACN    
01ESTC        ON      NM201703200051000070ESTCC18     000000010000000001755000000000000000000000000000200000000000002000000000000002200000000200000011121ACN    
01ESTC        ON      NM201703200485000070ESTCC14     000000010000000001405000000000000000000000000000000000000000002100000000000002100000000200000011131ACN    
01ESTC  FM    ON      NM201703200493000070ESTCC44     000000010000000001455000000000000000000000000000000000000000002100000000000002100000000100000011131ACN    
01ESTC  FM    ON      NM201703200507000070ESTCC15     000000010000000001505000000000000700000000000003100000000000000500000000000004300000000200000021131ACN    
01ESTC  FM    ON      NM201703200515000070ESTCC45     000000010000000001555000000000000000000000000002100000000000002100000000000004200000000100000011131ACN    
01ESTC  FM    ON      NM201703200523000070ESTCC16     000000010000000001605000000000000000000000000000000000000000004200000000000004200000000100000021131ACN    
01EZTC        ON      NM201703200183000070EZTCC66     000000010000000001625000000000000000000000000000000000000000087400000000000087400000000100000021092ACN    
01EZTC        ON      NM201703200191000070EZTCC20     000000010000000002000000000000000000000000000000000000000000016500000000000016500000000100000011091ACN    
01FIBR        ON      NM201703201392000070FIBRC33     000000010000000003300000000000000000000000000010000000000000002200000000000012200000000300000021051ACN    
01FIBR        ON      NM201703201473000070FIBRC44     000000010000000004400000000000000000000000000010000000000000000000000000000010000000000100000011051ACN    
01FLRY        ON      NM201703200124000070FLRYC77     000000010000000001541000000000200000000000000000000000000000000000000000000200000000000100000011152ACN    
01FLRY        ON      NM201703200019000070FLRYC74     000000010000000002291000000000000000000000000000000000000000330100000000000330100000000100000021152ACN    
01FLRY        ON      NM201703200019000070FLRYC7      000000010000000003741000000000000000000000000000000000000000065200000000000065200000000100000011162ACN    
01GGBR        PN      N1201703201694000070GGBRC93     000000010000000000425000000000012400000000000000000000000000070000000000000082400000000200000041601ACN    
01GGBR        PN      N1201703201996000070GGBRC19     000000010000000000485000000000000000000000000000100000000000000000000000000000100000000100000011601ACN    
01GGBR        PN      N1201703201716000070GGBRC61     000000010000000000605000000000000000000000000000000000000000150000000000000150000000000100000011602ACN    
01GGBR        PN      N1201703202003000070GGBRC24     000000010000000000635000000000030000000000000000000000000000000000000000000030000000000100000011601ACN    
01GGBR        PN      N1201703202038000070GGBRC2      000000010000000000655000000000026600000000000000000000000000003300000000000029900000000100000051601ACN    
01GGBR        PN      N1201703200078000070GGBRC89     000000010000000000895000000000000000000000000000000000000000011400000000000011400000000100000011621ACN    
01GGBR        PN      N1201703200159000070GGBRC11     000000010000000001130000000000001000000000000008500000000000000200000000000009700000000200000031621ACN    
01GGBR        PN      N1201703200167000070GGBRC41     000000010000000001180000000000026100000000000003700000000000044700000000000074500000000200000111621ACN    
01GGBR        PN      N1201703200175000070GGBRC12     000000010000000001230000000000031000000000000074600000000000027400000000000133000000001200000281621ACN    
01GGBR        PN      N1201703200051000070GGBRC65     000000010000000001505000000000000000000000000018400000000000119100000000000137500000000500000051622ACN    
01GGBR        PN      N1201703200230000070GGBRC15     000000010000000001530000000000002700000000000090200000000000021200000000000114100000002400000161621ACN    
01GGBR        PN      N1201703200248000070GGBRC45     000000010000000001580000000000000000000000000008900000000000055000000000000063900000000400000031621ACN    
01GGBR        PN      N1201703200256000070GGBRC16     000000010000000001630000000000000000000000000118000000000000097600000000000215600000001100000061621ACN    
01GGBR        PN      N1201703200264000070GGBRC46     000000010000000001680000000000000000000000000000000000000000012000000000000012000000000200000011621ACN    
01GGBR  FM    PN      N1201703200183000070GGBRC42     000000010000000001280000000000208300000000000314700000000000056800000000000579800000001400000501621ACN    
01GGBR  FM    PN      N1201703200191000070GGBRC13     000000010000000001330000000000145700000000000151700000000000423900000000000721300000004700000751621ACN    
01GGBR  FM    PN      N1201703200205000070GGBRC43     000000010000000001380000000000163900000000000435700000000000719900000000001319500000004700000611621ACN    
01GGBR  FM    PN      N1201703200213000070GGBRC14     000000010000000001430000000000093600000000000406100000000000394400000000000894100000010300000571621ACN    
01GGBR  FM    PN      N1201703200221000070GGBRC44     000000010000000001480000000000030300000000000036800000000000696900000000000764000000002300000261621ACN    
01GOAU        PN      N1201703202062000070GOAUC45     000000010000000000450000000000000000000000004523800000000000000000000000004523800000000500000032421ACN    
01GOAU        PN      N1201703201783000070GOAUC53     000000010000000000530000000000000000000000000000000000000000640000000000000640000000000100000012422ACN    
01GOAU        PN      N1201703202160000070GOAUC6      000000010000000000600000000000057300000000004523800000000000001900000000004583000000001700000162421ACN    
01GOAU        PN      N1201703202186000070GOAUC64     000000010000000000640000000000002000000000000000000000000000003500000000000005500000000200000022421ACN    
01GOAU        PN      N1201703202194000070GOAUC66     000000010000000000660000000000001500000000000000000000000000000000000000000001500000000200000022421ACN    
01GRND        ON      NM201703200027000070GRNDC46     000000010000000001650000000000000000000000000000000000000000131300000000000131300000000100000021441ACN    
01GRND        ON      NM201703200043000070GRNDC21     000000010000000002100000000000000000000000000000000000000000007500000000000007500000000100000011441ACN    
01HGTX        ON      NM201703200060000070HGTXC16     000000010000000001600000000000000000000000000000000000000000008500000000000008500000000100000011361ACN    
01HGTX        ON      NM201703200035000070HGTXC76     000000010000000001675000000000000000000000000003000000000000000000000000000003000000000200000011362ACN    
01HGTX        ON      NM201703200043000070HGTXC77     000000010000000001775000000000000000000000000006000000000000000000000000000006000000000100000021362ACN    
01HGTX        ON      NM201703200051000070HGTXC78     000000010000000001875000000000000000000000000003000000000000000000000000000003000000000200000011362ACN    
01HYPE        ON      NM201703201180000070HYPEC86     000000010000000002615000000000000000000000000100000000000000000000000000000100000000000100000011082ACN    
01HYPE        ON      NM201703200973000070HYPEC28     000000010000000002740000000000002000000000000000000000000000000000000000000002000000000100000011081ACN    
01HYPE        ON      NM201703201198000070HYPEC89     000000010000000002915000000000000000000000000100000000000000000000000000000100000000000100000011082ACN    
01HYPE        ON      NM201703200027000070HYPEC68     000000010000000002865000000000000000000000000000000000000000005000000000000005000000000100000011092ACN    
01IGTA        ON      NM201703200299000070IGTAC78     000000010000000002875000000000000000000000000000000000000000232100000000000232100000000100000021182ACN    
01IGTA        ON      NM201703200469000070IGTAC32     000000010000000003200000000000000000000000000000000000000000050000000000000050000000000100000011181ACN    
01IGTA        ON      NM201703200400000070IGTAC2      000000010000000003250000000000000000000000000000000000000000007500000000000007500000000100000011181ACN    
01VLID        ON      NM201703200043000070VLIDC55     000000010000000002550000000000000000000000000000000000000000004800000000000004800000000100000021271ACN    
01VLID        ON      NM201703200019000070VLIDC57     000000010000000002750000000000000000000000000000000000000000083900000000000083900000000100000021271ACN    
01WEGE    /ED ON      NM201703200043000070WEGEC77     000000010000000001707000000000000000000000000000000000000000003600000000000003600000000100000011742ACN    
01WEGE    /ED ON      NM201703200019000070WEGEC18     000000010000000001832000000000000000000000000000000000000000008500000000000008500000000100000011771ACN    
01ABEV        ON        201704170523000070ABEVD77     000000010000000001720000000000003200000000000000000000000000034300000000000037500000000200000041122ACN    
01ABEV        ON        201704170434000070ABEVD88     000000010000000001770000000000008000000000000093000000000000117500000000000218500000000700000101122ACN    
01ABEV        ON        201704170949000070ABEVD58     000000010000000001820000000000000400000000000015000000000006326100000000006341500000000600000131122ACN    
01ABEV        ON        201704170639000070ABEVD86     000000010000000001870000000000000000000000000000000000000002098600000000002098600000000300000061122ACN    
01ABEV        ON        201704170469000070ABEVD80     000000010000000002020000000000000000000000000084000000000000000000000000000084000000000100000011122ACN    
01ABEV        ON        201704170531000070ABEVD71     000000010000000002120000000000000000000000000050000000000000000100000000000050100000000200000031122ACN    
01ABEV        ON        201704170540000070ABEVD72     000000010000000002170000000000035000000000000050000000000000000000000000000085000000000300000021122ACN    
01ABEV        ON        201704170566000070ABEVD62     000000010000000002220000000000000000000000000002100000000000000000000000000002100000000200000011122ACN    
01ABEV        ON        201704170442000070ABEVD90     000000010000000002270000000000001100000000000179300000000000000000000000000180400000000200000021122ACN    
01ABEV        ON        201704170620000070ABEVD84     000000010000000002370000000000000000000000000042000000000000000000000000000042000000000500000021122ACN    
01ABEV        ON        201704178001000070ABEVD89     000000010000000001920000000000025000000000000005000000000000018000000000000048000000000200000031132ACN    
01ABEV        ON        201704170760000070ABEVD20     000000010000000001995000000000000000000000000033000000000000039600000000000072600000000900000041141ACN    
01ABEV        ON        201704170159000070ABEVD49     000000010000000001945000000000000200000000000025000000000000087500000000000112700000000600000021151ACN    
01ABEV  FM    ON        201704170450000070ABEVD78     000000010000000001745000000000004700000000000682000000000000142500000000000829200000001400000131121ACN    
01ABEV  FM    ON        201704171252000070ABEVD67     000000010000000001795000000000028000000000000821000000000000007700000000000856700000000800000121121ACN    
01ABEV  FM    ON        201704170612000070ABEVD79     000000010000000001845000000000182300000000000201100000000005507900000000005891300000001200000211121ACN    
01ABEV  FM    ON        201704170132000070ABEVD17     000000010000000001695000000000011000000000000200000000000000041600000000000252600000000900000041151ACN    
01ABEV  FM    ON        201704170140000070ABEVD19     000000010000000001895000000000012500000000000026500000000000056700000000000095700000001200000131151ACN    
01ALSC        ON      NM201704170060000070ALSCD17     000000010000000001700000000000000000000000000000000000000000400000000000000400000000000800000011101ACN    
01BBAS    /ERJON      NM201806180930000070BBASF69     000000010000000003923000000000002000000000000000000000000000000000000000000002000000000200000032652ACN    
01BBDC    /EJ PN      N1201806180205000070BBDCF55     000000010000000002432000000000000000000000000000000000000000022100000000000022100000000100000026512ACN    
01BBDC    /EJ PN      N1201806180400000070BBDCF57     000000010000000003632000000000003500000000000000000000000000000000000000000003500000000100000016512ACN    
01BBDC    /EJ PN      N1201806180396000070BBDCF3      000000010000000003432000000000000000000000000000000000000000100100000000000100100000000100000026552ACN    
01BBDC    /EJ PN      N1201806180175000070BBDCF4      000000010000000003282000000000004100000000000000000000000000000000000000000004100000000100000016572ACN    
01BBDC    /EJ ON      N1201806180132000070BBDCF5      000000010000000004223000000000000000000000000000000000000000300000000000000300000000000100000036592ACN    
01BVMF        ON      NM201806180078000070BVMFF79     000000010000000001950000000000050000000000000000000000000000000000000000000050000000000100000011382ACN    
01ITUB    /EDJPN      N1201806180337000070ITUBF2      000000010000000003716000000000003500000000000000000000000000000000000000000003500000000100000012152ACN    
01LAME        ON        201806180060000070LAMEF17     000000010000000001700000000000000000000000000000000000000001250000000000001250000000000100000011981ACN    
01PETR        PN        201806182488000070PETRF5      000000010000000001575000000000000000000000000005800000000000000100000000000005900000000100000021862ACN    
01PETR        PN        201806182160000070PETRF38     000000010000000001875000000000003700000000000000000000000000000000000000000003700000000200000021862ACN    
01PETR        PN        201806183921000070PETRF79     000000010000000001975000000000004500000000000000000000000000000000000000000004500000000100000011862ACN    
01PETR        PN        201806182496000070PETRF1      000000010000000002075000000000005900000000000005900000000000000300000000000012100000000200000031862ACN    
01VIVT    /EJ PN        201806181058000070VIVTF93     000000010000000004310000000000000000000000000002300000000000000000000000000002300000000100000011321ACN    
01VIVT    /EJ PN        201806181066000070VIVTF90     000000010000000005010000000000002300000000000002300000000000000000000000000004600000000100000011322ACN    
01ABEV        ON        201808200078000070ABEVH21     000000010000000002100000000000004000000000000000000000000000000000000000000004000000000100000011161ACN    
01GGBR        PN      N1201808200841000070GGBRH17     000000010000000001700000000000005200000000000000000000000000000100000000000005300000000200000021621ACN    
01LAME        ON        201808200094000070LAMEH17     000000010000000001700000000000000000000000000000000000000001250000000000001250000000000100000011981ACN    
01PETR        PN        201808200280000070PETRH3      000000010000000001225000000000038900000000000000000000000000022000000000000060900000000200000041862ACN    
01BBDC    /EJ PN      N1201809170744000070BBDCI74     000000010000000002391000000000000000000000000000000000000000250100000000000250100000000100000026552ACN    
01BBDC    /EJ PN      N1201809170167000070BBDCI93     000000010000000002491000000000000000000000000000000000000000319100000000000319100000000200000046552ACN    
01BBDC    /EJ PN      N1201809170345000070BBDCI85     000000010000000002541000000000000000000000000000000000000000550100000000000550100000000100000026552ACN    
01BBDC    /EJ ON      N1201809170035000070BBDCI63     000000010000000003298000000000000000000000000000000000000000330100000000000330100000000100000026552ACN    
01BBDC    /EJ PN      N1201809170078000070BBDCI86     000000010000000003591000000000000000000000000000000000000000143100000000000143100000000100000026562ACN    
01BBDC    /EJ PN      N1201810150736000070BBDCJ95     000000010000000002541000000000110000000000000000000000000000500000000000000610000000000100000036552ACN    
01BBDC    /EJ PN      N1201810150353000070BBDCJ83     000000010000000002291000000000000000000000000000000000000000528800000000000528800000000100000026562ACN    
01BBDC    /EJ ON      N1201810150051000070BBDCJ55     000000010000000002549000000000000000000000000000000000000000042600000000000042600000000100000016562ACN    
01BBDC    /EJ PN      N1201810150132000070BBDCJ66     000000010000000002591000000000000000000000000000000000000000440100000000000440100000000100000026562ACN    
01BBDC    /EJ PN      N1201811190205000070BBDCK75     000000010000000002495000000000000000000000000000000000000000082500000000000082500000000100000016572ACN    
01BBDC    /EJ PN      N1201811190140000070BBDCK10     000000010000000002845000000000000000000000000000000000000000110100000000000110100000000100000026572ACN    
01BRAP        PN      N1201811193379000070BRAPK75     000000010000000001516000000000000000000000000006500000000000000000000000000006500000000100000011292ACN    
01BBAS    /ERJON      NM201703200353000070BBASC56     000000010000000002670000000000000000000000000000000000000000005500000000000005500000000200000022641ACN    
01BBAS    /ERJON      NM201703200140000070BBASC87     000000010000000002695000000000003900000000000000000000000000000000000000000003900000000100000012642ACN    
01BBAS    /ERJON      NM201703200361000070BBASC27     000000010000000002720000000000020500000000000001600000000000011300000000000033400000000200000142641ACN    
01BBAS    /ERJON      NM201703200370000070BBASC57     000000010000000002770000000000001800000000000102600000000000001200000000000105600000000200000062641ACN    
01BBAS    /ERJON      NM201703200116000070BBASC28     000000010000000002820000000000058100000000000000100000000000082200000000000140400000000700000302641ACN    
01BBAS    /ERJON      NM201703200388000070BBASC58     000000010000000002870000000000010100000000000000900000000000049400000000000060400000000400000102641ACN    
01BBAS    /ERJON      NM201703200396000070BBASC29     000000010000000002920000000000235500000000000023400000000000250800000000000509700000000700000492641ACN    
01BBAS    /ERJON      NM201703200450000070BBASC69     000000010000000002945000000000000000000000000293200000000000046800000000000340000000000100000052642ACN    
01BBAS    /ERJON      NM201703200400000070BBASC59     000000010000000002970000000000030100000000000128900000000000032100000000000191100000000400000192641ACN    
01BBAS    /ERJON      NM201703200086000070BBASC30     000000010000000003020000000000688900000000000018000000000000179000000000000885900000000700000622641ACN    
01BBAS    /ERJON      NM201703200418000070BBASC80     000000010000000003070000000000018100000000000028400000000000015400000000000061900000000600000282641ACN    
01BBAS    /ERJON      NM201703200094000070BBASC31     000000010000000003120000000000092800000000000051300000000000158200000000000302300000001400000582641ACN    
01BBAS    /ERJON      NM201703200426000070BBASC61     000000010000000003170000000000130300000000000818700000000000243100000000001192100000007800000812641ACN    
01BBAS    /ERJON      NM201703200124000070BBASC92     000000010000000003195000000000057200000000000031100000000000134200000000000222500000000600000212642ACN    
01BBAS    /ERJON      NM201703200434000070BBASC32     000000010000000003220000000000190600000000000716800000000000724500000000001631900000002700000952641ACN    
01BBAS    /ERJON      NM201703201201000070BBASC71     000000010000000002145000000000000000000000000000000000000000040100000000000040100000000100000012652ACN    
01BBAS    /ERJON      NM201703200027000070BBASC88     000000010000000002845000000000000000000000000091500000000000050000000000000141500000000100000022652ACN    
01BBAS    /ERJON      NM201703200370000070BBASC1      000000010000000003095000000000259400000000000008800000000000319300000000000587500000000500000132652ACN    
01BBAS    /ERJON      NM201703200388000070BBASC3      000000010000000003145000000000032800000000000104400000000000000500000000000137700000000300000082652ACN    
01BBAS    /ERJON      NM201703200485000070BBASC62     000000010000000003270000000000094600000000000414100000000000206900000000000715600000001700000512651ACN    
01BBAS    /ERJON      NM201703200639000070BBASC63     000000010000000003320000000000036300000000000041700000000000209500000000000287500000002500000662651ACN    
01BBAS    /ERJON      NM201703201368000070BBASC83     000000010000000003345000000000007900000000000001200000000000014400000000000023500000000400000072652ACN    
01BBAS    /ERJON      NM201703200655000070BBASC34     000000010000000003420000000000154100000000000172600000000000708600000000001035300000005400001262651ACN    
01BBAS    /ERJON      NM201703200868000070BBASC74     000000010000000003495000000000017600000000000225100000000000590300000000000833000000000900000172652ACN    
01BBAS    /ERJON      NM201703200671000070BBASC35     000000010000000003520000000000122000000000000375700000000000280500000000000778200000007100000972651ACN    
01BBAS    /ERJON      NM201703200698000070BBASC36     000000010000000003620000000000058400000000000074000000000000070800000000000203200000005800000682651ACN    
01BBAS    /ERJON      NM201703201309000070BBASC98     000000010000000003895000000000000000000000000010000000000000000000000000000010000000000300000022652ACN    
01BBAS  FM/ERJON      NM201703200647000070BBASC73     000000010000000003370000000000029500000000000467600000000000055200000000000552300000002500000502651ACN    
01BBAS  FM/ERJON      NM201703200663000070BBASC4      000000010000000003470000000000031400000000000125400000000000163200000000000320000000004300000552651ACN    
01BBAS  FM/ERJON      NM201703200680000070BBASC5      000000010000000003570000000000023000000000000077800000000000087600000000000188400000003000000602651ACN    
01BBAS  FM/ERJON      NM201703200701000070BBASC6      000000010000000003670000000000052300000000000057600000000000114600000000000224500000006900000572651ACN    
01BBDC    /EJ PN      N1201703200884000070BBDCC77     000000010000000001493000000000000500000000000011000000000000000000000000000011500000000200000026432ACN    
01BBDC    /EJ PN      N1201703200892000070BBDCC94     000000010000000001857000000000000000000000000011000000000000011000000000000022000000000100000016432ACN    
01BBDC    /EJ PN      N1201703208010000070BBDCC13     000000010000000001993000000000002970000000001216380000000000116710000000001336060000000300000046432ACN    
01BBDC    /EJ PN      N1201703200019000070BBDCC15     000000010000000001539000000000000000000000000006050000000000000000000000000006050000000100000016442ACN    
01BBDC    /EJ PN      N1201703200043000070BBDCC4      000000010000000001607000000000000000000000000097900000000000000000000000000097900000000200000016441ACN    
01BBDC    /EJ PN      N1201703200272000070BBDCC79     000000010000000001630000000000000110000000000116380000000000000000000000000116490000000200000026442ACN    
01BBDC    /EJ PN      N1201703200213000070BBDCC36     000000010000000001652000000000000000000000000718210000000000000000000000000718210000000600000026441ACN    
01BBDC    /EJ PN      N1201703200116000070BBDCC25     000000010000000001675000000000000000000000000605000000000000000000000000000605000000000400000016442ACN    
01BBDC    /EJ PN      N1201703200361000070BBDCC3      000000010000000001766000000000000000000000000046310000000000005500000000000051810000000400000036442ACN    
01BBDC    /EJ ON      N1201703200132000070BBDCC34     000000010000000001788000000000000000000000001650000000000000000000000000001650000000000200000016442ACN    
01BBDC    /EJ ON      N1201703200191000070BBDCC69     000000010000000001901000000000000000000000001100000000000000000000000000001100000000000300000016441ACN    
01BBDC    /EJ PN      N1201703200027000070BBDCC24     000000010000000001902000000000006050000000000006050000000000000000000000000012100000000100000016442ACN    
01BBDC    /EJ ON      N1201703200302000070BBDCC61     000000010000000001924000000000000000000000001100000000000000000000000000001100000000000200000016442ACN    
01BBDC    /EJ PN      N1201703200051000070BBDCC80     000000010000000001948000000000001760000000000180400000000000073040000000000255200000000200000046442ACN    
01BBDC    /EJ PN      N1201703200337000070BBDCC33     000000010000000002039000000000038200000000000175690000000000164530000000000378420000000300000076442ACN    
01BBDC    /EJ PN      N1201703200124000070BBDCC26     000000010000000002084000000000000000000000001100000000000000312400000000001412400000000300000076442ACN    
01BBDC    /EJ PN      N1201703200370000070BBDCC63     000000010000000002175000000000000000000000000046310000000000046310000000000092620000000100000036442ACN    
01BBDC    /EJ ON      N1201703200140000070BBDCC35     000000010000000002197000000000000000000000001924700000000001375410000000003300110000000200000036442ACN    
01BBDC    /EJ PN      N1201703200230000070BBDCC78     000000010000000002220000000000248430000000000117100000000000462170000000000827700000000300000066442ACN    
01BBDC    /EJ PN      N1201703200175000070BBDCC96     000000010000000002266000000000056800000000000000000000000000779010000000000835810000000200000076442ACN    
01BBDC    /EJ PN      N1201703200159000070BBDCC30     000000010000000002311000000000000000000000000000000000000000011000000000000011000000000100000016442ACN    
01BBDC    /EJ ON      N1201703200205000070BBDCC89     000000010000000002333000000000000000000000000950300000000001249700000000002200000000000100000036442ACN    
01BBDC    /EJ ON      N1201703200310000070BBDCC71     000000010000000002378000000000000000000000001030000000000001170000000000002200000000000100000026442ACN    
01BBDC    /EJ PN      N1201703200396000070BBDCC91     000000010000000002402000000000014020000000000000000000000000082800000000000096820000000400000056442ACN    
01BBDC    /EJ ON      N1201703200167000070BBDCC64     000000010000000002424000000000000000000000000000000000000000550000000000000550000000000100000016442ACN    
01BBDC    /EJ ON      N1201703200183000070BBDCC92     000000010000000002469000000000000000000000000000330000000000000000000000000000330000000100000016442ACN    
01BBDC    /EJ ON      N1201703200078000070BBDCC39     000000010000000002515000000000000000000000000000000000000000550000000000000550000000000100000016442ACN    
01BBDC    /EJ ON      N1201703200345000070BBDCC59     000000010000000002606000000000000000000000000000000000000001240910000000001240910000000200000026442ACN    
01BBDC    /EJ PN      N1201703201589000070BBDCC56     000000010000000002289000000000000000000000000063200000000000000250000000000063450000000200000046451ACN    
01BBDC    /EJ PN      N1201703200116000070BBDCC10     000000010000000002357000000000000000000000000000000000000000021340000000000021340000000200000026452ACN    
01BBDC    /EJ PN      N1201703201597000070BBDCC81     000000010000000002720000000000011440000000000065600000000000077440000000000154480000000300000046452ACN    
01BBDC    /EJ PN      N1201703201341000070BBDCC1      000000010000000002766000000000003860000000000114430000000000000000000000000118290000000200000066452ACN    
01BBDC    /EJ ON      N1201703200574000070BBDCC95     000000010000000003151000000000000010000000000000000000000000490050000000000490060000000400000056452ACN    
01BBDC    /EJ PN      N1201703200264000070BBDCC74     000000010000000003039000000000000200000000000036310000000000024340000000000060850000000400000076462ACN    
01BBDC    /EJ ON      N1201703208087000070BBDCC70     000000010000000003606000000000000000000000000109900000000000000110000000000110010000000200000026462ACN    
01BBDC    /EJ PN      N1201703200108000070BBDCC2      000000010000000002134000000000000000000000000000000000000000200000000000000200000000000100000026562ACN    
01BBDC    /EJ ON      N1201703200043000070BBDCC11     000000010000000002267000000000000000000000000000000000000000079400000000000079400000000100000016561ACN    
01BBDC    /EJ PN      N1201703200248000070BBDCC7      000000010000000002891000000000017500000000000050000000000000010500000000000078000000000300000076561ACN    
01BBDC    /EJ PN      N1201703200256000070BBDCC8      000000010000000003064000000000043000000000000197100000000000009800000000000249900000000900000196561ACN    
01BBDC    /EJ PN      N1201703200299000070BBDCC51     000000010000000003139000000000049400000000000000000000000000794400000000000843800000000400000116562ACN    
01BBDC    /EJ PN      N1201703200302000070BBDCC53     000000010000000003339000000000098500000000000681000000000000021100000000000800600000000200000216562ACN    
01BBDC    /EJ PN      N1201703200027000070BBDCC16     000000010000000002657000000000000000000000000008500000000000000300000000000008800000000200000026571ACN    
01BBDC    /EJ PN      N1201703200035000070BBDCC27     000000010000000002745000000000000000000000000050000000000000002000000000000052000000000200000026571ACN    
01BBDC    /EJ PN      N1201703200043000070BBDCC58     000000010000000002791000000000000000000000000011300000000000015000000000000026300000000200000036571ACN    
01BBDC    /EJ PN      N1201703200060000070BBDCC60     000000010000000002991000000000002100000000000010200000000000174600000000000186900000000300000126571ACN    
01BBDC    /EJ PN      N1201703200078000070BBDCC21     000000010000000003114000000000005900000000000978100000000000248800000000001232800000000200000116571ACN    
01BBDC    /EJ PN      N1201703200086000070BBDCC32     000000010000000003214000000000058400000000000049800000000000075700000000000183900000001300000416571ACN    
01BBDC    /EJ PN      N1201703200108000070BBDCC44     000000010000000003414000000000034400000000000547300000000000640100000000001221800000002700000396571ACN    
01BBDC    /EJ PN      N1201703200019000070BBDCC12     000000010000000002841000000000000000000000000255500000000000008500000000000264000000000300000036581ACN    
01BBDC    /EJ PN      N1201703200485000070BBDCC40     000000010000000002941000000000006000000000000000000000000000010000000000000016000000000100000036591ACN    
01BBDC    /EJ PN      N1201703200434000070BBDCC22     000000010000000002966000000000000000000000000043200000000000020300000000000063500000000400000026592ACN    
01BBDC    /EJ PN      N1201703200493000070BBDCC41     000000010000000003164000000000086100000000000611100000000000201600000000000898800000000700000196591ACN    
01BBDC    /EJ PN      N1201703200337000070BBDCC43     000000010000000003389000000000030800000000000193600000000000599000000000000823400000000800000296592ACN    
01BBDC    /EJ PN      N1201703200507000070BBDCC42     000000010000000003489000000000072800000000000480300000000000512500000000001065600000001500000256592ACN    
01BBDC    /EJ PN      N1201703200574000070BBDCC48     000000010000000003514000000000033000000000000356400000000000447300000000000836700000004200000246591ACN    
01BBDC    /EJ PN      N1201703200060000070BBDCC52     000000010000000003814000000000000000000000000234100000000000000000000000000234100000001900000026601ACN    
01BBDC  FM/EJ PN      N1201703200094000070BBDCC23     000000010000000003314000000000083000000000001545900000000000138700000000001767600000001400000456571ACN    
01BBDC  FM/EJ PN      N1201703200566000070BBDCC47     000000010000000003364000000000008100000000000651100000000000046800000000000706000000000800000246591ACN    
01BBDC  FM/EJ PN      N1201703200310000070BBDCC20     000000010000000003464000000000091500000000000384700000000000531600000000001007800000004200000626591ACN    
01BBDC  FM/EJ PN      N1201703200043000070BBDCC45     000000010000000003614000000000010400000000000049800000000000782300000000000842500000005000000416601ACN    
01BBDC  FM/EJ PN      N1201703200051000070BBDCC50     000000010000000003714000000000020800000000000120200000000000001000000000000142000000001800000266601ACN    
01BBSE        ON      NM201703202410000070BBSEC92     000000010000000002674000000000012000000000000116300000000000003700000000000132000000000300000031052ACN    
01BBSE        ON      NM201703200043000070BBSEC93     000000010000000002274000000000000000000000000012300000000000000000000000000012300000000100000011062ACN    
01BBSE        ON      NM201703200086000070BBSEC97     000000010000000002349000000000000000000000000013400000000000000000000000000013400000000200000011061ACN    
01BBSE        ON      NM201703200191000070BBSEC57     000000010000000002599000000000000000000000000013000000000000000000000000000013000000000100000021061ACN    
01BBSE        ON      NM201703203026000070BBSEC29     000000010000000002749000000000002500000000000008200000000000004100000000000014800000000100000081061ACN    
01BBSE        ON      NM201703200051000070BBSEC94     000000010000000002824000000000012300000000000012300000000000012000000000000036600000000200000021062ACN    
01BBSE        ON      NM201703200094000070BBSEC98     000000010000000002924000000000008300000000000013400000000000049200000000000070900000000500000111062ACN    
01BBSE        ON      NM201703200078000070BBSEC52     000000010000000003074000000000002000000000000000000000000000020500000000000022500000000200000031062ACN    
01BBSE        ON      NM201703200205000070BBSEC14     000000010000000003274000000000004200000000000000000000000000015800000000000020000000000100000011062ACN    
01BBSE        ON      NM201703203034000070BBSEC35     000000010000000003349000000000000000000000000000000000000000009000000000000009000000000100000011061ACN    
01BBSE        ON      NM201703201147000070BBSEC27     000000010000000002649000000000002000000000000000000000000000002000000000000004000000000100000041071ACN    
01BBSE        ON      NM201703201155000070BBSEC67     000000010000000002699000000000001800000000000005100000000000000000000000000006900000000300000031071ACN    
01BBSE        ON      NM201703201732000070BBSEC88     000000010000000002724000000000001300000000000000000000000000013100000000000014400000000200000041072ACN    
01BBSE        ON      NM201703201171000070BBSEC9      000000010000000002849000000000010400000000000000000000000000010500000000000020900000000200000101071ACN    
01BBSE        ON      NM201703201180000070BBSEC30     000000010000000002949000000000014900000000000001000000000000045300000000000061200000000800000161071ACN    
01BBSE        ON      NM201703200728000070BBSEC11     000000010000000003024000000000000400000000000001000000000000005100000000000006500000000200000041072ACN    
01BBSE        ON      NM201703201198000070BBSEC31     000000010000000003049000000000027500000000000000500000000000005500000000000033500000000500000131071ACN    
01BBSE        ON      NM201703201210000070BBSEC32     000000010000000003149000000000001100000000000000000000000000355700000000000356800000000400000061071ACN    
01BBSE        ON      NM201703200051000070BBSEC15     000000010000000003449000000000010000000000000000000000000000058000000000000068000000000200000021071ACN    
01BBSE        ON      NM201703200060000070BBSEC85     000000010000000003474000000000000000000000000000000000000000013300000000000013300000000100000011072ACN    
01BBSE  FM    ON      NM201703201163000070BBSEC58     000000010000000002799000000000001700000000000065500000000000015400000000000082600000000300000061071ACN    
01BBSE  FM    ON      NM201703200043000070BBSEC59     000000010000000002899000000000009200000000000015400000000000472100000000000496700000000400000151071ACN    
01BBSE  FM    ON      NM201703200710000070BBSEC3      000000010000000002999000000000004900000000000004200000000000006400000000000015500000000500000091071ACN    
01BBSE  FM    ON      NM201703201201000070BBSEC1      000000010000000003099000000000001100000000000002000000000000418300000000000421400000000300000091071ACN    
01BBSE  FM    ON      NM201703201228000070BBSEC2      000000010000000003199000000000000500000000000000000000000000002000000000000002500000000100000021071ACN    
01KROT        ON      NM201704170159000070KROTD2      000000010000000001394000000000000000000000000000000000000000078200000000000078200000000200000031192ACN    
01KROT        ON      NM201704170426000070KROTD41     000000010000000001169000000000000000000000000100000000000000000000000000000100000000000100000011221ACN    
01KROT        ON      NM201704170442000070KROTD42     000000010000000001269000000000001900000000000000000000000000000100000000000002000000000100000031221ACN    
01KROT        ON      NM201704170507000070KROTD45     000000010000000001569000000000000000000000001420000000000000000000000000001420000000000300000101221ACN    
01KROT        ON      NM201704170736000070KROTD75     000000010000000001594000000000000000000000000000000000000000101000000000000101000000000200000081222ACN    
01KROT        ON      NM201704170515000070KROTD16     000000010000000001619000000000000000000000003000000000000002947500000000005947500000000500000111221ACN    
01KROT        ON      NM201704170523000070KROTD46     000000010000000001669000000000005000000000000000000000000000000000000000000005000000000100000011221ACN    
01KROT        ON      NM201704170558000070KROTD18     000000010000000001819000000000000000000000000000000000000000023300000000000023300000000100000011221ACN    
01KROT  FM    ON      NM201704170450000070KROTD13     000000010000000001319000000000004100000000000000000000000000000800000000000004900000000300000041221ACN    
01KROT  FM    ON      NM201704170469000070KROTD43     000000010000000001369000000000002000000000000100000000000000001000000000000103000000000300000061221ACN    
01KROT  FM    ON      NM201704170477000070KROTD14     000000010000000001419000000000000700000000000000000000000000551900000000000552600000000200000061221ACN    
01KROT  FM    ON      NM201704170485000070KROTD44     000000010000000001469000000000028200000000004400800000000000048700000000004477700000003200000711221ACN    
01KROT  FM    ON      NM201704170493000070KROTD15     000000010000000001519000000000094200000000000119400000000000110700000000000324300000003000002131221ACN    
01LAME        ON        201704170060000070LAMED34     000000010000000001200000000000000000000000000000000000000000041760000000000041760000000100000011931ACN    
01CSNA        ON        201705159342000070CSNAE76     000000010000000001625000000000000000000000000100000000000000000000000000000100000000000100000012472ACN    
01CSNA        ON        201705159393000070CSNAE47     000000010000000001750000000000000000000000000010000000000000000000000000000010000000000100000012471ACN    
01CVCB        ON      NM201705150116000070CVCBE58     000000010000000002850000000000000000000000000000000000000000055600000000000055600000000100000021061ACN    
01CYRE        ON      NM201705152810000070CYREE63     000000010000000001325000000000000000000000000040000000000000000000000000000040000000000100000011282ACN    
01CYRE        ON      NM201705152828000070CYREE46     000000010000000001650000000000000000000000000040000000000000000000000000000040000000000100000011281ACN    
01CYRE        ON      NM201705153239000070CYREE77     000000010000000001775000000000038000000000000000000000000000000000000000000038000000000100000011282ACN    
01ECOR        ON      NM201705150434000070ECORE89     000000010000000000890000000000000000000000000000000000000000417300000000000417300000000100000011122ACN    
01ECOR        ON      NM201705150701000070ECORE93     000000010000000000930000000000000000000000000000000000000000373900000000000373900000000100000211122ACN    
01EGIE        ON      NM201705150086000070EGIEE94     000000010000000004425000000000000000000000000000000000000000110000000000000110000000000100000021022ACN    
01ELET        PNB     N1201705151031000070ELETE54     000000010000000002450000000000000000000000000000000000000000286400000000000286400000000100000190681ACN    
01ELET        PNB     N1201705151040000070ELETE57     000000010000000002750000000000000000000000000000000000000000283000000000000283000000000300000010681ACN    
01ELET        PNB     N1201705150965000070ELETE28     000000010000000002800000000000000000000000000000000000000000000100000000000000100000000100000010681ACN    
01ELET        ON      N1201705151864000070ELETE99     000000010000000002925000000000074400000000000000000000000000013200000000000087600000000100000011522ACN    
01ELPL        PN      N2201705150094000070ELPLE97     000000010000000000970000000000000000000000000000000000000000001600000000000001600000000100000011202ACN    
01EQTL        ON      NM201705150108000070EQTLE60     000000010000000006000000000000000000000000000000000000000000051500000000000051500000000200000061201ACN    
01ESTC        ON      NM201705150078000070ESTCE18     000000010000000001800000000001400000000000000000000000000000600000000000002000000000000100000011131ACN    
01FIBR        ON      NM201705151783000070FIBRE27     000000010000000002700000000000000000000000000010000000000000000000000000000010000000000100000011051ACN    
01FIBR        ON      NM201705151791000070FIBRE29     000000010000000002900000000000000000000000000032000000000000000000000000000032000000000400000011051ACN    
01FIBR        ON      NM201705151813000070FIBRE89     000000010000000002925000000000010000000000000010000000000000000000000000000020000000000100000011052ACN    
01FIBR        ON      NM201705150213000070FIBRE30     000000010000000003000000000000000000000000000004000000000000000000000000000004000000000100000011051ACN    
01FIBR        ON      NM201705151805000070FIBRE32     000000010000000003200000000000000000000000000032000000000000000000000000000032000000000100000041051ACN    
01FIBR        ON      NM201705151520000070FIBRE33     000000010000000003300000000000000000000000000000000000000000125000000000000125000000000100000011051ACN    
01FIBR        ON      NM201705151732000070FIBRE35     000000010000000003500000000000000000000000000032000000000000091800000000000123800000000400000041051ACN    
01FIBR        ON      NM201705150221000070FIBRE36     000000010000000003600000000000033000000000000000000000000000000000000000000033000000000100000011051ACN    
01FLRY        ON      NM201705150035000070FLRYE8      000000010000000003875000000000000000000000000000000000000000065200000000000065200000000100000011162ACN    
01GGBR        PN      N1201705153069000070GGBRE75     000000010000000000745000000000001500000000000000000000000000001000000000000002500000000100000021602ACN    
01GGBR        PN      N1201705153085000070GGBRE10     000000010000000000995000000000000000000000000000400000000000015600000000000016000000000200000021601ACN    
01GGBR        PN      N1201705150868000070GGBRE62     000000010000000001255000000000000000000000000004200000000000000000000000000004200000000100000011622ACN    
01GGBR        PN      N1201705150884000070GGBRE42     000000010000000001280000000000000000000000000004000000000000000000000000000004000000000200000011621ACN    
01GGBR        PN      N1201705150876000070GGBRE63     000000010000000001355000000000000000000000000004200000000000000000000000000004200000000300000011622ACN    
01GGBR        PN      N1201705150892000070GGBRE43     000000010000000001380000000000000000000000000004000000000000000000000000000004000000000100000021621ACN    
01GGBR        PN      N1201705150728000070GGBRE74     000000010000000001405000000000005000000000000003000000000000000000000000000008000000000100000021622ACN    
01GGBR        PN      N1201705151007000070GGBRE14     000000010000000001430000000000000000000000000000000000000000002000000000000002000000000200000011621ACN    
01GGBR        PN      N1201705151015000070GGBRE44     000000010000000001480000000000000000000000000000300000000000000000000000000000300000000100000021621ACN    
01GGBR        PN      N1201705151210000070GGBRE35     000000010000000001505000000000000000000000000003800000000000000000000000000003800000000100000021622ACN    
01GGBR        PN      N1201705151031000070GGBRE16     000000010000000001630000000000000000000000000008000000000000000000000000000008000000000100000011621ACN    
01GOAU        PN      N1201705152283000070GOAUE56     000000010000000000560000000000036000000000000000000000000000000000000000000036000000000100000012421ACN    
01GOAU        PN      N1201705152909000070GOAUE65     000000010000000000650000000000000000000000000000000000000000338000000000000338000000000100000012422ACN    
01HYPE        ON      NM201705151457000070HYPEE30     000000010000000002940000000000000000000000000000000000000000070500000000000070500000000100000021081ACN    
01HYPE        ON      NM201705150019000070HYPEE10     000000010000000003065000000000000000000000000000000000000000176000000000000176000000000100000011092ACN    
01IGTA        ON      NM201705150345000070IGTAE90     000000010000000003025000000000000000000000000000000000000000187200000000000187200000000100000011182ACN    
01IGTA        ON      NM201705150477000070IGTAE10     000000010000000003050000000000000000000000000000000000000000157200000000000157200000000100000171181ACN    
01ITSA    /EX PN      N1201705151368000070ITSAE35     000000010000000000718000000000000000000000000000000000000000364600000000000364600000000100000073682ACN    
01ITSA    /EX PN      N1201705150981000070ITSAE95     000000010000000000809000000000004070000000000005500000000000148100000000000157670000000200000033682ACN    
01VALE        PNA     N1201706193298000070VALEF14     000000010000000001399000000000391300000000000000200000000000083500000000000475000000000600000681921ACN    
01VALE        PNA     N1201706194022000070VALEF15     000000010000000001499000000000015100000000000000000000000000007800000000000022900000000200000071921ACN    
01VALE        PNA     N1201706196904000070VALEF75     000000010000000001524000000000031500000000000000000000000000000000000000000031500000000200000021922ACN    
01VALE        PNA     N1201706194251000070VALEF5      000000010000000001574000000000000000000000000000000000000000222000000000000222000000000100000011922ACN    
01VALE        PNA     N1201706194030000070VALEF16     000000010000000001599000000000002700000000000002700000000001051000000000001056400000000200000101921ACN    
01VALE        PNA     N1201706194090000070VALEF17     000000010000000001699000000000071400000000000000000000000000004800000000000076200000000100000051921ACN    
01VALE        PNA     N1201706194103000070VALEF18     000000010000000001799000000000046100000000000000000000000000015100000000000061200000000400000081921ACN    
01VALE        PNA     N1201706194111000070VALEF19     000000010000000001899000000000040300000000000000000000000000286000000000000326300000000200000081921ACN    
01VALE        PNA     N1201706197331000070VALEF87     000000010000000002724000000000039300000000000010000000000000007200000000000056500000000300000101922ACN    
01VALE        PNA     N1201706190663000070VALEF74     000000010000000002474000000000000000000000000000000000000000002400000000000002400000000100000011932ACN    
01VALE        PNA     N1201706190736000070VALEF88     000000010000000002824000000000004400000000000200000000000000055600000000000260000000000200000071932ACN    
01VALE        PNA     N1201706191244000070VALEF60     000000010000000003099000000000000000000000000000000000000000500000000000000500000000000100000021931ACN    
01VALE        PNA     N1201706191872000070VALEF71     000000010000000003199000000000000000000000000000000000000000010000000000000010000000000100000011931ACN    
01VALE        PNA     N1201706191899000070VALEF3      000000010000000003399000000000000000000000000000000000000000200000000000000200000000000100000011931ACN    
01VALE        PNA     N1201706192836000070VALEF94     000000010000000003424000000000000000000000000000000000000000001700000000000001700000000100000011932ACN    
01VALE        PNA     N1201706193530000070VALEF36     000000010000000003649000000000002200000000000000000000000000000000000000000002200000000100000011931ACN    
01VALE        PNA     N1201706193026000070VALEF77     000000010000000003724000000000000000000000000000000000000000006900000000000006900000000100000011932ACN    
01VALE        PNA     N1201706192771000070VALEF38     000000010000000003849000000000000000000000000000000000000000020000000000000020000000000100000011931ACN    
01VIVT    /EJ PN        201706190400000070VIVTF13     000000010000000004310000000000000000000000000000000000000000010000000000000010000000000100000011321ACN    
01VIVT    /EJ PN        201706191104000070VIVTF83     000000010000000004335000000000000000000000000000000000000000001500000000000001500000000100000011322ACN    
01WEGE    /ED ON      NM201706190868000070WEGEF47     000000010000000001722000000000300000000000000000000000000000200000000000000500000000000100000011721ACN    
01WEGE    /ED ON      NM201706190167000070WEGEF65     000000010000000001497000000000000000000000000000000000000000012000000000000012000000000100000011752ACN    
01ABEV        ON        201707172380000070ABEVG98     000000010000000001795000000000000000000000000037300000000000133700000000000171000000000100000021121ACN    
01ABEV        ON        201707171325000070ABEVG88     000000010000000001820000000000004700000000000000000000000000000000000000000004700000000100000011122ACN    
01ABEV        ON        201707172461000070ABEVG79     000000010000000001870000000002000000000000000000000000000000000000000000002000000000000100000011122ACN    
01ABEV        ON        201707171260000070ABEVG49     000000010000000001895000000000000000000000000002700000000000000000000000000002700000000100000011121ACN    
01ABEV        ON        201707171295000070ABEVG75     000000010000000001920000000000000000000000000000000000000000278700000000000278700000000200000021122ACN    
01ABEV        ON        201707172402000070ABEVG61     000000010000000002070000000000011000000000000000000000000000000000000000000011000000000100000011122ACN    
01ABEV        ON        201707171309000070ABEVG2      000000010000000002170000000000000000000000000000000000000000018300000000000018300000000200000021122ACN    
01ABEV        ON        201707171910000070ABEVG82     000000010000000002220000000000004500000000000070600000000000012000000000000087100000000400000061122ACN    
01ABEV        ON        201707171333000070ABEVG93     000000010000000002270000000000000000000000000900000000000000000000000000000900000000000200000011122ACN    
01ABEV        ON        201707172720000070ABEVG63     000000010000000002295000000000000000000000001810800000000000189200000000002000000000000100000011121ACN    
01ABEV        ON        201707171414000070ABEVG47     000000010000000002370000000000000000000000000029200000000003941600000000003970800000000200000021122ACN    
01ABEV        ON        201707171082000070ABEVG67     000000010000000001745000000000008600000000000000000000000000000000000000000008600000000100000011131ACN    
01BBAS    /ERJON      NM201707171023000070BBASG96     000000010000000001536000000000000000000000000003200000000000000000000000000003200000000100000012591ACN    
01BBAS    /ERJON      NM201707171031000070BBASG81     000000010000000002036000000000001300000000000000000000000000002400000000000003700000000100000042591ACN    
01BBAS    /ERJON      NM201707170809000070BBASG83     000000010000000002236000000000147900000000000000000000000000003800000000000151700000000300000092591ACN    
01BBAS    /ERJON      NM201707170906000070BBASG73     000000010000000002311000000000076400000000000000000000000000000000000000000076400000000100000012592ACN    
01BBAS    /ERJON      NM201707170817000070BBASG86     000000010000000002561000000000004800000000000000000000000000000000000000000004800000000100000022592ACN    
01BBAS    /ERJON      NM201707170914000070BBASG76     000000010000000002611000000000014400000000000000000000000000000000000000000014400000000100000012592ACN    
01BBAS    /ERJON      NM201707171040000070BBASG61     000000010000000003061000000000000000000000000000000000000000005600000000000005600000000200000052592ACN    
01BBAS    /ERJON      NM201707170086000070BBASG66     000000010000000001586000000000000000000000000005900000000000000100000000000006000000000100000022611ACN    
01BBAS    /ERJON      NM201707170612000070BBASG98     000000010000000001811000000000000000000000000007000000000000000000000000000007000000000100000012612ACN    
01BBAS    /ERJON      NM201707170183000070BBASG39     000000010000000001911000000000003600000000000002800000000000000000000000000006400000000100000012612ACN    
01PETR        PN        201708213611000070PETRH50     000000010000000002050000000000000000000000000000000000000000215000000000000215000000000100000011861ACN    
01POMO        PN      N2201708210043000070POMOH95     000000010000000000489000000000000300000000000000000000000000000100000000000000400000000100000020791ACN    
01RADL        ON      NM201708210264000070RADLH87     000000010000000006750000000000000000000000000000000000000000007700000000000007700000000100000011212ACN    
01RUMO        ON      NM201708212682000070RUMOH21     000000010000000001125000000000000000000000000000000000000000032000000000000032000000000100000021022ACN    
01SUZB        PNA     N1201708210841000070SUZBH32     000000010000000001275000000000006600000000000000000000000000000000000000000006600000000100000021232ACN    
01UGPA    /ED ON      NM201708212259000070UGPAH89     000000010000000008733000000000000000000000000000000000000000003500000000000003500000000100000011371ACN    
01UGPA    /ED ON      NM201708212348000070UGPAH72     000000010000000007183000000000000000000000000000000000000000007100000000000007100000000100000011382ACN    
01UGPA    /ED ON      NM201708211023000070UGPAH82     000000010000000008133000000000000000000000000000000000000000050000000000000050000000000100000011381ACN    
01UGPA    /ED ON      NM201708211031000070UGPAH34     000000010000000008383000000000000000000000000000000000000000050000000000000050000000000100000011382ACN    
01VALE        PNA     N1201708214219000070VALEH61     000000010000000001136000000000010000000000000028500000000000000100000000000038600000000300000031921ACN    
01VALE        PNA     N1201708214227000070VALEH85     000000010000000001511000000000140200000000000023400000000000000100000000000163700000000200000081922ACN    
01VALE        PNA     N1201708214456000070VALEH16     000000010000000001586000000000023200000000000000000000000000037400000000000060600000000200000111921ACN    
01VALE        PNA     N1201708214464000070VALEH17     000000010000000001686000000000003700000000000000000000000000095400000000000099100000000100000051921ACN    
01VALE        PNA     N1201708214928000070VALEH23     000000010000000001711000000000000000000000000000000000000000003500000000000003500000000100000011922ACN    
01VALE        PNA     N1201708214472000070VALEH18     000000010000000001786000000000001900000000000000000000000000061300000000000063200000000100000081921ACN    
01VALE        PNA     N1201708215061000070VALEH49     000000010000000001936000000000000000000000000000100000000000000100000000000000200000000100000021921ACN    
01VALE        PNA     N1201708215223000070VALEH29     000000010000000002011000000000016100000000000000000000000000000000000000000016100000000300000061922ACN    
01VALE        PNA     N1201708215312000070VALEH21     000000010000000002086000000000007000000000000000000000000000000100000000000007100000000200000021921ACN    
01VALE        PNA     N1201708215517000070VALEH51     000000010000000002136000000000000000000000000000000000000000646700000000000646700000000200000041921ACN    
01VALE        PNA     N1201708211694000070VALEH60     000000010000000001011000000000002200000000000000000000000000004300000000000006500000000100000031932ACN    
01VALE        PNA     N1201708213549000070VALEH68     000000010000000001811000000000304900000000000000000000000000000000000000000304900000000100000021932ACN    
01VALE        PNA     N1201708213042000070VALEH69     000000010000000001961000000000000000000000000000000000000000035800000000000035800000000100000011932ACN    
01VALE        PNA     N1201708213077000070VALEH4      000000010000000003486000000000002000000000000000000000000000000000000000000002000000000100000011931ACN    
01VALE        PNA     N1201708212127000070VALEH35     000000010000000003536000000000000000000000000000000000000000001800000000000001800000000100000011931ACN    
01VALE        PNA     N1201708213581000070VALEH33     000000010000000003736000000000001600000000000000000000000000000600000000000002200000000100000021931ACN    
01VALE        PNA     N1201708213492000070VALEH77     000000010000000003761000000000001500000000000000000000000000000000000000000001500000000100000011932ACN    
01VALE        PNA     N1201708213611000070VALEH7      000000010000000003786000000000006200000000000000000000000000000000000000000006200000000100000011931ACN    
01VALE        PNA     N1201708213441000070VALEH38     000000010000000003886000000000001500000000000000000000000000000000000000000001500000000100000011931ACN    
01VIVT    /EJ PN        201708210701000070VIVTH48     000000010000000004791000000000000000000000000000000000000000003000000000000003000000000100000041331ACN    
01WEGE    /ED ON      NM201708210027000070WEGEH81     000000010000000002125000000000000000000000000000000000000000050000000000000050000000000100000011772ACN    
01ABEV        ON        201709182330000070ABEVI78     000000010000000001820000000000000000000000000000000000000000166000000000000166000000000100000011122ACN    
01ABEV        ON        201709182313000070ABEVI81     000000010000000002120000000000000000000000000000000000000000791900000000000791900000000200000011122ACN    
01ABEV        ON        201709182348000070ABEVI32     000000010000000002220000000000000000000000000038500000000000028000000000000066500000000700000031122ACN    
01ABEV        ON        201709182232000070ABEVI4      000000010000000002370000000000000000000000000000000000000000022500000000000022500000000100000011122ACN    
01ABEV        ON        201709181112000070ABEVI80     000000010000000001970000000000000000000000000021000000000000040000000000000061000000000200000021132ACN    
01ABEV        ON        201709180655000070ABEVI3      000000010000000002270000000000000000000000001307000000000003169200000000004476200000000100000031132ACN    
01ABEV        ON        201709180027000070ABEVI67     000000010000000001770000000000000000000000000000000000000000020000000000000020000000000100000011162ACN    
01BBAS    /ERJON      NM201709180167000070BBASI5      000000010000000001509000000000000000000000000006300000000000000000000000000006300000000100000012611ACN    
01BBAS    /ERJON      NM201709180175000070BBASI89     000000010000000001934000000000008300000000000006300000000000000000000000000014600000000200000022612ACN    
01BBAS    /ERJON      NM201709180086000070BBASI78     000000010000000002784000000000000000000000000000000000000000003000000000000003000000000100000012622ACN    
01BBAS    /ERJON      NM201709180051000070BBASI99     000000010000000002884000000000004400000000000000000000000000004000000000000008400000000200000022622ACN    
01BBAS    /ERJON      NM201709180027000070BBASI1      000000010000000002184000000000001000000000000000000000000000300000000000000301000000000200000022632ACN    
01BBAS    /ERJON      NM201709180035000070BBASI3      000000010000000002709000000000000000000000000000000000000000005900000000000005900000000100000032631ACN    
01BBDC    /EJ PN      N1201709181414000070BBDCI73     000000010000000001997000000000000000000000000000000000000000098700000000000098700000000100000016452ACN    
01BRFS        ON      NM201712183263000070BRFSL14     000000010000000005450000000000000000000000000000000000000000008000000000000008000000000100000011172ACN    
01BRFS        ON      NM201712183158000070BRFSL36     000000010000000005650000000000002000000000000000000000000000000000000000000002000000000200000011172ACN    
01BRFS        ON      NM201712182682000070BRFSL19     000000010000000005950000000000000000000000000000000000000000001100000000000001100000000100000011172ACN    
01BRFS        ON      NM201712180230000070BRFSL34     000000010000000006450000000000000000000000000005000000000000000000000000000005000000000100000011172ACN    
01BRFS        ON      NM201712181830000070BRFSL70     000000010000000007000000000000000000000000000000000000000000200000000000000200000000000100000011171ACN    
01BRML        ON      NM201712182801000070BRMLL15     000000010000000001500000000000000000000000000000000000000000100000000000000100000000000100000011091ACN    
01BRML        ON      NM201712182810000070BRMLL16     000000010000000001600000000000000000000000000000000000000000100000000000000100000000000100000011091ACN    
01BRML        ON      NM201712182844000070BRMLL76     000000010000000001625000000000000000000000000000000000000000127400000000000127400000000100000011092ACN    
01BRML        ON      NM201712183263000070BRMLL47     000000010000000001750000000000000000000000000000000000000000150000000000000150000000000100000011091ACN    
01BRML        ON      NM201712183271000070BRMLL18     000000010000000001800000000000000000000000000000000000000000150000000000000150000000000100000011091ACN    
01BVMF        ON      NM201712180094000070BVMFL81     000000010000000002150000000000003000000000000000000000000000000000000000000003000000000100000011382ACN    
01BVMF        ON      NM201712180116000070BVMFL80     000000010000000002050000000000000000000000000000000000000000034500000000000034500000000100000021402ACN    
01BVMF        ON      NM201712180710000070BVMFL82     000000010000000002250000000000000000000000000000000000000000006000000000000006000000000100000011402ACN    
01CCRO        ON      NM201712180477000070CCROL19     000000010000000001900000000000000000000000000000000000000000005000000000000005000000000100000021301ACN    
01CCRO        ON      NM201712180442000070CCROL79     000000010000000001925000000000144400000000000000000000000000115000000000000259400000000200000031302ACN    
01CESP        PNB     N1201712180051000070CESPL17     000000010000000001700000000000300000000000000000000000000000000000000000000300000000000100000011241ACN    
01CIEL        ON      NM201712182100000070CIELL3      000000010000000003315000000000000000000000004300000000000004300000000000008600000000000200000091201ACN    
01CIEL        ON      NM201712180701000070CIELL27     000000010000000002715000000000000000000000004300000000000000000000000000004300000000000900000021221ACN    
01CIEL        ON      NM201712180620000070CIELL69     000000010000000002990000000000000000000000000000000000000000003500000000000003500000000100000011222ACN    
01CPFE        ON      NM201712180299000070CPFEL58     000000010000000002828000000000000000000000000000000000000000003800000000000003800000000100000011261ACN    
01DTEX        ON      NM201712180256000070DTEXL9      000000010000000000899000000000000000000000000000000000000000120000000000000120000000000100000011241ACN    
01ECOR        ON      NM201712180698000070ECORL70     000000010000000001025000000000000000000000000000000000000000253000000000000253000000000100000011122ACN    
01FLRY        ON      NM201712180094000070FLRYL85     000000010000000004525000000000000000000000000000000000000000115000000000000115000000000100000021162ACN    
01GGBR        PN      N1201712180400000070GGBRL34     000000010000000001398000000000000000000000000000000000000000300200000000000300200000000200000021611ACN    
01GGBR        PN      N1201712180582000070GGBRL73     000000010000000001373000000000000000000000000000000000000000016000000000000016000000000100000011622ACN    
01GOAU        PN      N1201712182364000070GOAUL6      000000010000000000600000000000000000000000000500000000000000000000000000000500000000000100000012421ACN    
01GOAU        PN      N1201712182372000070GOAUL78     000000010000000000780000000000000000000000000500000000000000500000000000001000000000000100000012421ACN    
01ITSA    /EX PN      N1201712180876000070ITSAL80     000000010000000000804000000000000000000000000000000000000004100000000000004100000000000100000013722ACN    
01ITSA    /EX PN      N1201712180310000070ITSAL18     000000010000000000924000000000000000000000000000000000000001100000000000001100000000000100000013722ACN    
01ITSA    /EX PN      N1201712180299000070ITSAL99     000000010000000000944000000000000500000000001100300000000000000100000000001100900000000200000043722ACN    
01ITSA    /EX PN      N1201712180884000070ITSAL60     000000010000000001029000000001500000000000000000000000000000009100000000001509100000000300000043722ACN    
01ITSA    /EX PN      N1201712180531000070ITSAL40     000000010000000001054000000000000000000000000000000000000001650000000000001650000000000100000013741ACN    
01ITSA    /EX PN      N1201712180299000070ITSAL71     000000010000000001079000000002258300000000000000000000000000997600000000003255900000000400000093742ACN    
01ITSA    /EX PN      N1201712180558000070ITSAL31     000000010000000001129000000001200000000000000000000000000000002000000000001202000000000200000033742ACN    
01ITUB    /EDJPN      N1201712180051000070ITUBL88     000000010000000003332000000000000330000000000000000000000000015840000000000016170000000300000042072ACN    
01ITUB    /EDJPN      N1201712180604000070ITUBL63     000000010000000002945000000000000000000000000000000000000000027500000000000027500000000100000012081ACN    
01ITUB    /EDJPN      N1201712188010000070ITUBL51     000000010000000003604000000000001100000000000000000000000000022300000000000023400000000200000052082ACN    
01ITUB    /EDJPN      N1201712180612000070ITUBL91     000000010000000003650000000000000000000000000004510000000000025080000000000029590000000300000032082ACN    
01ITUB    /EDJPN      N1201712180434000070ITUBL18     000000010000000003741000000000000000000000000000000000000000003190000000000003190000000100000012092ACN    
01ITUB    /EDJPN      N1201712180140000070ITUBL16     000000010000000003832000000000003180000000000000000000000000003300000000000006480000000300000032092ACN    
01ITUB    /EDJPN      N1201712180140000070ITUBL36     000000010000000003173000000000033000000000000000000000000000005700000000000038700000000200000022101ACN    
01ITUB    /EDJPN      N1201712180256000070ITUBL20     000000010000000004445000000000124080000000000000100000000000159820000000000284000000000300000082101ACN    
01ITUB    /EDJPN      N1201712180337000070ITUBL50     000000010000000004491000000000027400000000000128700000000000003500000000000159600000000400000052112ACN    
